{"abi":[{"type":"constructor","inputs":[],"stateMutability":"nonpayable"},{"type":"function","name":"CELO","inputs":[],"outputs":[{"name":"","type":"address","internalType":"contract IERC20"}],"stateMutability":"view"},{"type":"function","name":"POINTS_PER_DEPOSIT","inputs":[],"outputs":[{"name":"","type":"uint256","internalType":"uint256"}],"stateMutability":"view"},{"type":"function","name":"actionCount","inputs":[],"outputs":[{"name":"","type":"uint256","internalType":"uint256"}],"stateMutability":"view"},{"type":"function","name":"agentId","inputs":[],"outputs":[{"name":"","type":"bytes32","internalType":"bytes32"}],"stateMutability":"view"},{"type":"function","name":"agentName","inputs":[],"outputs":[{"name":"","type":"string","internalType":"string"}],"stateMutability":"view"},{"type":"function","name":"agentVersion","inputs":[],"outputs":[{"name":"","type":"string","internalType":"string"}],"stateMutability":"view"},{"type":"function","name":"authorizedUsers","inputs":[{"name":"","type":"address","internalType":"address"}],"outputs":[{"name":"","type":"bool","internalType":"bool"}],"stateMutability":"view"},{"type":"function","name":"autoExecuteDueBills","inputs":[],"outputs":[],"stateMutability":"nonpayable"},{"type":"function","name":"bills","inputs":[{"name":"","type":"bytes32","internalType":"bytes32"}],"outputs":[{"name":"recipient","type":"address","internalType":"address"},{"name":"amount","type":"uint256","internalType":"uint256"},{"name":"frequency","type":"uint256","internalType":"uint256"},{"name":"nextPaymentTime","type":"uint256","internalType":"uint256"},{"name":"isActive","type":"bool","internalType":"bool"},{"name":"isPaid","type":"bool","internalType":"bool"},{"name":"createdBy","type":"address","internalType":"address"},{"name":"description","type":"string","internalType":"string"}],"stateMutability":"view"},{"type":"function","name":"cEUR","inputs":[],"outputs":[{"name":"","type":"address","internalType":"contract IERC20"}],"stateMutability":"view"},{"type":"function","name":"cUSD","inputs":[],"outputs":[{"name":"","type":"address","internalType":"contract IERC20"}],"stateMutability":"view"},{"type":"function","name":"cancelBill","inputs":[{"name":"_billId","type":"bytes32","internalType":"bytes32"}],"outputs":[],"stateMutability":"nonpayable"},{"type":"function","name":"claimRewards","inputs":[],"outputs":[],"stateMutability":"nonpayable"},{"type":"function","name":"createBill","inputs":[{"name":"_billId","type":"bytes32","internalType":"bytes32"},{"name":"_recipient","type":"address","internalType":"address"},{"name":"_amount","type":"uint256","internalType":"uint256"},{"name":"_frequencySeconds","type":"uint256","internalType":"uint256"},{"name":"_description","type":"string","internalType":"string"}],"outputs":[],"stateMutability":"nonpayable"},{"type":"function","name":"depositSavings","inputs":[{"name":"_amount","type":"uint256","internalType":"uint256"}],"outputs":[],"stateMutability":"nonpayable"},{"type":"function","name":"depositToYield","inputs":[{"name":"_amount","type":"uint256","internalType":"uint256"}],"outputs":[],"stateMutability":"nonpayable"},{"type":"function","name":"depositWithRoundUp","inputs":[{"name":"_transactionAmount","type":"uint256","internalType":"uint256"}],"outputs":[],"stateMutability":"nonpayable"},{"type":"function","name":"executeBill","inputs":[{"name":"_billId","type":"bytes32","internalType":"bytes32"}],"outputs":[],"stateMutability":"nonpayable"},{"type":"function","name":"executeTransaction","inputs":[{"name":"_to","type":"address","internalType":"address"},{"name":"_value","type":"uint256","internalType":"uint256"},{"name":"_data","type":"bytes","internalType":"bytes"},{"name":"_nonce","type":"uint256","internalType":"uint256"},{"name":"_signature","type":"bytes","internalType":"bytes"}],"outputs":[],"stateMutability":"nonpayable"},{"type":"function","name":"executedTransactions","inputs":[{"name":"","type":"bytes32","internalType":"bytes32"}],"outputs":[{"name":"","type":"bool","internalType":"bool"}],"stateMutability":"view"},{"type":"function","name":"getAgentIdentity","inputs":[],"outputs":[{"name":"_agentId","type":"bytes32","internalType":"bytes32"},{"name":"_name","type":"string","internalType":"string"},{"name":"_version","type":"string","internalType":"string"},{"name":"_reputation","type":"uint256","internalType":"uint256"},{"name":"_chain","type":"address","internalType":"address"},{"name":"_capabilities","type":"uint256","internalType":"uint256"}],"stateMutability":"view"},{"type":"function","name":"getAgentStats","inputs":[],"outputs":[{"name":"_totalSavings","type":"uint256","internalType":"uint256"},{"name":"_totalBillsPaid","type":"uint256","internalType":"uint256"},{"name":"_actionCount","type":"uint256","internalType":"uint256"},{"name":"_isActive","type":"bool","internalType":"bool"},{"name":"_reputation","type":"uint256","internalType":"uint256"}],"stateMutability":"view"},{"type":"function","name":"getBillDetails","inputs":[{"name":"_billId","type":"bytes32","internalType":"bytes32"}],"outputs":[{"name":"recipient","type":"address","internalType":"address"},{"name":"amount","type":"uint256","internalType":"uint256"},{"name":"frequency","type":"uint256","internalType":"uint256"},{"name":"nextPaymentTime","type":"uint256","internalType":"uint256"},{"name":"billActive","type":"bool","internalType":"bool"},{"name":"billPaid","type":"bool","internalType":"bool"}],"stateMutability":"view"},{"type":"function","name":"getNonce","inputs":[{"name":"_user","type":"address","internalType":"address"}],"outputs":[{"name":"","type":"uint256","internalType":"uint256"}],"stateMutability":"view"},{"type":"function","name":"getNotifications","inputs":[{"name":"_user","type":"address","internalType":"address"}],"outputs":[{"name":"","type":"tuple[]","internalType":"struct AutoPocketAgentV2.Notification[]","components":[{"name":"user","type":"address","internalType":"address"},{"name":"message","type":"string","internalType":"string"},{"name":"timestamp","type":"uint256","internalType":"uint256"},{"name":"read","type":"bool","internalType":"bool"},{"name":"notificationType","type":"uint8","internalType":"enum AutoPocketAgentV2.NotificationType"}]}],"stateMutability":"view"},{"type":"function","name":"getRewardPoints","inputs":[{"name":"_user","type":"address","internalType":"address"}],"outputs":[{"name":"","type":"uint256","internalType":"uint256"}],"stateMutability":"view"},{"type":"function","name":"getUnreadCount","inputs":[{"name":"_user","type":"address","internalType":"address"}],"outputs":[{"name":"count","type":"uint256","internalType":"uint256"}],"stateMutability":"view"},{"type":"function","name":"getUserBillIds","inputs":[{"name":"_user","type":"address","internalType":"address"}],"outputs":[{"name":"","type":"bytes32[]","internalType":"bytes32[]"}],"stateMutability":"view"},{"type":"function","name":"getUserRoundUpBalance","inputs":[{"name":"_user","type":"address","internalType":"address"}],"outputs":[{"name":"","type":"uint256","internalType":"uint256"}],"stateMutability":"view"},{"type":"function","name":"getUserSavings","inputs":[{"name":"_user","type":"address","internalType":"address"}],"outputs":[{"name":"totalDeposited","type":"uint256","internalType":"uint256"},{"name":"totalWithdrawn","type":"uint256","internalType":"uint256"},{"name":"availableBalance","type":"uint256","internalType":"uint256"},{"name":"lastDepositTime","type":"uint256","internalType":"uint256"},{"name":"isRegistered","type":"bool","internalType":"bool"}],"stateMutability":"view"},{"type":"function","name":"isActive","inputs":[],"outputs":[{"name":"","type":"bool","internalType":"bool"}],"stateMutability":"view"},{"type":"function","name":"lastActionTimestamp","inputs":[],"outputs":[{"name":"","type":"uint256","internalType":"uint256"}],"stateMutability":"view"},{"type":"function","name":"lastBillExecution","inputs":[{"name":"","type":"address","internalType":"address"}],"outputs":[{"name":"","type":"uint256","internalType":"uint256"}],"stateMutability":"view"},{"type":"function","name":"markNotificationRead","inputs":[{"name":"_index","type":"uint256","internalType":"uint256"}],"outputs":[],"stateMutability":"nonpayable"},{"type":"function","name":"nonce","inputs":[{"name":"","type":"address","internalType":"address"}],"outputs":[{"name":"","type":"uint256","internalType":"uint256"}],"stateMutability":"view"},{"type":"function","name":"notificationCount","inputs":[],"outputs":[{"name":"","type":"uint256","internalType":"uint256"}],"stateMutability":"view"},{"type":"function","name":"notifications","inputs":[{"name":"","type":"address","internalType":"address"},{"name":"","type":"uint256","internalType":"uint256"}],"outputs":[{"name":"user","type":"address","internalType":"address"},{"name":"message","type":"string","internalType":"string"},{"name":"timestamp","type":"uint256","internalType":"uint256"},{"name":"read","type":"bool","internalType":"bool"},{"name":"notificationType","type":"uint8","internalType":"enum AutoPocketAgentV2.NotificationType"}],"stateMutability":"view"},{"type":"function","name":"notifyUser","inputs":[{"name":"_user","type":"address","internalType":"address"},{"name":"_message","type":"string","internalType":"string"}],"outputs":[],"stateMutability":"nonpayable"},{"type":"function","name":"owner","inputs":[],"outputs":[{"name":"","type":"address","internalType":"address"}],"stateMutability":"view"},{"type":"function","name":"pause","inputs":[],"outputs":[],"stateMutability":"nonpayable"},{"type":"function","name":"paused","inputs":[],"outputs":[{"name":"","type":"bool","internalType":"bool"}],"stateMutability":"view"},{"type":"function","name":"registerUser","inputs":[],"outputs":[],"stateMutability":"nonpayable"},{"type":"function","name":"renounceOwnership","inputs":[],"outputs":[],"stateMutability":"nonpayable"},{"type":"function","name":"reputationScore","inputs":[],"outputs":[{"name":"","type":"uint256","internalType":"uint256"}],"stateMutability":"view"},{"type":"function","name":"rewardPoints","inputs":[{"name":"","type":"address","internalType":"address"}],"outputs":[{"name":"","type":"uint256","internalType":"uint256"}],"stateMutability":"view"},{"type":"function","name":"roundUpSettings","inputs":[{"name":"","type":"address","internalType":"address"}],"outputs":[{"name":"","type":"uint256","internalType":"uint256"}],"stateMutability":"view"},{"type":"function","name":"setActive","inputs":[{"name":"_active","type":"bool","internalType":"bool"}],"outputs":[],"stateMutability":"nonpayable"},{"type":"function","name":"setRoundUpThreshold","inputs":[{"name":"_threshold","type":"uint256","internalType":"uint256"}],"outputs":[],"stateMutability":"nonpayable"},{"type":"function","name":"setYieldVault","inputs":[{"name":"_vault","type":"address","internalType":"address"}],"outputs":[],"stateMutability":"nonpayable"},{"type":"function","name":"totalBillsPaid","inputs":[],"outputs":[{"name":"","type":"uint256","internalType":"uint256"}],"stateMutability":"view"},{"type":"function","name":"totalRoundUps","inputs":[{"name":"","type":"address","internalType":"address"}],"outputs":[{"name":"","type":"uint256","internalType":"uint256"}],"stateMutability":"view"},{"type":"function","name":"totalSavings","inputs":[],"outputs":[{"name":"","type":"uint256","internalType":"uint256"}],"stateMutability":"view"},{"type":"function","name":"transferOwnership","inputs":[{"name":"newOwner","type":"address","internalType":"address"}],"outputs":[],"stateMutability":"nonpayable"},{"type":"function","name":"unpause","inputs":[],"outputs":[],"stateMutability":"nonpayable"},{"type":"function","name":"userBillIds","inputs":[{"name":"","type":"address","internalType":"address"},{"name":"","type":"uint256","internalType":"uint256"}],"outputs":[{"name":"","type":"bytes32","internalType":"bytes32"}],"stateMutability":"view"},{"type":"function","name":"userData","inputs":[{"name":"","type":"address","internalType":"address"}],"outputs":[{"name":"totalDeposited","type":"uint256","internalType":"uint256"},{"name":"totalWithdrawn","type":"uint256","internalType":"uint256"},{"name":"roundUpBalance","type":"uint256","internalType":"uint256"},{"name":"lastDepositTime","type":"uint256","internalType":"uint256"},{"name":"isRegistered","type":"bool","internalType":"bool"},{"name":"yTokens","type":"uint256","internalType":"uint256"}],"stateMutability":"view"},{"type":"function","name":"verifyCeloIdentity","inputs":[{"name":"_user","type":"address","internalType":"address"},{"name":"_credential","type":"bytes","internalType":"bytes"}],"outputs":[{"name":"","type":"bool","internalType":"bool"}],"stateMutability":"nonpayable"},{"type":"function","name":"withdrawAll","inputs":[],"outputs":[],"stateMutability":"nonpayable"},{"type":"function","name":"withdrawFromYield","inputs":[{"name":"_yTokens","type":"uint256","internalType":"uint256"}],"outputs":[],"stateMutability":"nonpayable"},{"type":"function","name":"withdrawSavings","inputs":[{"name":"_amount","type":"uint256","internalType":"uint256"}],"outputs":[],"stateMutability":"nonpayable"},{"type":"function","name":"withdrawToken","inputs":[{"name":"_token","type":"address","internalType":"address"},{"name":"_amount","type":"uint256","internalType":"uint256"}],"outputs":[],"stateMutability":"nonpayable"},{"type":"function","name":"yieldEnabled","inputs":[],"outputs":[{"name":"","type":"bool","internalType":"bool"}],"stateMutability":"view"},{"type":"function","name":"yieldRate","inputs":[],"outputs":[{"name":"","type":"uint256","internalType":"uint256"}],"stateMutability":"view"},{"type":"function","name":"yieldVault","inputs":[],"outputs":[{"name":"","type":"address","internalType":"address"}],"stateMutability":"view"},{"type":"event","name":"AgentActivated","inputs":[{"name":"active","type":"bool","indexed":false,"internalType":"bool"}],"anonymous":false},{"type":"event","name":"AgentInitialized","inputs":[{"name":"agentId","type":"bytes32","indexed":true,"internalType":"bytes32"},{"name":"name","type":"string","indexed":false,"internalType":"string"},{"name":"version","type":"string","indexed":false,"internalType":"string"}],"anonymous":false},{"type":"event","name":"BillCancelled","inputs":[{"name":"billId","type":"bytes32","indexed":true,"internalType":"bytes32"}],"anonymous":false},{"type":"event","name":"BillCreated","inputs":[{"name":"billId","type":"bytes32","indexed":true,"internalType":"bytes32"},{"name":"user","type":"address","indexed":true,"internalType":"address"},{"name":"amount","type":"uint256","indexed":false,"internalType":"uint256"},{"name":"frequency","type":"uint256","indexed":false,"internalType":"uint256"}],"anonymous":false},{"type":"event","name":"BillExecuted","inputs":[{"name":"billId","type":"bytes32","indexed":true,"internalType":"bytes32"},{"name":"user","type":"address","indexed":true,"internalType":"address"},{"name":"amount","type":"uint256","indexed":false,"internalType":"uint256"}],"anonymous":false},{"type":"event","name":"FundsReceived","inputs":[{"name":"from","type":"address","indexed":true,"internalType":"address"},{"name":"amount","type":"uint256","indexed":false,"internalType":"uint256"}],"anonymous":false},{"type":"event","name":"NotificationSent","inputs":[{"name":"user","type":"address","indexed":true,"internalType":"address"},{"name":"message","type":"string","indexed":false,"internalType":"string"},{"name":"timestamp","type":"uint256","indexed":false,"internalType":"uint256"}],"anonymous":false},{"type":"event","name":"OwnershipTransferred","inputs":[{"name":"previousOwner","type":"address","indexed":true,"internalType":"address"},{"name":"newOwner","type":"address","indexed":true,"internalType":"address"}],"anonymous":false},{"type":"event","name":"Paused","inputs":[{"name":"account","type":"address","indexed":false,"internalType":"address"}],"anonymous":false},{"type":"event","name":"RewardsClaimed","inputs":[{"name":"user","type":"address","indexed":true,"internalType":"address"},{"name":"amount","type":"uint256","indexed":false,"internalType":"uint256"}],"anonymous":false},{"type":"event","name":"SavingsDeposited","inputs":[{"name":"user","type":"address","indexed":true,"internalType":"address"},{"name":"amount","type":"uint256","indexed":false,"internalType":"uint256"},{"name":"roundUp","type":"uint256","indexed":false,"internalType":"uint256"}],"anonymous":false},{"type":"event","name":"SavingsWithdrawn","inputs":[{"name":"user","type":"address","indexed":true,"internalType":"address"},{"name":"amount","type":"uint256","indexed":false,"internalType":"uint256"}],"anonymous":false},{"type":"event","name":"Unpaused","inputs":[{"name":"account","type":"address","indexed":false,"internalType":"address"}],"anonymous":false},{"type":"event","name":"UserRegistered","inputs":[{"name":"user","type":"address","indexed":true,"internalType":"address"}],"anonymous":false},{"type":"error","name":"AgentNotActive","inputs":[]},{"type":"error","name":"AlreadyRegistered","inputs":[]},{"type":"error","name":"BillAlreadyExists","inputs":[]},{"type":"error","name":"BillNotFound","inputs":[]},{"type":"error","name":"EnforcedPause","inputs":[]},{"type":"error","name":"ExpectedPause","inputs":[]},{"type":"error","name":"InsufficientBalance","inputs":[]},{"type":"error","name":"InvalidAmount","inputs":[]},{"type":"error","name":"InvalidRecipient","inputs":[]},{"type":"error","name":"NotAuthorized","inputs":[]},{"type":"error","name":"OwnableInvalidOwner","inputs":[{"name":"owner","type":"address","internalType":"address"}]},{"type":"error","name":"OwnableUnauthorizedAccount","inputs":[{"name":"account","type":"address","internalType":"address"}]},{"type":"error","name":"PaymentNotDue","inputs":[]},{"type":"error","name":"ReentrancyGuardReentrantCall","inputs":[]},{"type":"error","name":"SafeERC20FailedOperation","inputs":[{"name":"token","type":"address","internalType":"address"}]},{"type":"error","name":"UserNotRegistered","inputs":[]},{"type":"error","name":"YieldTransferFailed","inputs":[]},{"type":"error","name":"ZeroAddress","inputs":[]}],"bytecode":{"object":"0x60e06040526040518060400160405280600a81526020017f4175746f506f636b657400000000000000000000000000000000000000000000815250600690816100489190610592565b506040518060400160405280600581526020017f332e302e300000000000000000000000000000000000000000000000000000008152506007908161008d9190610592565b50605f6008556101f4600a553480156100a4575f5ffd5b50335f73ffffffffffffffffffffffffffffffffffffffff168173ffffffffffffffffffffffffffffffffffffffff1603610116575f6040517f1e4fbdf700000000000000000000000000000000000000000000000000000000815260040161010d91906106a0565b60405180910390fd5b6101258161026060201b60201c565b50600161014461013961032160201b60201c565b61034a60201b60201c565b5f018190555073765de816845861e75a25fca122bb6898b8b1272a73ffffffffffffffffffffffffffffffffffffffff1660808173ffffffffffffffffffffffffffffffffffffffff168152505073471ece3750da237f93b8e339c536988bc5deb0b473ffffffffffffffffffffffffffffffffffffffff1660a08173ffffffffffffffffffffffffffffffffffffffff168152505073d8763cba276ab0ed6a75dd1b5f2aeef3a57cb60073ffffffffffffffffffffffffffffffffffffffff1660c08173ffffffffffffffffffffffffffffffffffffffff16815250506040516020016102319061070d565b6040516020818303038152906040528051906020012060058190555061025b61035360201b60201c565b610721565b5f5f5f9054906101000a900473ffffffffffffffffffffffffffffffffffffffff169050815f5f6101000a81548173ffffffffffffffffffffffffffffffffffffffff021916908373ffffffffffffffffffffffffffffffffffffffff1602179055508173ffffffffffffffffffffffffffffffffffffffff168173ffffffffffffffffffffffffffffffffffffffff167f8be0079c531659141344cd1fd0a4f28419497f9722a3daafe3b4186f6b6457e060405160405180910390a35050565b5f7f9b779b17422d0df92223018b32b4d1fa46e071723d6817e2486d003becc55f005f1b905090565b5f819050919050565b565b5f81519050919050565b7f4e487b71000000000000000000000000000000000000000000000000000000005f52604160045260245ffd5b7f4e487b71000000000000000000000000000000000000000000000000000000005f52602260045260245ffd5b5f60028204905060018216806103d057607f821691505b6020821081036103e3576103e261038c565b5b50919050565b5f819050815f5260205f209050919050565b5f6020601f8301049050919050565b5f82821b905092915050565b5f600883026104457fffffffffffffffffffffffffffffffffffffffffffffffffffffffffffffffff8261040a565b61044f868361040a565b95508019841693508086168417925050509392505050565b5f819050919050565b5f819050919050565b5f61049361048e61048984610467565b610470565b610467565b9050919050565b5f819050919050565b6104ac83610479565b6104c06104b88261049a565b848454610416565b825550505050565b5f5f905090565b6104d76104c8565b6104e28184846104a3565b505050565b5b81811015610505576104fa5f826104cf565b6001810190506104e8565b5050565b601f82111561054a5761051b816103e9565b610524846103fb565b81016020851015610533578190505b61054761053f856103fb565b8301826104e7565b50505b505050565b5f82821c905092915050565b5f61056a5f198460080261054f565b1980831691505092915050565b5f610582838361055b565b9150826002028217905092915050565b61059b82610355565b67ffffffffffffffff8111156105b4576105b361035f565b5b6105be82546103b9565b6105c9828285610509565b5f60209050601f8311600181146105fa575f84156105e8578287015190505b6105f28582610577565b865550610659565b601f198416610608866103e9565b5f5b8281101561062f5784890151825560018201915060208501945060208101905061060a565b8683101561064c5784890151610648601f89168261055b565b8355505b6001600288020188555050505b505050505050565b5f73ffffffffffffffffffffffffffffffffffffffff82169050919050565b5f61068a82610661565b9050919050565b61069a81610680565b82525050565b5f6020820190506106b35f830184610691565b92915050565b5f81905092915050565b7f4175746f506f636b65742d4167656e742d7633000000000000000000000000005f82015250565b5f6106f76013836106b9565b9150610702826106c3565b601382019050919050565b5f610717826106eb565b9150819050919050565b60805160a05160c0516159d76107915f395f61232101525f61390001525f8181610f0001528181610fae015281816110b20152818161125d0152818161141e01528181611ce1015281816123680152818161240701528181612c8c0152818161316f015261363f01526159d75ff3fe608060405234801561000f575f5ffd5b50600436106103ce575f3560e01c8063787930c2116101fd578063acec338a11610118578063de986450116100ab578063f2fde38b1161007a578063f2fde38b14610b92578063f60e673e14610bae578063f80a205714610bcc578063fd67508d14610c00576103ce565b8063de98645014610b30578063e84f43b714610b4c578063eac697c914610b6a578063f1f1e22214610b88576103ce565b8063b5a6a3d1116100e7578063b5a6a3d114610a8a578063c2752e4314610aad578063c891091314610acb578063cf2bb94714610b00576103ce565b8063acec338a146109f2578063ae5f402e14610a0e578063b3e59d4114610a2a578063b5762e4014610a5a576103ce565b80638da5cb5b11610190578063a453b6cf1161015f578063a453b6cf14610958578063a662fac914610974578063a6e5b6d2146109a4578063a7f8a5e2146109d4576103ce565b80638da5cb5b146108c95780639bf42b3f146108e75780639e281a9814610905578063a449718214610921576103ce565b8063853828b6116101cc578063853828b6146108435780638691d34c1461084d5780638a8f63b01461087d5780638da1eccf146108ad576103ce565b8063787930c2146107b65780637bd95a85146107eb5780637d1f2de71461081b5780638456cb5914610839576103ce565b80633f4ba83a116102ed57806365d0bddd1161028057806370ae92d21161024f57806370ae92d21461073c57806371342f0c1461076c578063715018a61461078a57806377a5e9f214610794576103ce565b806365d0bddd146106b257806366737641146106e65780636999ac93146107025780636c49ad8014610720576103ce565b80634d3820eb116102bc5780634d3820eb146106505780635c975abb1461065a5780636057710f1461067857806360a7fc1f14610694576103ce565b80633f4ba83a146105dc578063404a43c4146105e657806341d7b1d3146106165780634315f45814610634576103ce565b806322f3e2d4116103655780632d0335ab116103345780632d0335ab14610568578063372500ab1461059857806339038031146105a25780633c19804e146105be576103ce565b806322f3e2d4146104f457806329da5738146105125780632a6d9ddd146105305780632badf0561461054c576103ce565b80631518c958116103a15780631518c9581461045a57806315ee90d61461048a5780631828983a146104a65780631fccf672146104d6576103ce565b80630dc7fff9146103d257806310c59c72146103f0578063137c3f691461040e578063145f759c1461042a575b5f5ffd5b6103da610c30565b6040516103e791906142a9565b60405180910390f35b6103f8610c36565b6040516104059190614332565b60405180910390f35b610428600480360381019061042391906143b4565b610cc2565b005b610444600480360381019061043f9190614440565b610d8d565b60405161045191906144b7565b60405180910390f35b610474600480360381019061046f91906144fa565b610ded565b6040516104819190614550565b60405180910390f35b6104a4600480360381019061049f9190614593565b610e18565b005b6104c060048036038101906104bb91906143b4565b61123e565b6040516104cd91906144b7565b60405180910390f35b6104de61125b565b6040516104eb9190614619565b60405180910390f35b6104fc61127f565b60405161050991906144b7565b60405180910390f35b61051a611291565b60405161052791906142a9565b60405180910390f35b61054a60048036038101906105459190614632565b611297565b005b61056660048036038101906105619190614632565b611487565b005b610582600480360381019061057d91906143b4565b611505565b60405161058f91906142a9565b60405180910390f35b6105a061154b565b005b6105bc60048036038101906105b79190614632565b6116bd565b005b6105c661177f565b6040516105d39190614332565b60405180910390f35b6105e461180b565b005b61060060048036038101906105fb91906143b4565b61181d565b60405161060d9190614714565b60405180910390f35b61061e6118b0565b60405161062b91906142a9565b60405180910390f35b61064e60048036038101906106499190614593565b6118b5565b005b6106586119df565b005b6106626119f2565b60405161066f91906144b7565b60405180910390f35b610692600480360381019061068d9190614789565b611a07565b005b61069c611b01565b6040516106a991906142a9565b60405180910390f35b6106cc60048036038101906106c791906144fa565b611b07565b6040516106dd959493929190614868565b60405180910390f35b61070060048036038101906106fb9190614632565b611c11565b005b61070a611f82565b60405161071791906142a9565b60405180910390f35b61073a600480360381019061073591906148c0565b611f88565b005b610756600480360381019061075191906143b4565b612226565b60405161076391906142a9565b60405180910390f35b61077461223b565b60405161078191906142a9565b60405180910390f35b610792612241565b005b61079c612254565b6040516107ad959493929190614977565b60405180910390f35b6107d060048036038101906107cb9190614593565b612285565b6040516107e2969594939291906149c8565b60405180910390f35b610805600480360381019061080091906143b4565b61230a565b60405161081291906142a9565b60405180910390f35b61082361231f565b6040516108309190614619565b60405180910390f35b610841612343565b005b61084b612355565b005b61086760048036038101906108629190614593565b612456565b60405161087491906144b7565b60405180910390f35b610897600480360381019061089291906143b4565b612473565b6040516108a49190614bd9565b60405180910390f35b6108c760048036038101906108c29190614bf9565b61264f565b005b6108d1612aac565b6040516108de9190614c8f565b60405180910390f35b6108ef612ad3565b6040516108fc91906142a9565b60405180910390f35b61091f600480360381019061091a91906144fa565b612ad9565b005b61093b60048036038101906109369190614593565b612b10565b60405161094f989796959493929190614ca8565b60405180910390f35b610972600480360381019061096d9190614632565b612c32565b005b61098e600480360381019061098991906143b4565b612ede565b60405161099b91906142a9565b60405180910390f35b6109be60048036038101906109b991906143b4565b612f86565b6040516109cb91906142a9565b60405180910390f35b6109dc612f9b565b6040516109e99190614c8f565b60405180910390f35b610a0c6004803603810190610a079190614d55565b612fc0565b005b610a286004803603810190610a239190614632565b61301b565b005b610a446004803603810190610a3f91906143b4565b613232565b604051610a5191906142a9565b60405180910390f35b610a746004803603810190610a6f91906143b4565b613247565b604051610a8191906142a9565b60405180910390f35b610a9261325c565b604051610aa496959493929190614d80565b60405180910390f35b610ab5613398565b604051610ac291906144b7565b60405180910390f35b610ae56004803603810190610ae091906143b4565b6133ab565b604051610af796959493929190614ded565b60405180910390f35b610b1a6004803603810190610b1591906143b4565b6133ef565b604051610b2791906142a9565b60405180910390f35b610b4a6004803603810190610b459190614632565b613435565b005b610b5461372d565b604051610b619190614550565b60405180910390f35b610b72613733565b604051610b7f91906142a9565b60405180910390f35b610b90613739565b005b610bac6004803603810190610ba791906143b4565b61387a565b005b610bb66138fe565b604051610bc39190614619565b60405180910390f35b610be66004803603810190610be191906143b4565b613922565b604051610bf7959493929190614e4c565b60405180910390f35b610c1a6004803603810190610c1591906143b4565b61399f565b604051610c2791906142a9565b60405180910390f35b60045481565b60078054610c4390614eca565b80601f0160208091040260200160405190810160405280929190818152602001828054610c6f90614eca565b8015610cba5780601f10610c9157610100808354040283529160200191610cba565b820191905f5260205f20905b815481529060010190602001808311610c9d57829003601f168201915b505050505081565b610cca6139e5565b5f73ffffffffffffffffffffffffffffffffffffffff168173ffffffffffffffffffffffffffffffffffffffff1603610d2f576040517fd92e233d00000000000000000000000000000000000000000000000000000000815260040160405180910390fd5b8060095f6101000a81548173ffffffffffffffffffffffffffffffffffffffff021916908373ffffffffffffffffffffffffffffffffffffffff1602179055506001600960146101000a81548160ff02191690831515021790555050565b5f633b9aca00600b5f8673ffffffffffffffffffffffffffffffffffffffff1673ffffffffffffffffffffffffffffffffffffffff1681526020019081526020015f205f01541115610de25760019050610de6565b5f90505b9392505050565b600e602052815f5260405f208181548110610e06575f80fd5b905f5260205f20015f91509150505481565b610e20613a6c565b5f60159054906101000a900460ff16610e65576040517f486fcee200000000000000000000000000000000000000000000000000000000815260040160405180910390fd5b5f600d5f8381526020019081526020015f209050806004015f9054906101000a900460ff16610ec0576040517fcf897cfb00000000000000000000000000000000000000000000000000000000815260040160405180910390fd5b8060030154421015610efd576040517ea71fbb00000000000000000000000000000000000000000000000000000000815260040160405180910390fd5b5f7f000000000000000000000000000000000000000000000000000000000000000073ffffffffffffffffffffffffffffffffffffffff166370a08231306040518263ffffffff1660e01b8152600401610f579190614c8f565b602060405180830381865afa158015610f72573d5f5f3e3d5ffd5b505050506040513d601f19601f82011682018060405250810190610f969190614f0e565b9050816001015481101561108557610fac613a8e565b7f000000000000000000000000000000000000000000000000000000000000000073ffffffffffffffffffffffffffffffffffffffff166370a08231306040518263ffffffff1660e01b81526004016110059190614c8f565b602060405180830381865afa158015611020573d5f5f3e3d5ffd5b505050506040513d601f19601f820116820180604052508101906110449190614f0e565b90508160010154811015611084576040517ff4d678b800000000000000000000000000000000000000000000000000000000815260040160405180910390fd5b5b6110f6825f015f9054906101000a900473ffffffffffffffffffffffffffffffffffffffff1683600101547f000000000000000000000000000000000000000000000000000000000000000073ffffffffffffffffffffffffffffffffffffffff16613a909092919063ffffffff16565b60018260040160016101000a81548160ff0219169083151502179055508160020154426111239190614f66565b826003018190555060045f81548092919061113d90614f99565b919050555060025f81548092919061115490614f99565b91905055508160040160029054906101000a900473ffffffffffffffffffffffffffffffffffffffff1673ffffffffffffffffffffffffffffffffffffffff16837f7763e65e4730dc3bd160c6b49f1eccb463828c997ef23c2e18edfbce92081f3d84600101546040516111c891906142a9565b60405180910390a36112318260040160029054906101000a900473ffffffffffffffffffffffffffffffffffffffff16620f4240846001015461120b919061500d565b60405160200161121b91906150fb565b6040516020818303038152906040526003613ae3565b505061123b613c68565b50565b600c602052805f5260405f205f915054906101000a900460ff1681565b7f000000000000000000000000000000000000000000000000000000000000000081565b5f60159054906101000a900460ff1681565b60025481565b61129f613a6c565b5f600b5f3373ffffffffffffffffffffffffffffffffffffffff1673ffffffffffffffffffffffffffffffffffffffff1681526020019081526020015f206005015490508082111561131d576040517ff4d678b800000000000000000000000000000000000000000000000000000000815260040160405180910390fd5b5f64496cebb800600b5f3373ffffffffffffffffffffffffffffffffffffffff1673ffffffffffffffffffffffffffffffffffffffff1681526020019081526020015f206003015442611370919061512b565b600a548561137e919061515e565b611388919061515e565b611392919061500d565b905082600b5f3373ffffffffffffffffffffffffffffffffffffffff1673ffffffffffffffffffffffffffffffffffffffff1681526020019081526020015f206005015f8282546113e3919061512b565b9250508190555061146360095f9054906101000a900473ffffffffffffffffffffffffffffffffffffffff1633838661141c9190614f66565b7f000000000000000000000000000000000000000000000000000000000000000073ffffffffffffffffffffffffffffffffffffffff16613c82909392919063ffffffff16565b60025f81548092919061147590614f99565b91905055505050611484613c68565b50565b5f81036114c0576040517f2c5211c600000000000000000000000000000000000000000000000000000000815260040160405180910390fd5b8060145f3373ffffffffffffffffffffffffffffffffffffffff1673ffffffffffffffffffffffffffffffffffffffff1681526020019081526020015f208190555050565b5f60125f8373ffffffffffffffffffffffffffffffffffffffff1673ffffffffffffffffffffffffffffffffffffffff1681526020019081526020015f20549050919050565b611553613a6c565b33600b5f8273ffffffffffffffffffffffffffffffffffffffff1673ffffffffffffffffffffffffffffffffffffffff1681526020019081526020015f206004015f9054906101000a900460ff166115d7576040517f2163950f00000000000000000000000000000000000000000000000000000000815260040160405180910390fd5b5f60165f3373ffffffffffffffffffffffffffffffffffffffff1673ffffffffffffffffffffffffffffffffffffffff1681526020019081526020015f205490505f8111156116b1575f60165f3373ffffffffffffffffffffffffffffffffffffffff1673ffffffffffffffffffffffffffffffffffffffff1681526020019081526020015f20819055503373ffffffffffffffffffffffffffffffffffffffff167ffc30cddea38e2bf4d6ea7d3f9ed3b6ad7f176419f4963bd81318067a4aee73fe826040516116a891906142a9565b60405180910390a25b50506116bb613c68565b565b8060105f3373ffffffffffffffffffffffffffffffffffffffff1673ffffffffffffffffffffffffffffffffffffffff1681526020019081526020015f2080549050111561177c57600160105f3373ffffffffffffffffffffffffffffffffffffffff1673ffffffffffffffffffffffffffffffffffffffff1681526020019081526020015f2082815481106117565761175561519f565b5b905f5260205f2090600402016003015f6101000a81548160ff0219169083151502179055505b50565b6006805461178c90614eca565b80601f01602080910402602001604051908101604052809291908181526020018280546117b890614eca565b80156118035780601f106117da57610100808354040283529160200191611803565b820191905f5260205f20905b8154815290600101906020018083116117e657829003601f168201915b505050505081565b6118136139e5565b61181b613cd7565b565b6060600e5f8373ffffffffffffffffffffffffffffffffffffffff1673ffffffffffffffffffffffffffffffffffffffff1681526020019081526020015f208054806020026020016040519081016040528092919081815260200182805480156118a457602002820191905f5260205f20905b815481526020019060010190808311611890575b50505050509050919050565b600a81565b5f600d5f8381526020019081526020015f2090503373ffffffffffffffffffffffffffffffffffffffff168160040160029054906101000a900473ffffffffffffffffffffffffffffffffffffffff1673ffffffffffffffffffffffffffffffffffffffff161415801561195c57503373ffffffffffffffffffffffffffffffffffffffff16611943612aac565b73ffffffffffffffffffffffffffffffffffffffff1614155b15611993576040517fea8e4eb500000000000000000000000000000000000000000000000000000000815260040160405180910390fd5b5f816004015f6101000a81548160ff021916908315150217905550817fa3a26a370d57172f55085c7e74b9e7b54617c9ce09de88a23fb81cce8a831f5e60405160405180910390a25050565b6119e7613d38565b6119f033613d79565b565b5f5f60149054906101000a900460ff16905090565b611a0f612aac565b73ffffffffffffffffffffffffffffffffffffffff163373ffffffffffffffffffffffffffffffffffffffff1614158015611a7657503073ffffffffffffffffffffffffffffffffffffffff163373ffffffffffffffffffffffffffffffffffffffff1614155b15611aad576040517fea8e4eb500000000000000000000000000000000000000000000000000000000815260040160405180910390fd5b611afc8383838080601f0160208091040260200160405190810160405280939291908181526020018383808284375f81840152601f19601f820116905080830192505050505050506007613ae3565b505050565b60085481565b6010602052815f5260405f208181548110611b20575f80fd5b905f5260205f2090600402015f9150915050805f015f9054906101000a900473ffffffffffffffffffffffffffffffffffffffff1690806001018054611b6590614eca565b80601f0160208091040260200160405190810160405280929190818152602001828054611b9190614eca565b8015611bdc5780601f10611bb357610100808354040283529160200191611bdc565b820191905f5260205f20905b815481529060010190602001808311611bbf57829003601f168201915b505050505090806002015490806003015f9054906101000a900460ff16908060030160019054906101000a900460ff16905085565b611c19613a6c565b611c21613d38565b5f8103611c5a576040517f2c5211c600000000000000000000000000000000000000000000000000000000815260040160405180910390fd5b611c6333613d79565b5f60145f3373ffffffffffffffffffffffffffffffffffffffff1673ffffffffffffffffffffffffffffffffffffffff1681526020019081526020015f205490505f8103611cb057606490505b5f8183611cbd91906151cc565b82611cc8919061512b565b90505f8184611cd79190614f66565b9050611d263330837f000000000000000000000000000000000000000000000000000000000000000073ffffffffffffffffffffffffffffffffffffffff16613c82909392919063ffffffff16565b80600b5f3373ffffffffffffffffffffffffffffffffffffffff1673ffffffffffffffffffffffffffffffffffffffff1681526020019081526020015f205f015f828254611d749190614f66565b9250508190555083600b5f3373ffffffffffffffffffffffffffffffffffffffff1673ffffffffffffffffffffffffffffffffffffffff1681526020019081526020015f206002015f828254611dca9190614f66565b925050819055508160155f3373ffffffffffffffffffffffffffffffffffffffff1673ffffffffffffffffffffffffffffffffffffffff1681526020019081526020015f205f828254611e1d9190614f66565b9250508190555042600b5f3373ffffffffffffffffffffffffffffffffffffffff1673ffffffffffffffffffffffffffffffffffffffff1681526020019081526020015f20600301819055508060035f828254611e7a9190614f66565b925050819055508160155f3373ffffffffffffffffffffffffffffffffffffffff1673ffffffffffffffffffffffffffffffffffffffff1681526020019081526020015f205f828254611ecd9190614f66565b9250508190555060025f815480929190611ee690614f99565b91905055503373ffffffffffffffffffffffffffffffffffffffff167f1a96ef469e332471886959f90a71ae924792a05ad7eea4e43a1c29becdf238ed8284604051611f339291906151fc565b60405180910390a2611f7433620f424084611f4e919061500d565b604051602001611f5e91906152b7565b6040516020818303038152906040526005613ae3565b505050611f7f613c68565b50565b600a5481565b611f90613a6c565b5f878787878746604051602001611fac96959493929190615331565b60405160208183030381529060405280519060200120905060135f8281526020019081526020015f205f9054906101000a900460ff1615612019576040517f92f0f74300000000000000000000000000000000000000000000000000000000815260040160405180910390fd5b60125f3373ffffffffffffffffffffffffffffffffffffffff1673ffffffffffffffffffffffffffffffffffffffff1681526020019081526020015f2054841461208f576040517f2c5211c600000000000000000000000000000000000000000000000000000000815260040160405180910390fd5b604183839050146120d5576040517f08c379a00000000000000000000000000000000000000000000000000000000081526004016120cc906153d5565b60405180910390fd5b600160135f8381526020019081526020015f205f6101000a81548160ff02191690831515021790555060125f3373ffffffffffffffffffffffffffffffffffffffff1673ffffffffffffffffffffffffffffffffffffffff1681526020019081526020015f205f81548092919061214b90614f99565b91905055505f8873ffffffffffffffffffffffffffffffffffffffff16888888604051612179929190615421565b5f6040518083038185875af1925050503d805f81146121b3576040519150601f19603f3d011682016040523d82523d5f602084013e6121b8565b606091505b50509050806121fc576040517f08c379a00000000000000000000000000000000000000000000000000000000081526004016121f390615483565b60405180910390fd5b60025f81548092919061220e90614f99565b9190505550505061221d613c68565b50505050505050565b6012602052805f5260405f205f915090505481565b60115481565b6122496139e5565b6122525f613f6a565b565b5f5f5f5f5f6003546004546002545f60159054906101000a900460ff16600854945094509450945094509091929394565b5f5f5f5f5f5f5f600d5f8981526020019081526020015f209050805f015f9054906101000a900473ffffffffffffffffffffffffffffffffffffffff16816001015482600201548360030154846004015f9054906101000a900460ff168560040160019054906101000a900460ff169650965096509650965096505091939550919395565b6016602052805f5260405f205f915090505481565b7f000000000000000000000000000000000000000000000000000000000000000081565b61234b6139e5565b61235361402b565b565b61235d6139e5565b612365613a6c565b5f7f000000000000000000000000000000000000000000000000000000000000000073ffffffffffffffffffffffffffffffffffffffff166370a08231306040518263ffffffff1660e01b81526004016123bf9190614c8f565b602060405180830381865afa1580156123da573d5f5f3e3d5ffd5b505050506040513d601f19601f820116820180604052508101906123fe9190614f0e565b905061244b33827f000000000000000000000000000000000000000000000000000000000000000073ffffffffffffffffffffffffffffffffffffffff16613a909092919063ffffffff16565b50612454613c68565b565b6013602052805f5260405f205f915054906101000a900460ff1681565b606060105f8373ffffffffffffffffffffffffffffffffffffffff1673ffffffffffffffffffffffffffffffffffffffff1681526020019081526020015f20805480602002602001604051908101604052809291908181526020015f905b82821015612644578382905f5260205f2090600402016040518060a00160405290815f82015f9054906101000a900473ffffffffffffffffffffffffffffffffffffffff1673ffffffffffffffffffffffffffffffffffffffff1673ffffffffffffffffffffffffffffffffffffffff16815260200160018201805461255690614eca565b80601f016020809104026020016040519081016040528092919081815260200182805461258290614eca565b80156125cd5780601f106125a4576101008083540402835291602001916125cd565b820191905f5260205f20905b8154815290600101906020018083116125b057829003601f168201915b5050505050815260200160028201548152602001600382015f9054906101000a900460ff161515151581526020016003820160019054906101000a900460ff16600781111561261f5761261e6147f5565b5b6007811115612631576126306147f5565b5b81525050815260200190600101906124d1565b505050509050919050565b612657613a6c565b33600b5f8273ffffffffffffffffffffffffffffffffffffffff1673ffffffffffffffffffffffffffffffffffffffff1681526020019081526020015f206004015f9054906101000a900460ff166126db576040517f2163950f00000000000000000000000000000000000000000000000000000000815260040160405180910390fd5b5f73ffffffffffffffffffffffffffffffffffffffff168673ffffffffffffffffffffffffffffffffffffffff1603612740576040517fd92e233d00000000000000000000000000000000000000000000000000000000815260040160405180910390fd5b5f8503612779576040517f2c5211c600000000000000000000000000000000000000000000000000000000815260040160405180910390fd5b61278233613d79565b600d5f8881526020019081526020015f206004015f9054906101000a900460ff16156127da576040517f92f0f74300000000000000000000000000000000000000000000000000000000815260040160405180910390fd5b6040518061010001604052808773ffffffffffffffffffffffffffffffffffffffff168152602001868152602001858152602001854261281a9190614f66565b81526020016001151581526020015f151581526020013373ffffffffffffffffffffffffffffffffffffffff16815260200184848080601f0160208091040260200160405190810160405280939291908181526020018383808284375f81840152601f19601f82011690508083019250505050505050815250600d5f8981526020019081526020015f205f820151815f015f6101000a81548173ffffffffffffffffffffffffffffffffffffffff021916908373ffffffffffffffffffffffffffffffffffffffff1602179055506020820151816001015560408201518160020155606082015181600301556080820151816004015f6101000a81548160ff02191690831515021790555060a08201518160040160016101000a81548160ff02191690831515021790555060c08201518160040160026101000a81548173ffffffffffffffffffffffffffffffffffffffff021916908373ffffffffffffffffffffffffffffffffffffffff16021790555060e08201518160050190816129a19190615665565b50905050600e5f3373ffffffffffffffffffffffffffffffffffffffff1673ffffffffffffffffffffffffffffffffffffffff1681526020019081526020015f2087908060018154018082558091505060019003905f5260205f20015f909190919091505560025f815480929190612a1890614f99565b91905055503373ffffffffffffffffffffffffffffffffffffffff16877fd2b003dbe8b14127f0c5c5f822e96979f1d2e42da05e459d97a23a5f35cea6578787604051612a669291906151fc565b60405180910390a3612a9b338484604051602001612a859291906157a2565b6040516020818303038152906040526002613ae3565b50612aa4613c68565b505050505050565b5f5f5f9054906101000a900473ffffffffffffffffffffffffffffffffffffffff16905090565b60035481565b612ae16139e5565b612b0c33828473ffffffffffffffffffffffffffffffffffffffff16613a909092919063ffffffff16565b5050565b600d602052805f5260405f205f91509050805f015f9054906101000a900473ffffffffffffffffffffffffffffffffffffffff1690806001015490806002015490806003015490806004015f9054906101000a900460ff16908060040160019054906101000a900460ff16908060040160029054906101000a900473ffffffffffffffffffffffffffffffffffffffff1690806005018054612bb190614eca565b80601f0160208091040260200160405190810160405280929190818152602001828054612bdd90614eca565b8015612c285780601f10612bff57610100808354040283529160200191612c28565b820191905f5260205f20905b815481529060010190602001808311612c0b57829003601f168201915b5050505050905088565b612c3a613a6c565b612c42613d38565b5f8103612c7b576040517f2c5211c600000000000000000000000000000000000000000000000000000000815260040160405180910390fd5b612c8433613d79565b612cd13330837f000000000000000000000000000000000000000000000000000000000000000073ffffffffffffffffffffffffffffffffffffffff16613c82909392919063ffffffff16565b80600b5f3373ffffffffffffffffffffffffffffffffffffffff1673ffffffffffffffffffffffffffffffffffffffff1681526020019081526020015f205f015f828254612d1f9190614f66565b9250508190555080600b5f3373ffffffffffffffffffffffffffffffffffffffff1673ffffffffffffffffffffffffffffffffffffffff1681526020019081526020015f206002015f828254612d759190614f66565b9250508190555042600b5f3373ffffffffffffffffffffffffffffffffffffffff1673ffffffffffffffffffffffffffffffffffffffff1681526020019081526020015f20600301819055508060035f828254612dd29190614f66565b9250508190555060025f815480929190612deb90614f99565b919050555042600181905550600a60165f3373ffffffffffffffffffffffffffffffffffffffff1673ffffffffffffffffffffffffffffffffffffffff1681526020019081526020015f205f828254612e449190614f66565b925050819055503373ffffffffffffffffffffffffffffffffffffffff167f1a96ef469e332471886959f90a71ae924792a05ad7eea4e43a1c29becdf238ed825f604051612e939291906157fe565b60405180910390a2612ed333620f424083612eae919061500d565b604051602001612ebe91906158b9565b6040516020818303038152906040525f613ae3565b612edb613c68565b50565b5f5f60105f8473ffffffffffffffffffffffffffffffffffffffff1673ffffffffffffffffffffffffffffffffffffffff1681526020019081526020015f2090505f5f90505b8180549050811015612f7f57818181548110612f4357612f4261519f565b5b905f5260205f2090600402016003015f9054906101000a900460ff16612f72578280612f6e90614f99565b9350505b8080600101915050612f24565b5050919050565b600f602052805f5260405f205f915090505481565b60095f9054906101000a900473ffffffffffffffffffffffffffffffffffffffff1681565b612fc86139e5565b805f60156101000a81548160ff0219169083151502179055507f687ce7b139cce234264c502946572c2ca5e8d078fb2fe51029287d78918bd3b98160405161301091906144b7565b60405180910390a150565b613023613a6c565b33600b5f8273ffffffffffffffffffffffffffffffffffffffff1673ffffffffffffffffffffffffffffffffffffffff1681526020019081526020015f206004015f9054906101000a900460ff166130a7576040517f2163950f00000000000000000000000000000000000000000000000000000000815260040160405180910390fd5b600960149054906101000a900460ff16158061310f57505f73ffffffffffffffffffffffffffffffffffffffff1660095f9054906101000a900473ffffffffffffffffffffffffffffffffffffffff1673ffffffffffffffffffffffffffffffffffffffff16145b15613146576040517f486fcee200000000000000000000000000000000000000000000000000000000815260040160405180910390fd5b6131b43360095f9054906101000a900473ffffffffffffffffffffffffffffffffffffffff16847f000000000000000000000000000000000000000000000000000000000000000073ffffffffffffffffffffffffffffffffffffffff16613c82909392919063ffffffff16565b5f82905080600b5f3373ffffffffffffffffffffffffffffffffffffffff1673ffffffffffffffffffffffffffffffffffffffff1681526020019081526020015f206005015f8282546132079190614f66565b9250508190555060025f81548092919061322090614f99565b9190505550505061322f613c68565b50565b6014602052805f5260405f205f915090505481565b6015602052805f5260405f205f915090505481565b5f6060805f5f5f6005546006600760085430601f84805461327c90614eca565b80601f01602080910402602001604051908101604052809291908181526020018280546132a890614eca565b80156132f35780601f106132ca576101008083540402835291602001916132f3565b820191905f5260205f20905b8154815290600101906020018083116132d657829003601f168201915b5050505050945083805461330690614eca565b80601f016020809104026020016040519081016040528092919081815260200182805461333290614eca565b801561337d5780601f106133545761010080835404028352916020019161337d565b820191905f5260205f20905b81548152906001019060200180831161336057829003601f168201915b50505050509350955095509550955095509550909192939495565b600960149054906101000a900460ff1681565b600b602052805f5260405f205f91509050805f015490806001015490806002015490806003015490806004015f9054906101000a900460ff16908060050154905086565b5f60155f8373ffffffffffffffffffffffffffffffffffffffff1673ffffffffffffffffffffffffffffffffffffffff1681526020019081526020015f20549050919050565b61343d613a6c565b33600b5f8273ffffffffffffffffffffffffffffffffffffffff1673ffffffffffffffffffffffffffffffffffffffff1681526020019081526020015f206004015f9054906101000a900460ff166134c1576040517f2163950f00000000000000000000000000000000000000000000000000000000815260040160405180910390fd5b5f82036134fa576040517f2c5211c600000000000000000000000000000000000000000000000000000000815260040160405180910390fd5b600b5f3373ffffffffffffffffffffffffffffffffffffffff1673ffffffffffffffffffffffffffffffffffffffff1681526020019081526020015f2060020154821115613574576040517ff4d678b800000000000000000000000000000000000000000000000000000000815260040160405180910390fd5b81600b5f3373ffffffffffffffffffffffffffffffffffffffff1673ffffffffffffffffffffffffffffffffffffffff1681526020019081526020015f206002015f8282546135c3919061512b565b9250508190555081600b5f3373ffffffffffffffffffffffffffffffffffffffff1673ffffffffffffffffffffffffffffffffffffffff1681526020019081526020015f206001015f8282546136199190614f66565b925050819055508160035f828254613631919061512b565b9250508190555061368333837f000000000000000000000000000000000000000000000000000000000000000073ffffffffffffffffffffffffffffffffffffffff16613a909092919063ffffffff16565b60025f81548092919061369590614f99565b91905055503373ffffffffffffffffffffffffffffffffffffffff167f94b83bc1ebe4ddd04e2faa0e9f2883abf856cea4923e56a6ec7c8c40fb2b02ba836040516136e091906142a9565b60405180910390a261372133620f4240846136fb919061500d565b60405160200161370b9190615933565b6040516020818303038152906040526001613ae3565b5061372a613c68565b50565b60055481565b60015481565b5f60159054906101000a900460ff1661377e576040517f486fcee200000000000000000000000000000000000000000000000000000000815260040160405180910390fd5b5f61378761408d565b90505f5f90505b8151811015613876575f600d5f8484815181106137ae576137ad61519f565b5b602002602001015181526020019081526020015f209050806004015f9054906101000a900460ff1680156137e6575080600301544210155b15613868573073ffffffffffffffffffffffffffffffffffffffff166315ee90d684848151811061381a5761381961519f565b5b60200260200101516040518263ffffffff1660e01b815260040161383e9190614550565b5f604051808303815f87803b158015613855575f5ffd5b505af1925050508015613866575060015b505b50808060010191505061378e565b5050565b6138826139e5565b5f73ffffffffffffffffffffffffffffffffffffffff168173ffffffffffffffffffffffffffffffffffffffff16036138f2575f6040517f1e4fbdf70000000000000000000000000000000000000000000000000000000081526004016138e99190614c8f565b60405180910390fd5b6138fb81613f6a565b50565b7f000000000000000000000000000000000000000000000000000000000000000081565b5f5f5f5f5f5f600b5f8873ffffffffffffffffffffffffffffffffffffffff1673ffffffffffffffffffffffffffffffffffffffff1681526020019081526020015f209050805f0154816001015482600201548360030154846004015f9054906101000a900460ff16955095509550955095505091939590929450565b5f60165f8373ffffffffffffffffffffffffffffffffffffffff1673ffffffffffffffffffffffffffffffffffffffff1681526020019081526020015f20549050919050565b6139ed6140e8565b73ffffffffffffffffffffffffffffffffffffffff16613a0b612aac565b73ffffffffffffffffffffffffffffffffffffffff1614613a6a57613a2e6140e8565b6040517f118cdaa7000000000000000000000000000000000000000000000000000000008152600401613a619190614c8f565b60405180910390fd5b565b613a746140ef565b6002613a86613a81614130565b614159565b5f0181905550565b565b613a9d8383836001614162565b613ade57826040517f5274afe7000000000000000000000000000000000000000000000000000000008152600401613ad59190614c8f565b60405180910390fd5b505050565b60105f8473ffffffffffffffffffffffffffffffffffffffff1673ffffffffffffffffffffffffffffffffffffffff1681526020019081526020015f206040518060a001604052808573ffffffffffffffffffffffffffffffffffffffff1681526020018481526020014281526020015f15158152602001836007811115613b6e57613b6d6147f5565b5b815250908060018154018082558091505060019003905f5260205f2090600402015f909190919091505f820151815f015f6101000a81548173ffffffffffffffffffffffffffffffffffffffff021916908373ffffffffffffffffffffffffffffffffffffffff1602179055506020820151816001019081613bf09190615665565b50604082015181600201556060820151816003015f6101000a81548160ff02191690831515021790555060808201518160030160016101000a81548160ff02191690836007811115613c4557613c446147f5565b5b0217905550505060115f815480929190613c5e90614f99565b9190505550505050565b6001613c7a613c75614130565b614159565b5f0181905550565b613c908484848460016141c4565b613cd157836040517f5274afe7000000000000000000000000000000000000000000000000000000008152600401613cc89190614c8f565b60405180910390fd5b50505050565b613cdf614235565b5f5f60146101000a81548160ff0219169083151502179055507f5db9ee0a495bf2e6ff9c91a7834c1ba4fdd244a5e8aa4e537bd38aeae4b073aa613d216140e8565b604051613d2e9190614c8f565b60405180910390a1565b613d406119f2565b15613d77576040517fd93c066500000000000000000000000000000000000000000000000000000000815260040160405180910390fd5b565b600b5f8273ffffffffffffffffffffffffffffffffffffffff1673ffffffffffffffffffffffffffffffffffffffff1681526020019081526020015f206004015f9054906101000a900460ff16613f67576001600b5f8373ffffffffffffffffffffffffffffffffffffffff1673ffffffffffffffffffffffffffffffffffffffff1681526020019081526020015f206004015f6101000a81548160ff02191690831515021790555042600b5f8373ffffffffffffffffffffffffffffffffffffffff1673ffffffffffffffffffffffffffffffffffffffff1681526020019081526020015f2060030181905550606460145f8373ffffffffffffffffffffffffffffffffffffffff1673ffffffffffffffffffffffffffffffffffffffff1681526020019081526020015f20819055506001600c5f8373ffffffffffffffffffffffffffffffffffffffff1673ffffffffffffffffffffffffffffffffffffffff1681526020019081526020015f205f6101000a81548160ff0219169083151502179055508073ffffffffffffffffffffffffffffffffffffffff167f54db7a5cb4735e1aac1f53db512d3390390bb6637bd30ad4bf9fc98667d9b9b960405160405180910390a2613f66816040518060600160405280603e8152602001615964603e91396006613ae3565b5b50565b5f5f5f9054906101000a900473ffffffffffffffffffffffffffffffffffffffff169050815f5f6101000a81548173ffffffffffffffffffffffffffffffffffffffff021916908373ffffffffffffffffffffffffffffffffffffffff1602179055508173ffffffffffffffffffffffffffffffffffffffff168173ffffffffffffffffffffffffffffffffffffffff167f8be0079c531659141344cd1fd0a4f28419497f9722a3daafe3b4186f6b6457e060405160405180910390a35050565b614033613d38565b60015f60146101000a81548160ff0219169083151502179055507f62e78cea01bee320cd4e420270b5ea74000d11b0c9f74754ebdbfc544b05a2586140766140e8565b6040516140839190614c8f565b60405180910390a1565b60605f600a67ffffffffffffffff8111156140ab576140aa6154a1565b5b6040519080825280602002602001820160405280156140d95781602001602082028036833780820191505090505b5090505f5f9050819250505090565b5f33905090565b6140f7614275565b1561412e576040517f3ee5aeb500000000000000000000000000000000000000000000000000000000815260040160405180910390fd5b565b5f7f9b779b17422d0df92223018b32b4d1fa46e071723d6817e2486d003becc55f005f1b905090565b5f819050919050565b5f5f63a9059cbb60e01b9050604051815f525f1960601c86166004528460245260205f60445f5f8b5af1925060015f511483166141b65783831516156141aa573d5f823e3d81fd5b5f873b113d1516831692505b806040525050949350505050565b5f5f6323b872dd60e01b9050604051815f525f1960601c87166004525f1960601c86166024528460445260205f60645f5f8c5af1925060015f51148316614222578383151615614216573d5f823e3d81fd5b5f883b113d1516831692505b806040525f606052505095945050505050565b61423d6119f2565b614273576040517f8dfc202b00000000000000000000000000000000000000000000000000000000815260040160405180910390fd5b565b5f6002614288614283614130565b614159565b5f015414905090565b5f819050919050565b6142a381614291565b82525050565b5f6020820190506142bc5f83018461429a565b92915050565b5f81519050919050565b5f82825260208201905092915050565b8281835e5f83830152505050565b5f601f19601f8301169050919050565b5f614304826142c2565b61430e81856142cc565b935061431e8185602086016142dc565b614327816142ea565b840191505092915050565b5f6020820190508181035f83015261434a81846142fa565b905092915050565b5f5ffd5b5f5ffd5b5f73ffffffffffffffffffffffffffffffffffffffff82169050919050565b5f6143838261435a565b9050919050565b61439381614379565b811461439d575f5ffd5b50565b5f813590506143ae8161438a565b92915050565b5f602082840312156143c9576143c8614352565b5b5f6143d6848285016143a0565b91505092915050565b5f5ffd5b5f5ffd5b5f5ffd5b5f5f83601f840112614400576143ff6143df565b5b8235905067ffffffffffffffff81111561441d5761441c6143e3565b5b602083019150836001820283011115614439576144386143e7565b5b9250929050565b5f5f5f6040848603121561445757614456614352565b5b5f614464868287016143a0565b935050602084013567ffffffffffffffff81111561448557614484614356565b5b614491868287016143eb565b92509250509250925092565b5f8115159050919050565b6144b18161449d565b82525050565b5f6020820190506144ca5f8301846144a8565b92915050565b6144d981614291565b81146144e3575f5ffd5b50565b5f813590506144f4816144d0565b92915050565b5f5f604083850312156145105761450f614352565b5b5f61451d858286016143a0565b925050602061452e858286016144e6565b9150509250929050565b5f819050919050565b61454a81614538565b82525050565b5f6020820190506145635f830184614541565b92915050565b61457281614538565b811461457c575f5ffd5b50565b5f8135905061458d81614569565b92915050565b5f602082840312156145a8576145a7614352565b5b5f6145b58482850161457f565b91505092915050565b5f819050919050565b5f6145e16145dc6145d78461435a565b6145be565b61435a565b9050919050565b5f6145f2826145c7565b9050919050565b5f614603826145e8565b9050919050565b614613816145f9565b82525050565b5f60208201905061462c5f83018461460a565b92915050565b5f6020828403121561464757614646614352565b5b5f614654848285016144e6565b91505092915050565b5f81519050919050565b5f82825260208201905092915050565b5f819050602082019050919050565b61468f81614538565b82525050565b5f6146a08383614686565b60208301905092915050565b5f602082019050919050565b5f6146c28261465d565b6146cc8185614667565b93506146d783614677565b805f5b838110156147075781516146ee8882614695565b97506146f9836146ac565b9250506001810190506146da565b5085935050505092915050565b5f6020820190508181035f83015261472c81846146b8565b905092915050565b5f5f83601f840112614749576147486143df565b5b8235905067ffffffffffffffff811115614766576147656143e3565b5b602083019150836001820283011115614782576147816143e7565b5b9250929050565b5f5f5f604084860312156147a05761479f614352565b5b5f6147ad868287016143a0565b935050602084013567ffffffffffffffff8111156147ce576147cd614356565b5b6147da86828701614734565b92509250509250925092565b6147ef81614379565b82525050565b7f4e487b71000000000000000000000000000000000000000000000000000000005f52602160045260245ffd5b60088110614833576148326147f5565b5b50565b5f81905061484382614822565b919050565b5f61485282614836565b9050919050565b61486281614848565b82525050565b5f60a08201905061487b5f8301886147e6565b818103602083015261488d81876142fa565b905061489c604083018661429a565b6148a960608301856144a8565b6148b66080830184614859565b9695505050505050565b5f5f5f5f5f5f5f60a0888a0312156148db576148da614352565b5b5f6148e88a828b016143a0565b97505060206148f98a828b016144e6565b965050604088013567ffffffffffffffff81111561491a57614919614356565b5b6149268a828b016143eb565b955095505060606149398a828b016144e6565b935050608088013567ffffffffffffffff81111561495a57614959614356565b5b6149668a828b016143eb565b925092505092959891949750929550565b5f60a08201905061498a5f83018861429a565b614997602083018761429a565b6149a4604083018661429a565b6149b160608301856144a8565b6149be608083018461429a565b9695505050505050565b5f60c0820190506149db5f8301896147e6565b6149e8602083018861429a565b6149f5604083018761429a565b614a02606083018661429a565b614a0f60808301856144a8565b614a1c60a08301846144a8565b979650505050505050565b5f81519050919050565b5f82825260208201905092915050565b5f819050602082019050919050565b614a5981614379565b82525050565b5f82825260208201905092915050565b5f614a79826142c2565b614a838185614a5f565b9350614a938185602086016142dc565b614a9c816142ea565b840191505092915050565b614ab081614291565b82525050565b614abf8161449d565b82525050565b614ace81614848565b82525050565b5f60a083015f830151614ae95f860182614a50565b5060208301518482036020860152614b018282614a6f565b9150506040830151614b166040860182614aa7565b506060830151614b296060860182614ab6565b506080830151614b3c6080860182614ac5565b508091505092915050565b5f614b528383614ad4565b905092915050565b5f602082019050919050565b5f614b7082614a27565b614b7a8185614a31565b935083602082028501614b8c85614a41565b805f5b85811015614bc75784840389528151614ba88582614b47565b9450614bb383614b5a565b925060208a01995050600181019050614b8f565b50829750879550505050505092915050565b5f6020820190508181035f830152614bf18184614b66565b905092915050565b5f5f5f5f5f5f60a08789031215614c1357614c12614352565b5b5f614c2089828a0161457f565b9650506020614c3189828a016143a0565b9550506040614c4289828a016144e6565b9450506060614c5389828a016144e6565b935050608087013567ffffffffffffffff811115614c7457614c73614356565b5b614c8089828a01614734565b92509250509295509295509295565b5f602082019050614ca25f8301846147e6565b92915050565b5f61010082019050614cbc5f83018b6147e6565b614cc9602083018a61429a565b614cd6604083018961429a565b614ce3606083018861429a565b614cf060808301876144a8565b614cfd60a08301866144a8565b614d0a60c08301856147e6565b81810360e0830152614d1c81846142fa565b90509998505050505050505050565b614d348161449d565b8114614d3e575f5ffd5b50565b5f81359050614d4f81614d2b565b92915050565b5f60208284031215614d6a57614d69614352565b5b5f614d7784828501614d41565b91505092915050565b5f60c082019050614d935f830189614541565b8181036020830152614da581886142fa565b90508181036040830152614db981876142fa565b9050614dc8606083018661429a565b614dd560808301856147e6565b614de260a083018461429a565b979650505050505050565b5f60c082019050614e005f83018961429a565b614e0d602083018861429a565b614e1a604083018761429a565b614e27606083018661429a565b614e3460808301856144a8565b614e4160a083018461429a565b979650505050505050565b5f60a082019050614e5f5f83018861429a565b614e6c602083018761429a565b614e79604083018661429a565b614e86606083018561429a565b614e9360808301846144a8565b9695505050505050565b7f4e487b71000000000000000000000000000000000000000000000000000000005f52602260045260245ffd5b5f6002820490506001821680614ee157607f821691505b602082108103614ef457614ef3614e9d565b5b50919050565b5f81519050614f08816144d0565b92915050565b5f60208284031215614f2357614f22614352565b5b5f614f3084828501614efa565b91505092915050565b7f4e487b71000000000000000000000000000000000000000000000000000000005f52601160045260245ffd5b5f614f7082614291565b9150614f7b83614291565b9250828201905080821115614f9357614f92614f39565b5b92915050565b5f614fa382614291565b91507fffffffffffffffffffffffffffffffffffffffffffffffffffffffffffffffff8203614fd557614fd4614f39565b5b600182019050919050565b7f4e487b71000000000000000000000000000000000000000000000000000000005f52601260045260245ffd5b5f61501782614291565b915061502283614291565b92508261503257615031614fe0565b5b828204905092915050565b5f81905092915050565b7f42696c6c20706169643a200000000000000000000000000000000000000000005f82015250565b5f61507b600b8361503d565b915061508682615047565b600b82019050919050565b5f819050919050565b6150ab6150a682614291565b615091565b82525050565b7f20635553442073656e74000000000000000000000000000000000000000000005f82015250565b5f6150e5600a8361503d565b91506150f0826150b1565b600a82019050919050565b5f6151058261506f565b9150615111828461509a565b602082019150615120826150d9565b915081905092915050565b5f61513582614291565b915061514083614291565b925082820390508181111561515857615157614f39565b5b92915050565b5f61516882614291565b915061517383614291565b925082820261518181614291565b9150828204841483151761519857615197614f39565b5b5092915050565b7f4e487b71000000000000000000000000000000000000000000000000000000005f52603260045260245ffd5b5f6151d682614291565b91506151e183614291565b9250826151f1576151f0614fe0565b5b828206905092915050565b5f60408201905061520f5f83018561429a565b61521c602083018461429a565b9392505050565b7f526f756e642d75703a20736176656420000000000000000000000000000000005f82015250565b5f61525760108361503d565b915061526282615223565b601082019050919050565b7f20635553442065787472610000000000000000000000000000000000000000005f82015250565b5f6152a1600b8361503d565b91506152ac8261526d565b600b82019050919050565b5f6152c18261524b565b91506152cd828461509a565b6020820191506152dc82615295565b915081905092915050565b5f82825260208201905092915050565b828183375f83830152505050565b5f61531083856152e7565b935061531d8385846152f7565b615326836142ea565b840190509392505050565b5f60a0820190506153445f8301896147e6565b615351602083018861429a565b8181036040830152615364818688615305565b9050615373606083018561429a565b615380608083018461429a565b979650505050505050565b7f496e76616c6964207369676e61747572650000000000000000000000000000005f82015250565b5f6153bf6011836142cc565b91506153ca8261538b565b602082019050919050565b5f6020820190508181035f8301526153ec816153b3565b9050919050565b5f81905092915050565b5f61540883856153f3565b93506154158385846152f7565b82840190509392505050565b5f61542d8284866153fd565b91508190509392505050565b7f5472616e73616374696f6e206661696c656400000000000000000000000000005f82015250565b5f61546d6012836142cc565b915061547882615439565b602082019050919050565b5f6020820190508181035f83015261549a81615461565b9050919050565b7f4e487b71000000000000000000000000000000000000000000000000000000005f52604160045260245ffd5b5f819050815f5260205f209050919050565b5f6020601f8301049050919050565b5f82821b905092915050565b5f6008830261552a7fffffffffffffffffffffffffffffffffffffffffffffffffffffffffffffffff826154ef565b61553486836154ef565b95508019841693508086168417925050509392505050565b5f61556661556161555c84614291565b6145be565b614291565b9050919050565b5f819050919050565b61557f8361554c565b61559361558b8261556d565b8484546154fb565b825550505050565b5f5f905090565b6155aa61559b565b6155b5818484615576565b505050565b5b818110156155d8576155cd5f826155a2565b6001810190506155bb565b5050565b601f82111561561d576155ee816154ce565b6155f7846154e0565b81016020851015615606578190505b61561a615612856154e0565b8301826155ba565b50505b505050565b5f82821c905092915050565b5f61563d5f1984600802615622565b1980831691505092915050565b5f615655838361562e565b9150826002028217905092915050565b61566e826142c2565b67ffffffffffffffff811115615687576156866154a1565b5b6156918254614eca565b61569c8282856155dc565b5f60209050601f8311600181146156cd575f84156156bb578287015190505b6156c5858261564a565b86555061572c565b601f1984166156db866154ce565b5f5b82811015615702578489015182556001820191506020850194506020810190506156dd565b8683101561571f578489015161571b601f89168261562e565b8355505b6001600288020188555050505b505050505050565b7f42696c6c20637265617465643a200000000000000000000000000000000000005f82015250565b5f615768600e8361503d565b915061577382615734565b600e82019050919050565b5f615789838561503d565b93506157968385846152f7565b82840190509392505050565b5f6157ac8261575c565b91506157b982848661577e565b91508190509392505050565b5f819050919050565b5f6157e86157e36157de846157c5565b6145be565b614291565b9050919050565b6157f8816157ce565b82525050565b5f6040820190506158115f83018561429a565b61581e60208301846157ef565b9392505050565b7f4465706f736974656420000000000000000000000000000000000000000000005f82015250565b5f615859600a8361503d565b915061586482615825565b600a82019050919050565b7f20635553440000000000000000000000000000000000000000000000000000005f82015250565b5f6158a360058361503d565b91506158ae8261586f565b600582019050919050565b5f6158c38261584d565b91506158cf828461509a565b6020820191506158de82615897565b915081905092915050565b7f57697468647265772000000000000000000000000000000000000000000000005f82015250565b5f61591d60098361503d565b9150615928826158e9565b600982019050919050565b5f61593d82615911565b9150615949828461509a565b60208201915061595882615897565b91508190509291505056fe57656c636f6d6520746f204175746f506f636b65742120596f7572206175746f6e6f6d6f757320736176696e6773206167656e742069732072656164792ea2646970667358221220e20f2476871daa35cbcc16537d8baccee2efc4c1f63cb814bbd11d8bc9672a6464736f6c634300081e0033","linkReferences":{}},"methodIdentifiers":{"CELO()":"f60e673e","POINTS_PER_DEPOSIT()":"41d7b1d3","actionCount()":"29da5738","agentId()":"e84f43b7","agentName()":"3c19804e","agentVersion()":"10c59c72","authorizedUsers(address)":"1828983a","autoExecuteDueBills()":"f1f1e222","bills(bytes32)":"a4497182","cEUR()":"7d1f2de7","cUSD()":"1fccf672","cancelBill(bytes32)":"4315f458","claimRewards()":"372500ab","createBill(bytes32,address,uint256,uint256,string)":"8da1eccf","depositSavings(uint256)":"a453b6cf","depositToYield(uint256)":"ae5f402e","depositWithRoundUp(uint256)":"66737641","executeBill(bytes32)":"15ee90d6","executeTransaction(address,uint256,bytes,uint256,bytes)":"6c49ad80","executedTransactions(bytes32)":"8691d34c","getAgentIdentity()":"b5a6a3d1","getAgentStats()":"77a5e9f2","getBillDetails(bytes32)":"787930c2","getNonce(address)":"2d0335ab","getNotifications(address)":"8a8f63b0","getRewardPoints(address)":"fd67508d","getUnreadCount(address)":"a662fac9","getUserBillIds(address)":"404a43c4","getUserRoundUpBalance(address)":"cf2bb947","getUserSavings(address)":"f80a2057","isActive()":"22f3e2d4","lastActionTimestamp()":"eac697c9","lastBillExecution(address)":"a6e5b6d2","markNotificationRead(uint256)":"39038031","nonce(address)":"70ae92d2","notificationCount()":"71342f0c","notifications(address,uint256)":"65d0bddd","notifyUser(address,string)":"6057710f","owner()":"8da5cb5b","pause()":"8456cb59","paused()":"5c975abb","registerUser()":"4d3820eb","renounceOwnership()":"715018a6","reputationScore()":"60a7fc1f","rewardPoints(address)":"7bd95a85","roundUpSettings(address)":"b3e59d41","setActive(bool)":"acec338a","setRoundUpThreshold(uint256)":"2badf056","setYieldVault(address)":"137c3f69","totalBillsPaid()":"0dc7fff9","totalRoundUps(address)":"b5762e40","totalSavings()":"9bf42b3f","transferOwnership(address)":"f2fde38b","unpause()":"3f4ba83a","userBillIds(address,uint256)":"1518c958","userData(address)":"c8910913","verifyCeloIdentity(address,bytes)":"145f759c","withdrawAll()":"853828b6","withdrawFromYield(uint256)":"2a6d9ddd","withdrawSavings(uint256)":"de986450","withdrawToken(address,uint256)":"9e281a98","yieldEnabled()":"c2752e43","yieldRate()":"6999ac93","yieldVault()":"a7f8a5e2"},"id":0}