{
  "_format": "hh-sol-artifact-1",
  "contractName": "AutoPocketAgentV2",
  "sourceName": "contracts/AutoPocketAgentV2.sol",
  "abi": [
    {
      "inputs": [],
      "stateMutability": "nonpayable",
      "type": "constructor"
    },
    {
      "inputs": [],
      "name": "AgentNotActive",
      "type": "error"
    },
    {
      "inputs": [],
      "name": "AlreadyRegistered",
      "type": "error"
    },
    {
      "inputs": [],
      "name": "BillAlreadyExists",
      "type": "error"
    },
    {
      "inputs": [],
      "name": "BillNotFound",
      "type": "error"
    },
    {
      "inputs": [],
      "name": "EnforcedPause",
      "type": "error"
    },
    {
      "inputs": [],
      "name": "ExpectedPause",
      "type": "error"
    },
    {
      "inputs": [],
      "name": "InsufficientBalance",
      "type": "error"
    },
    {
      "inputs": [],
      "name": "InvalidAmount",
      "type": "error"
    },
    {
      "inputs": [],
      "name": "InvalidRecipient",
      "type": "error"
    },
    {
      "inputs": [],
      "name": "NotAuthorized",
      "type": "error"
    },
    {
      "inputs": [
        {
          "internalType": "address",
          "name": "owner",
          "type": "address"
        }
      ],
      "name": "OwnableInvalidOwner",
      "type": "error"
    },
    {
      "inputs": [
        {
          "internalType": "address",
          "name": "account",
          "type": "address"
        }
      ],
      "name": "OwnableUnauthorizedAccount",
      "type": "error"
    },
    {
      "inputs": [],
      "name": "PaymentNotDue",
      "type": "error"
    },
    {
      "inputs": [],
      "name": "ReentrancyGuardReentrantCall",
      "type": "error"
    },
    {
      "inputs": [
        {
          "internalType": "address",
          "name": "token",
          "type": "address"
        }
      ],
      "name": "SafeERC20FailedOperation",
      "type": "error"
    },
    {
      "inputs": [],
      "name": "UserNotRegistered",
      "type": "error"
    },
    {
      "inputs": [],
      "name": "YieldTransferFailed",
      "type": "error"
    },
    {
      "inputs": [],
      "name": "ZeroAddress",
      "type": "error"
    },
    {
      "anonymous": false,
      "inputs": [
        {
          "indexed": false,
          "internalType": "bool",
          "name": "active",
          "type": "bool"
        }
      ],
      "name": "AgentActivated",
      "type": "event"
    },
    {
      "anonymous": false,
      "inputs": [
        {
          "indexed": true,
          "internalType": "bytes32",
          "name": "agentId",
          "type": "bytes32"
        },
        {
          "indexed": false,
          "internalType": "string",
          "name": "name",
          "type": "string"
        },
        {
          "indexed": false,
          "internalType": "string",
          "name": "version",
          "type": "string"
        }
      ],
      "name": "AgentInitialized",
      "type": "event"
    },
    {
      "anonymous": false,
      "inputs": [
        {
          "indexed": true,
          "internalType": "bytes32",
          "name": "billId",
          "type": "bytes32"
        }
      ],
      "name": "BillCancelled",
      "type": "event"
    },
    {
      "anonymous": false,
      "inputs": [
        {
          "indexed": true,
          "internalType": "bytes32",
          "name": "billId",
          "type": "bytes32"
        },
        {
          "indexed": true,
          "internalType": "address",
          "name": "user",
          "type": "address"
        },
        {
          "indexed": false,
          "internalType": "uint256",
          "name": "amount",
          "type": "uint256"
        },
        {
          "indexed": false,
          "internalType": "uint256",
          "name": "frequency",
          "type": "uint256"
        }
      ],
      "name": "BillCreated",
      "type": "event"
    },
    {
      "anonymous": false,
      "inputs": [
        {
          "indexed": true,
          "internalType": "bytes32",
          "name": "billId",
          "type": "bytes32"
        },
        {
          "indexed": true,
          "internalType": "address",
          "name": "user",
          "type": "address"
        },
        {
          "indexed": false,
          "internalType": "uint256",
          "name": "amount",
          "type": "uint256"
        }
      ],
      "name": "BillExecuted",
      "type": "event"
    },
    {
      "anonymous": false,
      "inputs": [
        {
          "indexed": true,
          "internalType": "address",
          "name": "from",
          "type": "address"
        },
        {
          "indexed": false,
          "internalType": "uint256",
          "name": "amount",
          "type": "uint256"
        }
      ],
      "name": "FundsReceived",
      "type": "event"
    },
    {
      "anonymous": false,
      "inputs": [
        {
          "indexed": true,
          "internalType": "address",
          "name": "user",
          "type": "address"
        },
        {
          "indexed": false,
          "internalType": "string",
          "name": "message",
          "type": "string"
        },
        {
          "indexed": false,
          "internalType": "uint256",
          "name": "timestamp",
          "type": "uint256"
        }
      ],
      "name": "NotificationSent",
      "type": "event"
    },
    {
      "anonymous": false,
      "inputs": [
        {
          "indexed": true,
          "internalType": "address",
          "name": "previousOwner",
          "type": "address"
        },
        {
          "indexed": true,
          "internalType": "address",
          "name": "newOwner",
          "type": "address"
        }
      ],
      "name": "OwnershipTransferred",
      "type": "event"
    },
    {
      "anonymous": false,
      "inputs": [
        {
          "indexed": false,
          "internalType": "address",
          "name": "account",
          "type": "address"
        }
      ],
      "name": "Paused",
      "type": "event"
    },
    {
      "anonymous": false,
      "inputs": [
        {
          "indexed": true,
          "internalType": "address",
          "name": "user",
          "type": "address"
        },
        {
          "indexed": false,
          "internalType": "uint256",
          "name": "amount",
          "type": "uint256"
        }
      ],
      "name": "RewardsClaimed",
      "type": "event"
    },
    {
      "anonymous": false,
      "inputs": [
        {
          "indexed": true,
          "internalType": "address",
          "name": "user",
          "type": "address"
        },
        {
          "indexed": false,
          "internalType": "uint256",
          "name": "amount",
          "type": "uint256"
        },
        {
          "indexed": false,
          "internalType": "uint256",
          "name": "roundUp",
          "type": "uint256"
        }
      ],
      "name": "SavingsDeposited",
      "type": "event"
    },
    {
      "anonymous": false,
      "inputs": [
        {
          "indexed": true,
          "internalType": "address",
          "name": "user",
          "type": "address"
        },
        {
          "indexed": false,
          "internalType": "uint256",
          "name": "amount",
          "type": "uint256"
        }
      ],
      "name": "SavingsWithdrawn",
      "type": "event"
    },
    {
      "anonymous": false,
      "inputs": [
        {
          "indexed": true,
          "internalType": "address",
          "name": "user",
          "type": "address"
        },
        {
          "indexed": true,
          "internalType": "address",
          "name": "newOwner",
          "type": "address"
        }
      ],
      "name": "SecondOwnerAdded",
      "type": "event"
    },
    {
      "anonymous": false,
      "inputs": [
        {
          "indexed": true,
          "internalType": "address",
          "name": "user",
          "type": "address"
        },
        {
          "indexed": true,
          "internalType": "address",
          "name": "sessionKey",
          "type": "address"
        },
        {
          "indexed": false,
          "internalType": "bool",
          "name": "enabled",
          "type": "bool"
        }
      ],
      "name": "SessionKeySet",
      "type": "event"
    },
    {
      "anonymous": false,
      "inputs": [
        {
          "indexed": true,
          "internalType": "bytes32",
          "name": "txHash",
          "type": "bytes32"
        }
      ],
      "name": "TransactionReadyForExecution",
      "type": "event"
    },
    {
      "anonymous": false,
      "inputs": [
        {
          "indexed": false,
          "internalType": "address",
          "name": "account",
          "type": "address"
        }
      ],
      "name": "Unpaused",
      "type": "event"
    },
    {
      "anonymous": false,
      "inputs": [
        {
          "indexed": true,
          "internalType": "address",
          "name": "user",
          "type": "address"
        }
      ],
      "name": "UserRegistered",
      "type": "event"
    },
    {
      "inputs": [],
      "name": "CELO",
      "outputs": [
        {
          "internalType": "contract IERC20",
          "name": "",
          "type": "address"
        }
      ],
      "stateMutability": "view",
      "type": "function"
    },
    {
      "inputs": [],
      "name": "POINTS_PER_DEPOSIT",
      "outputs": [
        {
          "internalType": "uint256",
          "name": "",
          "type": "uint256"
        }
      ],
      "stateMutability": "view",
      "type": "function"
    },
    {
      "inputs": [],
      "name": "actionCount",
      "outputs": [
        {
          "internalType": "uint256",
          "name": "",
          "type": "uint256"
        }
      ],
      "stateMutability": "view",
      "type": "function"
    },
    {
      "inputs": [
        {
          "internalType": "address",
          "name": "_newOwner",
          "type": "address"
        }
      ],
      "name": "addSecondOwner",
      "outputs": [],
      "stateMutability": "nonpayable",
      "type": "function"
    },
    {
      "inputs": [],
      "name": "agentId",
      "outputs": [
        {
          "internalType": "bytes32",
          "name": "",
          "type": "bytes32"
        }
      ],
      "stateMutability": "view",
      "type": "function"
    },
    {
      "inputs": [],
      "name": "agentName",
      "outputs": [
        {
          "internalType": "string",
          "name": "",
          "type": "string"
        }
      ],
      "stateMutability": "view",
      "type": "function"
    },
    {
      "inputs": [],
      "name": "agentVersion",
      "outputs": [
        {
          "internalType": "string",
          "name": "",
          "type": "string"
        }
      ],
      "stateMutability": "view",
      "type": "function"
    },
    {
      "inputs": [
        {
          "internalType": "address",
          "name": "",
          "type": "address"
        }
      ],
      "name": "authorizedUsers",
      "outputs": [
        {
          "internalType": "bool",
          "name": "",
          "type": "bool"
        }
      ],
      "stateMutability": "view",
      "type": "function"
    },
    {
      "inputs": [],
      "name": "autoExecuteDueBills",
      "outputs": [],
      "stateMutability": "nonpayable",
      "type": "function"
    },
    {
      "inputs": [
        {
          "internalType": "bytes32",
          "name": "",
          "type": "bytes32"
        }
      ],
      "name": "bills",
      "outputs": [
        {
          "internalType": "address",
          "name": "recipient",
          "type": "address"
        },
        {
          "internalType": "uint256",
          "name": "amount",
          "type": "uint256"
        },
        {
          "internalType": "uint256",
          "name": "frequency",
          "type": "uint256"
        },
        {
          "internalType": "uint256",
          "name": "nextPaymentTime",
          "type": "uint256"
        },
        {
          "internalType": "bool",
          "name": "isActive",
          "type": "bool"
        },
        {
          "internalType": "bool",
          "name": "isPaid",
          "type": "bool"
        },
        {
          "internalType": "address",
          "name": "createdBy",
          "type": "address"
        },
        {
          "internalType": "string",
          "name": "description",
          "type": "string"
        }
      ],
      "stateMutability": "view",
      "type": "function"
    },
    {
      "inputs": [],
      "name": "cEUR",
      "outputs": [
        {
          "internalType": "contract IERC20",
          "name": "",
          "type": "address"
        }
      ],
      "stateMutability": "view",
      "type": "function"
    },
    {
      "inputs": [],
      "name": "cUSD",
      "outputs": [
        {
          "internalType": "contract IERC20",
          "name": "",
          "type": "address"
        }
      ],
      "stateMutability": "view",
      "type": "function"
    },
    {
      "inputs": [
        {
          "internalType": "bytes32",
          "name": "_billId",
          "type": "bytes32"
        }
      ],
      "name": "cancelBill",
      "outputs": [],
      "stateMutability": "nonpayable",
      "type": "function"
    },
    {
      "inputs": [],
      "name": "claimRewards",
      "outputs": [],
      "stateMutability": "nonpayable",
      "type": "function"
    },
    {
      "inputs": [
        {
          "internalType": "bytes32",
          "name": "_txHash",
          "type": "bytes32"
        }
      ],
      "name": "confirmWithSecondOwner",
      "outputs": [],
      "stateMutability": "nonpayable",
      "type": "function"
    },
    {
      "inputs": [
        {
          "internalType": "bytes32",
          "name": "",
          "type": "bytes32"
        }
      ],
      "name": "confirmationCount",
      "outputs": [
        {
          "internalType": "uint256",
          "name": "",
          "type": "uint256"
        }
      ],
      "stateMutability": "view",
      "type": "function"
    },
    {
      "inputs": [
        {
          "internalType": "bytes32",
          "name": "",
          "type": "bytes32"
        },
        {
          "internalType": "address",
          "name": "",
          "type": "address"
        }
      ],
      "name": "confirmedTransactions",
      "outputs": [
        {
          "internalType": "bool",
          "name": "",
          "type": "bool"
        }
      ],
      "stateMutability": "view",
      "type": "function"
    },
    {
      "inputs": [
        {
          "internalType": "bytes32",
          "name": "_billId",
          "type": "bytes32"
        },
        {
          "internalType": "address",
          "name": "_recipient",
          "type": "address"
        },
        {
          "internalType": "uint256",
          "name": "_amount",
          "type": "uint256"
        },
        {
          "internalType": "uint256",
          "name": "_frequencySeconds",
          "type": "uint256"
        },
        {
          "internalType": "string",
          "name": "_description",
          "type": "string"
        }
      ],
      "name": "createBill",
      "outputs": [],
      "stateMutability": "nonpayable",
      "type": "function"
    },
    {
      "inputs": [
        {
          "internalType": "uint256",
          "name": "_amount",
          "type": "uint256"
        }
      ],
      "name": "depositSavings",
      "outputs": [],
      "stateMutability": "nonpayable",
      "type": "function"
    },
    {
      "inputs": [
        {
          "internalType": "uint256",
          "name": "_amount",
          "type": "uint256"
        }
      ],
      "name": "depositToYield",
      "outputs": [],
      "stateMutability": "nonpayable",
      "type": "function"
    },
    {
      "inputs": [
        {
          "internalType": "uint256",
          "name": "_transactionAmount",
          "type": "uint256"
        }
      ],
      "name": "depositWithRoundUp",
      "outputs": [],
      "stateMutability": "nonpayable",
      "type": "function"
    },
    {
      "inputs": [
        {
          "internalType": "bytes32",
          "name": "_billId",
          "type": "bytes32"
        }
      ],
      "name": "executeBill",
      "outputs": [],
      "stateMutability": "nonpayable",
      "type": "function"
    },
    {
      "inputs": [
        {
          "internalType": "address",
          "name": "_to",
          "type": "address"
        },
        {
          "internalType": "uint256",
          "name": "_value",
          "type": "uint256"
        },
        {
          "internalType": "bytes",
          "name": "_data",
          "type": "bytes"
        },
        {
          "internalType": "uint256",
          "name": "_gasLimit",
          "type": "uint256"
        }
      ],
      "name": "executeGasless",
      "outputs": [],
      "stateMutability": "nonpayable",
      "type": "function"
    },
    {
      "inputs": [
        {
          "internalType": "address",
          "name": "_to",
          "type": "address"
        },
        {
          "internalType": "uint256",
          "name": "_value",
          "type": "uint256"
        },
        {
          "internalType": "bytes",
          "name": "_data",
          "type": "bytes"
        },
        {
          "internalType": "uint256",
          "name": "_nonce",
          "type": "uint256"
        },
        {
          "internalType": "bytes",
          "name": "_signature",
          "type": "bytes"
        }
      ],
      "name": "executeTransaction",
      "outputs": [],
      "stateMutability": "nonpayable",
      "type": "function"
    },
    {
      "inputs": [
        {
          "internalType": "address",
          "name": "_to",
          "type": "address"
        },
        {
          "internalType": "uint256",
          "name": "_value",
          "type": "uint256"
        },
        {
          "internalType": "bytes",
          "name": "_data",
          "type": "bytes"
        },
        {
          "internalType": "address",
          "name": "_sessionKey",
          "type": "address"
        }
      ],
      "name": "executeWithSessionKey",
      "outputs": [],
      "stateMutability": "nonpayable",
      "type": "function"
    },
    {
      "inputs": [
        {
          "internalType": "bytes32",
          "name": "",
          "type": "bytes32"
        }
      ],
      "name": "executedTransactions",
      "outputs": [
        {
          "internalType": "bool",
          "name": "",
          "type": "bool"
        }
      ],
      "stateMutability": "view",
      "type": "function"
    },
    {
      "inputs": [],
      "name": "getAgentIdentity",
      "outputs": [
        {
          "internalType": "bytes32",
          "name": "_agentId",
          "type": "bytes32"
        },
        {
          "internalType": "string",
          "name": "_name",
          "type": "string"
        },
        {
          "internalType": "string",
          "name": "_version",
          "type": "string"
        },
        {
          "internalType": "uint256",
          "name": "_reputation",
          "type": "uint256"
        },
        {
          "internalType": "address",
          "name": "_chain",
          "type": "address"
        },
        {
          "internalType": "uint256",
          "name": "_capabilities",
          "type": "uint256"
        }
      ],
      "stateMutability": "view",
      "type": "function"
    },
    {
      "inputs": [],
      "name": "getAgentStats",
      "outputs": [
        {
          "internalType": "uint256",
          "name": "_totalSavings",
          "type": "uint256"
        },
        {
          "internalType": "uint256",
          "name": "_totalBillsPaid",
          "type": "uint256"
        },
        {
          "internalType": "uint256",
          "name": "_actionCount",
          "type": "uint256"
        },
        {
          "internalType": "bool",
          "name": "_isActive",
          "type": "bool"
        },
        {
          "internalType": "uint256",
          "name": "_reputation",
          "type": "uint256"
        }
      ],
      "stateMutability": "view",
      "type": "function"
    },
    {
      "inputs": [
        {
          "internalType": "bytes32",
          "name": "_billId",
          "type": "bytes32"
        }
      ],
      "name": "getBillDetails",
      "outputs": [
        {
          "internalType": "address",
          "name": "recipient",
          "type": "address"
        },
        {
          "internalType": "uint256",
          "name": "amount",
          "type": "uint256"
        },
        {
          "internalType": "uint256",
          "name": "frequency",
          "type": "uint256"
        },
        {
          "internalType": "uint256",
          "name": "nextPaymentTime",
          "type": "uint256"
        },
        {
          "internalType": "bool",
          "name": "billActive",
          "type": "bool"
        },
        {
          "internalType": "bool",
          "name": "billPaid",
          "type": "bool"
        }
      ],
      "stateMutability": "view",
      "type": "function"
    },
    {
      "inputs": [
        {
          "internalType": "address",
          "name": "_user",
          "type": "address"
        }
      ],
      "name": "getNonce",
      "outputs": [
        {
          "internalType": "uint256",
          "name": "",
          "type": "uint256"
        }
      ],
      "stateMutability": "view",
      "type": "function"
    },
    {
      "inputs": [
        {
          "internalType": "address",
          "name": "_user",
          "type": "address"
        }
      ],
      "name": "getNotifications",
      "outputs": [
        {
          "components": [
            {
              "internalType": "address",
              "name": "user",
              "type": "address"
            },
            {
              "internalType": "string",
              "name": "message",
              "type": "string"
            },
            {
              "internalType": "uint256",
              "name": "timestamp",
              "type": "uint256"
            },
            {
              "internalType": "bool",
              "name": "read",
              "type": "bool"
            },
            {
              "internalType": "enum AutoPocketAgentV2.NotificationType",
              "name": "notificationType",
              "type": "uint8"
            }
          ],
          "internalType": "struct AutoPocketAgentV2.Notification[]",
          "name": "",
          "type": "tuple[]"
        }
      ],
      "stateMutability": "view",
      "type": "function"
    },
    {
      "inputs": [
        {
          "internalType": "address",
          "name": "_user",
          "type": "address"
        }
      ],
      "name": "getRewardPoints",
      "outputs": [
        {
          "internalType": "uint256",
          "name": "",
          "type": "uint256"
        }
      ],
      "stateMutability": "view",
      "type": "function"
    },
    {
      "inputs": [
        {
          "internalType": "address",
          "name": "_user",
          "type": "address"
        }
      ],
      "name": "getSecondOwner",
      "outputs": [
        {
          "internalType": "address",
          "name": "",
          "type": "address"
        }
      ],
      "stateMutability": "view",
      "type": "function"
    },
    {
      "inputs": [
        {
          "internalType": "address",
          "name": "_user",
          "type": "address"
        }
      ],
      "name": "getUnreadCount",
      "outputs": [
        {
          "internalType": "uint256",
          "name": "count",
          "type": "uint256"
        }
      ],
      "stateMutability": "view",
      "type": "function"
    },
    {
      "inputs": [
        {
          "internalType": "address",
          "name": "_user",
          "type": "address"
        }
      ],
      "name": "getUserBillIds",
      "outputs": [
        {
          "internalType": "bytes32[]",
          "name": "",
          "type": "bytes32[]"
        }
      ],
      "stateMutability": "view",
      "type": "function"
    },
    {
      "inputs": [
        {
          "internalType": "address",
          "name": "_user",
          "type": "address"
        }
      ],
      "name": "getUserRoundUpBalance",
      "outputs": [
        {
          "internalType": "uint256",
          "name": "",
          "type": "uint256"
        }
      ],
      "stateMutability": "view",
      "type": "function"
    },
    {
      "inputs": [
        {
          "internalType": "address",
          "name": "_user",
          "type": "address"
        }
      ],
      "name": "getUserSavings",
      "outputs": [
        {
          "internalType": "uint256",
          "name": "totalDeposited",
          "type": "uint256"
        },
        {
          "internalType": "uint256",
          "name": "totalWithdrawn",
          "type": "uint256"
        },
        {
          "internalType": "uint256",
          "name": "availableBalance",
          "type": "uint256"
        },
        {
          "internalType": "uint256",
          "name": "lastDepositTime",
          "type": "uint256"
        },
        {
          "internalType": "bool",
          "name": "isRegistered",
          "type": "bool"
        }
      ],
      "stateMutability": "view",
      "type": "function"
    },
    {
      "inputs": [],
      "name": "isActive",
      "outputs": [
        {
          "internalType": "bool",
          "name": "",
          "type": "bool"
        }
      ],
      "stateMutability": "view",
      "type": "function"
    },
    {
      "inputs": [
        {
          "internalType": "address",
          "name": "_user",
          "type": "address"
        },
        {
          "internalType": "address",
          "name": "_key",
          "type": "address"
        }
      ],
      "name": "isSessionKeyValid",
      "outputs": [
        {
          "internalType": "bool",
          "name": "",
          "type": "bool"
        }
      ],
      "stateMutability": "view",
      "type": "function"
    },
    {
      "inputs": [],
      "name": "lastActionTimestamp",
      "outputs": [
        {
          "internalType": "uint256",
          "name": "",
          "type": "uint256"
        }
      ],
      "stateMutability": "view",
      "type": "function"
    },
    {
      "inputs": [
        {
          "internalType": "address",
          "name": "",
          "type": "address"
        }
      ],
      "name": "lastBillExecution",
      "outputs": [
        {
          "internalType": "uint256",
          "name": "",
          "type": "uint256"
        }
      ],
      "stateMutability": "view",
      "type": "function"
    },
    {
      "inputs": [
        {
          "internalType": "uint256",
          "name": "_index",
          "type": "uint256"
        }
      ],
      "name": "markNotificationRead",
      "outputs": [],
      "stateMutability": "nonpayable",
      "type": "function"
    },
    {
      "inputs": [
        {
          "internalType": "address",
          "name": "",
          "type": "address"
        }
      ],
      "name": "nonce",
      "outputs": [
        {
          "internalType": "uint256",
          "name": "",
          "type": "uint256"
        }
      ],
      "stateMutability": "view",
      "type": "function"
    },
    {
      "inputs": [],
      "name": "notificationCount",
      "outputs": [
        {
          "internalType": "uint256",
          "name": "",
          "type": "uint256"
        }
      ],
      "stateMutability": "view",
      "type": "function"
    },
    {
      "inputs": [
        {
          "internalType": "address",
          "name": "",
          "type": "address"
        },
        {
          "internalType": "uint256",
          "name": "",
          "type": "uint256"
        }
      ],
      "name": "notifications",
      "outputs": [
        {
          "internalType": "address",
          "name": "user",
          "type": "address"
        },
        {
          "internalType": "string",
          "name": "message",
          "type": "string"
        },
        {
          "internalType": "uint256",
          "name": "timestamp",
          "type": "uint256"
        },
        {
          "internalType": "bool",
          "name": "read",
          "type": "bool"
        },
        {
          "internalType": "enum AutoPocketAgentV2.NotificationType",
          "name": "notificationType",
          "type": "uint8"
        }
      ],
      "stateMutability": "view",
      "type": "function"
    },
    {
      "inputs": [
        {
          "internalType": "address",
          "name": "_user",
          "type": "address"
        },
        {
          "internalType": "string",
          "name": "_message",
          "type": "string"
        }
      ],
      "name": "notifyUser",
      "outputs": [],
      "stateMutability": "nonpayable",
      "type": "function"
    },
    {
      "inputs": [],
      "name": "owner",
      "outputs": [
        {
          "internalType": "address",
          "name": "",
          "type": "address"
        }
      ],
      "stateMutability": "view",
      "type": "function"
    },
    {
      "inputs": [],
      "name": "pause",
      "outputs": [],
      "stateMutability": "nonpayable",
      "type": "function"
    },
    {
      "inputs": [],
      "name": "paused",
      "outputs": [
        {
          "internalType": "bool",
          "name": "",
          "type": "bool"
        }
      ],
      "stateMutability": "view",
      "type": "function"
    },
    {
      "inputs": [],
      "name": "registerUser",
      "outputs": [],
      "stateMutability": "nonpayable",
      "type": "function"
    },
    {
      "inputs": [],
      "name": "renounceOwnership",
      "outputs": [],
      "stateMutability": "nonpayable",
      "type": "function"
    },
    {
      "inputs": [],
      "name": "reputationScore",
      "outputs": [
        {
          "internalType": "uint256",
          "name": "",
          "type": "uint256"
        }
      ],
      "stateMutability": "view",
      "type": "function"
    },
    {
      "inputs": [
        {
          "internalType": "address",
          "name": "",
          "type": "address"
        }
      ],
      "name": "rewardPoints",
      "outputs": [
        {
          "internalType": "uint256",
          "name": "",
          "type": "uint256"
        }
      ],
      "stateMutability": "view",
      "type": "function"
    },
    {
      "inputs": [
        {
          "internalType": "address",
          "name": "",
          "type": "address"
        }
      ],
      "name": "roundUpSettings",
      "outputs": [
        {
          "internalType": "uint256",
          "name": "",
          "type": "uint256"
        }
      ],
      "stateMutability": "view",
      "type": "function"
    },
    {
      "inputs": [
        {
          "internalType": "address",
          "name": "",
          "type": "address"
        }
      ],
      "name": "secondOwners",
      "outputs": [
        {
          "internalType": "address",
          "name": "",
          "type": "address"
        }
      ],
      "stateMutability": "view",
      "type": "function"
    },
    {
      "inputs": [
        {
          "internalType": "address",
          "name": "",
          "type": "address"
        },
        {
          "internalType": "address",
          "name": "",
          "type": "address"
        }
      ],
      "name": "sessionKeys",
      "outputs": [
        {
          "internalType": "bool",
          "name": "",
          "type": "bool"
        }
      ],
      "stateMutability": "view",
      "type": "function"
    },
    {
      "inputs": [
        {
          "internalType": "bool",
          "name": "_active",
          "type": "bool"
        }
      ],
      "name": "setActive",
      "outputs": [],
      "stateMutability": "nonpayable",
      "type": "function"
    },
    {
      "inputs": [
        {
          "internalType": "uint256",
          "name": "_threshold",
          "type": "uint256"
        }
      ],
      "name": "setRoundUpThreshold",
      "outputs": [],
      "stateMutability": "nonpayable",
      "type": "function"
    },
    {
      "inputs": [
        {
          "internalType": "address",
          "name": "_sessionKey",
          "type": "address"
        },
        {
          "internalType": "bool",
          "name": "_enabled",
          "type": "bool"
        }
      ],
      "name": "setSessionKey",
      "outputs": [],
      "stateMutability": "nonpayable",
      "type": "function"
    },
    {
      "inputs": [
        {
          "internalType": "address",
          "name": "_vault",
          "type": "address"
        }
      ],
      "name": "setYieldVault",
      "outputs": [],
      "stateMutability": "nonpayable",
      "type": "function"
    },
    {
      "inputs": [],
      "name": "totalBillsPaid",
      "outputs": [
        {
          "internalType": "uint256",
          "name": "",
          "type": "uint256"
        }
      ],
      "stateMutability": "view",
      "type": "function"
    },
    {
      "inputs": [
        {
          "internalType": "address",
          "name": "",
          "type": "address"
        }
      ],
      "name": "totalRoundUps",
      "outputs": [
        {
          "internalType": "uint256",
          "name": "",
          "type": "uint256"
        }
      ],
      "stateMutability": "view",
      "type": "function"
    },
    {
      "inputs": [],
      "name": "totalSavings",
      "outputs": [
        {
          "internalType": "uint256",
          "name": "",
          "type": "uint256"
        }
      ],
      "stateMutability": "view",
      "type": "function"
    },
    {
      "inputs": [
        {
          "internalType": "address",
          "name": "newOwner",
          "type": "address"
        }
      ],
      "name": "transferOwnership",
      "outputs": [],
      "stateMutability": "nonpayable",
      "type": "function"
    },
    {
      "inputs": [],
      "name": "unpause",
      "outputs": [],
      "stateMutability": "nonpayable",
      "type": "function"
    },
    {
      "inputs": [
        {
          "internalType": "address",
          "name": "",
          "type": "address"
        },
        {
          "internalType": "uint256",
          "name": "",
          "type": "uint256"
        }
      ],
      "name": "userBillIds",
      "outputs": [
        {
          "internalType": "bytes32",
          "name": "",
          "type": "bytes32"
        }
      ],
      "stateMutability": "view",
      "type": "function"
    },
    {
      "inputs": [
        {
          "internalType": "address",
          "name": "",
          "type": "address"
        }
      ],
      "name": "userData",
      "outputs": [
        {
          "internalType": "uint256",
          "name": "totalDeposited",
          "type": "uint256"
        },
        {
          "internalType": "uint256",
          "name": "totalWithdrawn",
          "type": "uint256"
        },
        {
          "internalType": "uint256",
          "name": "roundUpBalance",
          "type": "uint256"
        },
        {
          "internalType": "uint256",
          "name": "lastDepositTime",
          "type": "uint256"
        },
        {
          "internalType": "bool",
          "name": "isRegistered",
          "type": "bool"
        },
        {
          "internalType": "uint256",
          "name": "yTokens",
          "type": "uint256"
        }
      ],
      "stateMutability": "view",
      "type": "function"
    },
    {
      "inputs": [
        {
          "internalType": "address",
          "name": "_user",
          "type": "address"
        },
        {
          "internalType": "bytes",
          "name": "_credential",
          "type": "bytes"
        }
      ],
      "name": "verifyCeloIdentity",
      "outputs": [
        {
          "internalType": "bool",
          "name": "",
          "type": "bool"
        }
      ],
      "stateMutability": "nonpayable",
      "type": "function"
    },
    {
      "inputs": [],
      "name": "withdrawAll",
      "outputs": [],
      "stateMutability": "nonpayable",
      "type": "function"
    },
    {
      "inputs": [
        {
          "internalType": "uint256",
          "name": "_yTokens",
          "type": "uint256"
        }
      ],
      "name": "withdrawFromYield",
      "outputs": [],
      "stateMutability": "nonpayable",
      "type": "function"
    },
    {
      "inputs": [
        {
          "internalType": "uint256",
          "name": "_amount",
          "type": "uint256"
        }
      ],
      "name": "withdrawSavings",
      "outputs": [],
      "stateMutability": "nonpayable",
      "type": "function"
    },
    {
      "inputs": [
        {
          "internalType": "address",
          "name": "_token",
          "type": "address"
        },
        {
          "internalType": "uint256",
          "name": "_amount",
          "type": "uint256"
        }
      ],
      "name": "withdrawToken",
      "outputs": [],
      "stateMutability": "nonpayable",
      "type": "function"
    },
    {
      "inputs": [],
      "name": "yieldEnabled",
      "outputs": [
        {
          "internalType": "bool",
          "name": "",
          "type": "bool"
        }
      ],
      "stateMutability": "view",
      "type": "function"
    },
    {
      "inputs": [],
      "name": "yieldRate",
      "outputs": [
        {
          "internalType": "uint256",
          "name": "",
          "type": "uint256"
        }
      ],
      "stateMutability": "view",
      "type": "function"
    },
    {
      "inputs": [],
      "name": "yieldVault",
      "outputs": [
        {
          "internalType": "address",
          "name": "",
          "type": "address"
        }
      ],
      "stateMutability": "view",
      "type": "function"
    }
  ],
  "bytecode": "0x60e06040526040518060400160405280600a81526020017f4175746f506f636b657400000000000000000000000000000000000000000000815250600690816200004a9190620005ec565b506040518060400160405280600581526020017f332e302e3000000000000000000000000000000000000000000000000000000081525060079081620000919190620005ec565b50605f6008556101f4600a55348015620000aa57600080fd5b5033600073ffffffffffffffffffffffffffffffffffffffff168173ffffffffffffffffffffffffffffffffffffffff1603620001215760006040517f1e4fbdf700000000000000000000000000000000000000000000000000000000815260040162000118919062000718565b60405180910390fd5b62000132816200027760201b60201c565b50600162000155620001496200033b60201b60201c565b6200036660201b60201c565b6000018190555073765de816845861e75a25fca122bb6898b8b1272a73ffffffffffffffffffffffffffffffffffffffff1660808173ffffffffffffffffffffffffffffffffffffffff168152505073471ece3750da237f93b8e339c536988bc5deb0b473ffffffffffffffffffffffffffffffffffffffff1660a08173ffffffffffffffffffffffffffffffffffffffff168152505073d8763cba276ab0ed6a75dd1b5f2aeef3a57cb60073ffffffffffffffffffffffffffffffffffffffff1660c08173ffffffffffffffffffffffffffffffffffffffff1681525050604051602001620002459062000790565b60405160208183030381529060405280519060200120600581905550620002716200037060201b60201c565b620007a7565b60008060009054906101000a900473ffffffffffffffffffffffffffffffffffffffff169050816000806101000a81548173ffffffffffffffffffffffffffffffffffffffff021916908373ffffffffffffffffffffffffffffffffffffffff1602179055508173ffffffffffffffffffffffffffffffffffffffff168173ffffffffffffffffffffffffffffffffffffffff167f8be0079c531659141344cd1fd0a4f28419497f9722a3daafe3b4186f6b6457e060405160405180910390a35050565b60007f9b779b17422d0df92223018b32b4d1fa46e071723d6817e2486d003becc55f0060001b905090565b6000819050919050565b565b600081519050919050565b7f4e487b7100000000000000000000000000000000000000000000000000000000600052604160045260246000fd5b7f4e487b7100000000000000000000000000000000000000000000000000000000600052602260045260246000fd5b60006002820490506001821680620003f457607f821691505b6020821081036200040a5762000409620003ac565b5b50919050565b60008190508160005260206000209050919050565b60006020601f8301049050919050565b600082821b905092915050565b600060088302620004747fffffffffffffffffffffffffffffffffffffffffffffffffffffffffffffffff8262000435565b62000480868362000435565b95508019841693508086168417925050509392505050565b6000819050919050565b6000819050919050565b6000620004cd620004c7620004c18462000498565b620004a2565b62000498565b9050919050565b6000819050919050565b620004e983620004ac565b62000501620004f882620004d4565b84845462000442565b825550505050565b600090565b6200051862000509565b62000525818484620004de565b505050565b5b818110156200054d57620005416000826200050e565b6001810190506200052b565b5050565b601f8211156200059c57620005668162000410565b620005718462000425565b8101602085101562000581578190505b62000599620005908562000425565b8301826200052a565b50505b505050565b600082821c905092915050565b6000620005c160001984600802620005a1565b1980831691505092915050565b6000620005dc8383620005ae565b9150826002028217905092915050565b620005f78262000372565b67ffffffffffffffff8111156200061357620006126200037d565b5b6200061f8254620003db565b6200062c82828562000551565b600060209050601f8311600181146200066457600084156200064f578287015190505b6200065b8582620005ce565b865550620006cb565b601f198416620006748662000410565b60005b828110156200069e5784890151825560018201915060208501945060208101905062000677565b86831015620006be5784890151620006ba601f891682620005ae565b8355505b6001600288020188555050505b505050505050565b600073ffffffffffffffffffffffffffffffffffffffff82169050919050565b60006200070082620006d3565b9050919050565b6200071281620006f3565b82525050565b60006020820190506200072f600083018462000707565b92915050565b600081905092915050565b7f4175746f506f636b65742d4167656e742d763300000000000000000000000000600082015250565b60006200077860138362000735565b9150620007858262000740565b601382019050919050565b60006200079d8262000769565b9150819050919050565b60805160a05160c051616dd06200081d6000396000613014015260006147430152600081816115ea0152818161169a015281816117a20152818161198501528181611cd60152818161296f015281816130f00152818161319101528181613a7301528181613f7b01526144720152616dd06000f3fe608060405234801561001057600080fd5b50600436106104495760003560e01c8063715018a611610241578063a6e5b6d21161013b578063cf2bb947116100c3578063f2fde38b11610087578063f2fde38b14610d9e578063f60e673e14610dba578063f80a205714610dd8578063f91b0bdb14610e0c578063fd67508d14610e2857610449565b8063cf2bb94714610d0c578063de98645014610d3c578063e84f43b714610d58578063eac697c914610d76578063f1f1e22214610d9457610449565b8063b3e59d411161010a578063b3e59d4114610c36578063b5762e4014610c66578063b5a6a3d114610c96578063c2752e4314610cb9578063c891091314610cd757610449565b8063a6e5b6d214610bb0578063a7f8a5e214610be0578063acec338a14610bfe578063ae5f402e14610c1a57610449565b80638691d34c116101c95780639bf42b3f1161018d5780639bf42b3f14610af35780639e281a9814610b11578063a449718214610b2d578063a453b6cf14610b64578063a662fac914610b8057610449565b80638691d34c14610a295780638a8f63b014610a595780638da1eccf14610a895780638da5cb5b14610aa557806396ade1f914610ac357610449565b80637bd95a85116102105780637bd95a85146109975780637d1f2de7146109c757806381e9c8d1146109e55780638456cb5914610a15578063853828b614610a1f57610449565b8063715018a61461090657806375b6608b1461091057806377a5e9f214610940578063787930c21461096257610449565b8063390380311161035257806359bf77df116102da578063667376411161029e57806366737641146108625780636999ac931461087e5780636c49ad801461089c57806370ae92d2146108b857806371342f0c146108e857610449565b806359bf77df146107a65780635c975abb146107d65780636057710f146107f457806360a7fc1f1461081057806365d0bddd1461082e57610449565b806341d7b1d31161032157806341d7b1d3146107165780634315f45814610734578063449f5551146107505780634d3820eb1461076c578063583e9aea1461077657610449565b806339038031146106a25780633c19804e146106be5780633f4ba83a146106dc578063404a43c4146106e657610449565b80631f5d2bd8116103d557806329da5738116103a457806329da5738146106125780632a6d9ddd146106305780632badf0561461064c5780632d0335ab14610668578063372500ab1461069857610449565b80631f5d2bd81461058a5780631fccf672146105ba5780631fff047c146105d857806322f3e2d4146105f457610449565b8063137c3f691161041c578063137c3f69146104c2578063145f759c146104de5780631518c9581461050e57806315ee90d61461053e5780631828983a1461055a57610449565b80630245fe021461044e5780630dc7fff91461046a57806310c59c72146104885780631107f175146104a6575b600080fd5b610468600480360381019061046391906154e7565b610e58565b005b610472611077565b60405161047f919061557e565b60405180910390f35b61049061107d565b60405161049d9190615629565b60405180910390f35b6104c060048036038101906104bb919061564b565b61110b565b005b6104dc60048036038101906104d7919061564b565b611399565b005b6104f860048036038101906104f39190615678565b611466565b60405161050591906156f3565b60405180910390f35b6105286004803603810190610523919061570e565b6114cb565b6040516105359190615767565b60405180910390f35b610558600480360381019061055391906157ae565b6114fc565b005b610574600480360381019061056f919061564b565b611930565b60405161058191906156f3565b60405180910390f35b6105a4600480360381019061059f919061564b565b611950565b6040516105b191906157ea565b60405180910390f35b6105c2611983565b6040516105cf9190615864565b60405180910390f35b6105f260048036038101906105ed91906158ab565b6119a7565b005b6105fc611b2c565b60405161060991906156f3565b60405180910390f35b61061a611b3f565b604051610627919061557e565b60405180910390f35b61064a600480360381019061064591906158eb565b611b45565b005b610666600480360381019061066191906158eb565b611d40565b005b610682600480360381019061067d919061564b565b611dc1565b60405161068f919061557e565b60405180910390f35b6106a0611e0a565b005b6106bc60048036038101906106b791906158eb565b611f86565b005b6106c661204f565b6040516106d39190615629565b60405180910390f35b6106e46120dd565b005b61070060048036038101906106fb919061564b565b6120ef565b60405161070d91906159d6565b60405180910390f35b61071e612186565b60405161072b919061557e565b60405180910390f35b61074e600480360381019061074991906157ae565b61218b565b005b61076a600480360381019061076591906159f8565b6122ba565b005b6107746125d8565b005b610790600480360381019061078b919061564b565b6125eb565b60405161079d91906157ea565b60405180910390f35b6107c060048036038101906107bb91906157ae565b612654565b6040516107cd919061557e565b60405180910390f35b6107de61266c565b6040516107eb91906156f3565b60405180910390f35b61080e60048036038101906108099190615ad6565b612682565b005b61081861277d565b604051610825919061557e565b60405180910390f35b6108486004803603810190610843919061570e565b612783565b604051610859959493929190615bad565b60405180910390f35b61087c600480360381019061087791906158eb565b612898565b005b610886612c21565b604051610893919061557e565b60405180910390f35b6108b660048036038101906108b19190615c07565b612c27565b005b6108d260048036038101906108cd919061564b565b612ed6565b6040516108df919061557e565b60405180910390f35b6108f0612eee565b6040516108fd919061557e565b60405180910390f35b61090e612ef4565b005b61092a60048036038101906109259190615cc3565b612f08565b60405161093791906156f3565b60405180910390f35b610948612f37565b604051610959959493929190615d03565b60405180910390f35b61097c600480360381019061097791906157ae565b612f6c565b60405161098e96959493929190615d56565b60405180910390f35b6109b160048036038101906109ac919061564b565b612ffa565b6040516109be919061557e565b60405180910390f35b6109cf613012565b6040516109dc9190615864565b60405180910390f35b6109ff60048036038101906109fa9190615db7565b613036565b604051610a0c91906156f3565b60405180910390f35b610a1d6130ca565b005b610a276130dc565b005b610a436004803603810190610a3e91906157ae565b6131e0565b604051610a5091906156f3565b60405180910390f35b610a736004803603810190610a6e919061564b565b613200565b604051610a809190615fb5565b60405180910390f35b610aa36004803603810190610a9e9190615fd7565b6133e6565b005b610aad613859565b604051610aba91906157ea565b60405180910390f35b610add6004803603810190610ad89190615db7565b613882565b604051610aea91906156f3565b60405180910390f35b610afb6138b1565b604051610b08919061557e565b60405180910390f35b610b2b6004803603810190610b26919061570e565b6138b7565b005b610b476004803603810190610b4291906157ae565b6138ee565b604051610b5b989796959493929190616071565b60405180910390f35b610b7e6004803603810190610b7991906158eb565b613a18565b005b610b9a6004803603810190610b95919061564b565b613cd5565b604051610ba7919061557e565b60405180910390f35b610bca6004803603810190610bc5919061564b565b613d87565b604051610bd7919061557e565b60405180910390f35b610be8613d9f565b604051610bf591906157ea565b60405180910390f35b610c186004803603810190610c1391906160f6565b613dc5565b005b610c346004803603810190610c2f91906158eb565b613e21565b005b610c506004803603810190610c4b919061564b565b614043565b604051610c5d919061557e565b60405180910390f35b610c806004803603810190610c7b919061564b565b61405b565b604051610c8d919061557e565b60405180910390f35b610c9e614073565b604051610cb096959493929190616123565b60405180910390f35b610cc16141b6565b604051610cce91906156f3565b60405180910390f35b610cf16004803603810190610cec919061564b565b6141c9565b604051610d0396959493929190616192565b60405180910390f35b610d266004803603810190610d21919061564b565b614212565b604051610d33919061557e565b60405180910390f35b610d566004803603810190610d5191906158eb565b61425b565b005b610d60614561565b604051610d6d9190615767565b60405180910390f35b610d7e614567565b604051610d8b919061557e565b60405180910390f35b610d9c61456d565b005b610db86004803603810190610db3919061564b565b6146bb565b005b610dc2614741565b604051610dcf9190615864565b60405180910390f35b610df26004803603810190610ded919061564b565b614765565b604051610e039594939291906161f3565b60405180910390f35b610e266004803603810190610e2191906157ae565b6147e9565b005b610e426004803603810190610e3d919061564b565b614ab9565b604051610e4f919061557e565b60405180910390f35b610e60614b02565b33600b60008273ffffffffffffffffffffffffffffffffffffffff1673ffffffffffffffffffffffffffffffffffffffff16815260200190815260200160002060040160009054906101000a900460ff16610ee7576040517f2163950f00000000000000000000000000000000000000000000000000000000815260040160405180910390fd5b601760003373ffffffffffffffffffffffffffffffffffffffff1673ffffffffffffffffffffffffffffffffffffffff16815260200190815260200160002060008373ffffffffffffffffffffffffffffffffffffffff1673ffffffffffffffffffffffffffffffffffffffff16815260200190815260200160002060009054906101000a900460ff16610fa7576040517fea8e4eb500000000000000000000000000000000000000000000000000000000815260040160405180910390fd5b60008673ffffffffffffffffffffffffffffffffffffffff16868686604051610fd1929190616285565b60006040518083038185875af1925050503d806000811461100e576040519150601f19603f3d011682016040523d82523d6000602084013e611013565b606091505b505090508061104e576040517fd47c63a800000000000000000000000000000000000000000000000000000000815260040160405180910390fd5b60026000815480929190611061906162cd565b91905055505050611070614b25565b5050505050565b60045481565b6007805461108a90616344565b80601f01602080910402602001604051908101604052809291908181526020018280546110b690616344565b80156111035780601f106110d857610100808354040283529160200191611103565b820191906000526020600020905b8154815290600101906020018083116110e657829003601f168201915b505050505081565b33600b60008273ffffffffffffffffffffffffffffffffffffffff1673ffffffffffffffffffffffffffffffffffffffff16815260200190815260200160002060040160009054906101000a900460ff16611192576040517f2163950f00000000000000000000000000000000000000000000000000000000815260040160405180910390fd5b600073ffffffffffffffffffffffffffffffffffffffff168273ffffffffffffffffffffffffffffffffffffffff16036111f8576040517fd92e233d00000000000000000000000000000000000000000000000000000000815260040160405180910390fd5b600073ffffffffffffffffffffffffffffffffffffffff16601860003373ffffffffffffffffffffffffffffffffffffffff1673ffffffffffffffffffffffffffffffffffffffff16815260200190815260200160002060009054906101000a900473ffffffffffffffffffffffffffffffffffffffff1673ffffffffffffffffffffffffffffffffffffffff16146112bd576040517f3a81d6fc00000000000000000000000000000000000000000000000000000000815260040160405180910390fd5b81601860003373ffffffffffffffffffffffffffffffffffffffff1673ffffffffffffffffffffffffffffffffffffffff16815260200190815260200160002060006101000a81548173ffffffffffffffffffffffffffffffffffffffff021916908373ffffffffffffffffffffffffffffffffffffffff1602179055508173ffffffffffffffffffffffffffffffffffffffff163373ffffffffffffffffffffffffffffffffffffffff167fce1cb59b605d76c45fa33f00dd88b103083a0e353af0903997ae3075e0454f5d60405160405180910390a35050565b6113a1614b40565b600073ffffffffffffffffffffffffffffffffffffffff168173ffffffffffffffffffffffffffffffffffffffff1603611407576040517fd92e233d00000000000000000000000000000000000000000000000000000000815260040160405180910390fd5b80600960006101000a81548173ffffffffffffffffffffffffffffffffffffffff021916908373ffffffffffffffffffffffffffffffffffffffff1602179055506001600960146101000a81548160ff02191690831515021790555050565b6000633b9aca00600b60008673ffffffffffffffffffffffffffffffffffffffff1673ffffffffffffffffffffffffffffffffffffffff1681526020019081526020016000206000015411156114bf57600190506114c4565b600090505b9392505050565b600e60205281600052604060002081815481106114e757600080fd5b90600052602060002001600091509150505481565b611504614b02565b600060159054906101000a900460ff1661154a576040517f486fcee200000000000000000000000000000000000000000000000000000000815260040160405180910390fd5b6000600d600083815260200190815260200160002090508060040160009054906101000a900460ff166115a9576040517fcf897cfb00000000000000000000000000000000000000000000000000000000815260040160405180910390fd5b80600301544210156115e6576040517ea71fbb00000000000000000000000000000000000000000000000000000000815260040160405180910390fd5b60007f000000000000000000000000000000000000000000000000000000000000000073ffffffffffffffffffffffffffffffffffffffff166370a08231306040518263ffffffff1660e01b815260040161164191906157ea565b602060405180830381865afa15801561165e573d6000803e3d6000fd5b505050506040513d601f19601f82011682018060405250810190611682919061638a565b9050816001015481101561177357611698614bc7565b7f000000000000000000000000000000000000000000000000000000000000000073ffffffffffffffffffffffffffffffffffffffff166370a08231306040518263ffffffff1660e01b81526004016116f191906157ea565b602060405180830381865afa15801561170e573d6000803e3d6000fd5b505050506040513d601f19601f82011682018060405250810190611732919061638a565b90508160010154811015611772576040517ff4d678b800000000000000000000000000000000000000000000000000000000815260040160405180910390fd5b5b6117e68260000160009054906101000a900473ffffffffffffffffffffffffffffffffffffffff1683600101547f000000000000000000000000000000000000000000000000000000000000000073ffffffffffffffffffffffffffffffffffffffff16614bc99092919063ffffffff16565b60018260040160016101000a81548160ff02191690831515021790555081600201544261181391906163b7565b82600301819055506004600081548092919061182e906162cd565b919050555060026000815480929190611846906162cd565b91905055508160040160029054906101000a900473ffffffffffffffffffffffffffffffffffffffff1673ffffffffffffffffffffffffffffffffffffffff16837f7763e65e4730dc3bd160c6b49f1eccb463828c997ef23c2e18edfbce92081f3d84600101546040516118ba919061557e565b60405180910390a36119238260040160029054906101000a900473ffffffffffffffffffffffffffffffffffffffff16620f424084600101546118fd919061641a565b60405160200161190d919061650f565b6040516020818303038152906040526003614c1c565b505061192d614b25565b50565b600c6020528060005260406000206000915054906101000a900460ff1681565b60186020528060005260406000206000915054906101000a900473ffffffffffffffffffffffffffffffffffffffff1681565b7f000000000000000000000000000000000000000000000000000000000000000081565b33600b60008273ffffffffffffffffffffffffffffffffffffffff1673ffffffffffffffffffffffffffffffffffffffff16815260200190815260200160002060040160009054906101000a900460ff16611a2e576040517f2163950f00000000000000000000000000000000000000000000000000000000815260040160405180910390fd5b81601760003373ffffffffffffffffffffffffffffffffffffffff1673ffffffffffffffffffffffffffffffffffffffff16815260200190815260200160002060008573ffffffffffffffffffffffffffffffffffffffff1673ffffffffffffffffffffffffffffffffffffffff16815260200190815260200160002060006101000a81548160ff0219169083151502179055508273ffffffffffffffffffffffffffffffffffffffff163373ffffffffffffffffffffffffffffffffffffffff167f508a7829d02c238a6550a633bd794949f8c82c457f5b93ee520445066b005c0384604051611b1f91906156f3565b60405180910390a3505050565b600060159054906101000a900460ff1681565b60025481565b611b4d614b02565b6000600b60003373ffffffffffffffffffffffffffffffffffffffff1673ffffffffffffffffffffffffffffffffffffffff16815260200190815260200160002060050154905080821115611bce576040517ff4d678b800000000000000000000000000000000000000000000000000000000815260040160405180910390fd5b600064496cebb800600b60003373ffffffffffffffffffffffffffffffffffffffff1673ffffffffffffffffffffffffffffffffffffffff1681526020019081526020016000206003015442611c249190616540565b600a5485611c329190616574565b611c3c9190616574565b611c46919061641a565b905082600b60003373ffffffffffffffffffffffffffffffffffffffff1673ffffffffffffffffffffffffffffffffffffffff1681526020019081526020016000206005016000828254611c9a9190616540565b92505081905550611d1b600960009054906101000a900473ffffffffffffffffffffffffffffffffffffffff16338386611cd491906163b7565b7f000000000000000000000000000000000000000000000000000000000000000073ffffffffffffffffffffffffffffffffffffffff16614dac909392919063ffffffff16565b60026000815480929190611d2e906162cd565b91905055505050611d3d614b25565b50565b60008103611d7a576040517f2c5211c600000000000000000000000000000000000000000000000000000000815260040160405180910390fd5b80601460003373ffffffffffffffffffffffffffffffffffffffff1673ffffffffffffffffffffffffffffffffffffffff1681526020019081526020016000208190555050565b6000601260008373ffffffffffffffffffffffffffffffffffffffff1673ffffffffffffffffffffffffffffffffffffffff168152602001908152602001600020549050919050565b611e12614b02565b33600b60008273ffffffffffffffffffffffffffffffffffffffff1673ffffffffffffffffffffffffffffffffffffffff16815260200190815260200160002060040160009054906101000a900460ff16611e99576040517f2163950f00000000000000000000000000000000000000000000000000000000815260040160405180910390fd5b6000601660003373ffffffffffffffffffffffffffffffffffffffff1673ffffffffffffffffffffffffffffffffffffffff1681526020019081526020016000205490506000811115611f7a576000601660003373ffffffffffffffffffffffffffffffffffffffff1673ffffffffffffffffffffffffffffffffffffffff168152602001908152602001600020819055503373ffffffffffffffffffffffffffffffffffffffff167ffc30cddea38e2bf4d6ea7d3f9ed3b6ad7f176419f4963bd81318067a4aee73fe82604051611f71919061557e565b60405180910390a25b5050611f84614b25565b565b80601060003373ffffffffffffffffffffffffffffffffffffffff1673ffffffffffffffffffffffffffffffffffffffff16815260200190815260200160002080549050111561204c576001601060003373ffffffffffffffffffffffffffffffffffffffff1673ffffffffffffffffffffffffffffffffffffffff1681526020019081526020016000208281548110612023576120226165b6565b5b906000526020600020906004020160030160006101000a81548160ff0219169083151502179055505b50565b6006805461205c90616344565b80601f016020809104026020016040519081016040528092919081815260200182805461208890616344565b80156120d55780601f106120aa576101008083540402835291602001916120d5565b820191906000526020600020905b8154815290600101906020018083116120b857829003601f168201915b505050505081565b6120e5614b40565b6120ed614e01565b565b6060600e60008373ffffffffffffffffffffffffffffffffffffffff1673ffffffffffffffffffffffffffffffffffffffff16815260200190815260200160002080548060200260200160405190810160405280929190818152602001828054801561217a57602002820191906000526020600020905b815481526020019060010190808311612166575b50505050509050919050565b600a81565b6000600d600083815260200190815260200160002090503373ffffffffffffffffffffffffffffffffffffffff168160040160029054906101000a900473ffffffffffffffffffffffffffffffffffffffff1673ffffffffffffffffffffffffffffffffffffffff161415801561223557503373ffffffffffffffffffffffffffffffffffffffff1661221c613859565b73ffffffffffffffffffffffffffffffffffffffff1614155b1561226c576040517fea8e4eb500000000000000000000000000000000000000000000000000000000815260040160405180910390fd5b60008160040160006101000a81548160ff021916908315150217905550817fa3a26a370d57172f55085c7e74b9e7b54617c9ce09de88a23fb81cce8a831f5e60405160405180910390a25050565b6122c2614b02565b33600b60008273ffffffffffffffffffffffffffffffffffffffff1673ffffffffffffffffffffffffffffffffffffffff16815260200190815260200160002060040160009054906101000a900460ff16612349576040517f2163950f00000000000000000000000000000000000000000000000000000000815260040160405180910390fd5b600073ffffffffffffffffffffffffffffffffffffffff168673ffffffffffffffffffffffffffffffffffffffff16036123af576040517fd92e233d00000000000000000000000000000000000000000000000000000000815260040160405180910390fd5b6000851480156123c25750600084849050145b156123f9576040517f2c5211c600000000000000000000000000000000000000000000000000000000815260040160405180910390fd5b60005a905060003a9050600081836124119190616574565b90506000600b60003373ffffffffffffffffffffffffffffffffffffffff1673ffffffffffffffffffffffffffffffffffffffff16815260200190815260200160002090508181600201541015612494576040517ff4d678b800000000000000000000000000000000000000000000000000000000815260040160405180910390fd5b818160020160008282546124a89190616540565b9250508190555060008a73ffffffffffffffffffffffffffffffffffffffff168a8a8a6040516124d9929190616285565b60006040518083038185875af1925050503d8060008114612516576040519150601f19603f3d011682016040523d82523d6000602084013e61251b565b606091505b5050905080612556576040517fd47c63a800000000000000000000000000000000000000000000000000000000815260040160405180910390fd5b60026000815480929190612569906162cd565b9190505550426001819055503373ffffffffffffffffffffffffffffffffffffffff167f8e47b87b0ef542cdfa1659c551d88bad38aa7f452d2bbb349ab7530dfec8be8f8b6040516125bb919061557e565b60405180910390a25050505050506125d1614b25565b5050505050565b6125e0614e63565b6125e933614ea4565b565b6000601860008373ffffffffffffffffffffffffffffffffffffffff1673ffffffffffffffffffffffffffffffffffffffff16815260200190815260200160002060009054906101000a900473ffffffffffffffffffffffffffffffffffffffff169050919050565b601a6020528060005260406000206000915090505481565b60008060149054906101000a900460ff16905090565b61268a613859565b73ffffffffffffffffffffffffffffffffffffffff163373ffffffffffffffffffffffffffffffffffffffff16141580156126f157503073ffffffffffffffffffffffffffffffffffffffff163373ffffffffffffffffffffffffffffffffffffffff1614155b15612728576040517fea8e4eb500000000000000000000000000000000000000000000000000000000815260040160405180910390fd5b6127788383838080601f016020809104026020016040519081016040528093929190818152602001838380828437600081840152601f19601f820116905080830192505050505050506007614c1c565b505050565b60085481565b6010602052816000526040600020818154811061279f57600080fd5b9060005260206000209060040201600091509150508060000160009054906101000a900473ffffffffffffffffffffffffffffffffffffffff16908060010180546127e990616344565b80601f016020809104026020016040519081016040528092919081815260200182805461281590616344565b80156128625780601f1061283757610100808354040283529160200191612862565b820191906000526020600020905b81548152906001019060200180831161284557829003601f168201915b5050505050908060020154908060030160009054906101000a900460ff16908060030160019054906101000a900460ff16905085565b6128a0614b02565b6128a8614e63565b600081036128e2576040517f2c5211c600000000000000000000000000000000000000000000000000000000815260040160405180910390fd5b6128eb33614ea4565b6000601460003373ffffffffffffffffffffffffffffffffffffffff1673ffffffffffffffffffffffffffffffffffffffff1681526020019081526020016000205490506000810361293c57606490505b6000818361294a91906165e5565b826129559190616540565b90506000818461296591906163b7565b90506129b43330837f000000000000000000000000000000000000000000000000000000000000000073ffffffffffffffffffffffffffffffffffffffff16614dac909392919063ffffffff16565b80600b60003373ffffffffffffffffffffffffffffffffffffffff1673ffffffffffffffffffffffffffffffffffffffff1681526020019081526020016000206000016000828254612a0691906163b7565b9250508190555083600b60003373ffffffffffffffffffffffffffffffffffffffff1673ffffffffffffffffffffffffffffffffffffffff1681526020019081526020016000206002016000828254612a5f91906163b7565b9250508190555081601560003373ffffffffffffffffffffffffffffffffffffffff1673ffffffffffffffffffffffffffffffffffffffff1681526020019081526020016000206000828254612ab591906163b7565b9250508190555042600b60003373ffffffffffffffffffffffffffffffffffffffff1673ffffffffffffffffffffffffffffffffffffffff168152602001908152602001600020600301819055508060036000828254612b1591906163b7565b9250508190555081601560003373ffffffffffffffffffffffffffffffffffffffff1673ffffffffffffffffffffffffffffffffffffffff1681526020019081526020016000206000828254612b6b91906163b7565b9250508190555060026000815480929190612b85906162cd565b91905055503373ffffffffffffffffffffffffffffffffffffffff167f1a96ef469e332471886959f90a71ae924792a05ad7eea4e43a1c29becdf238ed8284604051612bd2929190616616565b60405180910390a2612c1333620f424084612bed919061641a565b604051602001612bfd91906166d7565b6040516020818303038152906040526005614c1c565b505050612c1e614b25565b50565b600a5481565b612c2f614b02565b6000878787878746604051602001612c4c96959493929190616746565b6040516020818303038152906040528051906020012090506013600082815260200190815260200160002060009054906101000a900460ff1615612cbc576040517f92f0f74300000000000000000000000000000000000000000000000000000000815260040160405180910390fd5b601260003373ffffffffffffffffffffffffffffffffffffffff1673ffffffffffffffffffffffffffffffffffffffff168152602001908152602001600020548414612d34576040517f2c5211c600000000000000000000000000000000000000000000000000000000815260040160405180910390fd5b60418383905014612d7a576040517f08c379a0000000000000000000000000000000000000000000000000000000008152600401612d71906167ee565b60405180910390fd5b60016013600083815260200190815260200160002060006101000a81548160ff021916908315150217905550601260003373ffffffffffffffffffffffffffffffffffffffff1673ffffffffffffffffffffffffffffffffffffffff1681526020019081526020016000206000815480929190612df6906162cd565b919050555060008873ffffffffffffffffffffffffffffffffffffffff16888888604051612e25929190616285565b60006040518083038185875af1925050503d8060008114612e62576040519150601f19603f3d011682016040523d82523d6000602084013e612e67565b606091505b5050905080612eab576040517f08c379a0000000000000000000000000000000000000000000000000000000008152600401612ea29061685a565b60405180910390fd5b60026000815480929190612ebe906162cd565b91905055505050612ecd614b25565b50505050505050565b60126020528060005260406000206000915090505481565b60115481565b612efc614b40565b612f0660006150a2565b565b60196020528160005260406000206020528060005260406000206000915091509054906101000a900460ff1681565b6000806000806000600354600454600254600060159054906101000a900460ff16600854945094509450945094509091929394565b6000806000806000806000600d600089815260200190815260200160002090508060000160009054906101000a900473ffffffffffffffffffffffffffffffffffffffff168160010154826002015483600301548460040160009054906101000a900460ff168560040160019054906101000a900460ff169650965096509650965096505091939550919395565b60166020528060005260406000206000915090505481565b7f000000000000000000000000000000000000000000000000000000000000000081565b6000601760008473ffffffffffffffffffffffffffffffffffffffff1673ffffffffffffffffffffffffffffffffffffffff16815260200190815260200160002060008373ffffffffffffffffffffffffffffffffffffffff1673ffffffffffffffffffffffffffffffffffffffff16815260200190815260200160002060009054906101000a900460ff16905092915050565b6130d2614b40565b6130da615166565b565b6130e4614b40565b6130ec614b02565b60007f000000000000000000000000000000000000000000000000000000000000000073ffffffffffffffffffffffffffffffffffffffff166370a08231306040518263ffffffff1660e01b815260040161314791906157ea565b602060405180830381865afa158015613164573d6000803e3d6000fd5b505050506040513d601f19601f82011682018060405250810190613188919061638a565b90506131d533827f000000000000000000000000000000000000000000000000000000000000000073ffffffffffffffffffffffffffffffffffffffff16614bc99092919063ffffffff16565b506131de614b25565b565b60136020528060005260406000206000915054906101000a900460ff1681565b6060601060008373ffffffffffffffffffffffffffffffffffffffff1673ffffffffffffffffffffffffffffffffffffffff168152602001908152602001600020805480602002602001604051908101604052809291908181526020016000905b828210156133db57838290600052602060002090600402016040518060a00160405290816000820160009054906101000a900473ffffffffffffffffffffffffffffffffffffffff1673ffffffffffffffffffffffffffffffffffffffff1673ffffffffffffffffffffffffffffffffffffffff1681526020016001820180546132ea90616344565b80601f016020809104026020016040519081016040528092919081815260200182805461331690616344565b80156133635780601f1061333857610100808354040283529160200191613363565b820191906000526020600020905b81548152906001019060200180831161334657829003601f168201915b50505050508152602001600282015481526020016003820160009054906101000a900460ff161515151581526020016003820160019054906101000a900460ff1660078111156133b6576133b5615b36565b5b60078111156133c8576133c7615b36565b5b8152505081526020019060010190613261565b505050509050919050565b6133ee614b02565b33600b60008273ffffffffffffffffffffffffffffffffffffffff1673ffffffffffffffffffffffffffffffffffffffff16815260200190815260200160002060040160009054906101000a900460ff16613475576040517f2163950f00000000000000000000000000000000000000000000000000000000815260040160405180910390fd5b600073ffffffffffffffffffffffffffffffffffffffff168673ffffffffffffffffffffffffffffffffffffffff16036134db576040517fd92e233d00000000000000000000000000000000000000000000000000000000815260040160405180910390fd5b60008503613515576040517f2c5211c600000000000000000000000000000000000000000000000000000000815260040160405180910390fd5b61351e33614ea4565b600d600088815260200190815260200160002060040160009054906101000a900460ff1615613579576040517f92f0f74300000000000000000000000000000000000000000000000000000000815260040160405180910390fd5b6040518061010001604052808773ffffffffffffffffffffffffffffffffffffffff16815260200186815260200185815260200185426135b991906163b7565b81526020016001151581526020016000151581526020013373ffffffffffffffffffffffffffffffffffffffff16815260200184848080601f016020809104026020016040519081016040528093929190818152602001838380828437600081840152601f19601f82011690508083019250505050505050815250600d600089815260200190815260200160002060008201518160000160006101000a81548173ffffffffffffffffffffffffffffffffffffffff021916908373ffffffffffffffffffffffffffffffffffffffff16021790555060208201518160010155604082015181600201556060820151816003015560808201518160040160006101000a81548160ff02191690831515021790555060a08201518160040160016101000a81548160ff02191690831515021790555060c08201518160040160026101000a81548173ffffffffffffffffffffffffffffffffffffffff021916908373ffffffffffffffffffffffffffffffffffffffff16021790555060e08201518160050190816137489190616a4b565b50905050600e60003373ffffffffffffffffffffffffffffffffffffffff1673ffffffffffffffffffffffffffffffffffffffff168152602001908152602001600020879080600181540180825580915050600190039060005260206000200160009091909190915055600260008154809291906137c5906162cd565b91905055503373ffffffffffffffffffffffffffffffffffffffff16877fd2b003dbe8b14127f0c5c5f822e96979f1d2e42da05e459d97a23a5f35cea6578787604051613813929190616616565b60405180910390a3613848338484604051602001613832929190616b8e565b6040516020818303038152906040526002614c1c565b50613851614b25565b505050505050565b60008060009054906101000a900473ffffffffffffffffffffffffffffffffffffffff16905090565b60176020528160005260406000206020528060005260406000206000915091509054906101000a900460ff1681565b60035481565b6138bf614b40565b6138ea33828473ffffffffffffffffffffffffffffffffffffffff16614bc99092919063ffffffff16565b5050565b600d6020528060005260406000206000915090508060000160009054906101000a900473ffffffffffffffffffffffffffffffffffffffff16908060010154908060020154908060030154908060040160009054906101000a900460ff16908060040160019054906101000a900460ff16908060040160029054906101000a900473ffffffffffffffffffffffffffffffffffffffff169080600501805461399590616344565b80601f01602080910402602001604051908101604052809291908181526020018280546139c190616344565b8015613a0e5780601f106139e357610100808354040283529160200191613a0e565b820191906000526020600020905b8154815290600101906020018083116139f157829003601f168201915b5050505050905088565b613a20614b02565b613a28614e63565b60008103613a62576040517f2c5211c600000000000000000000000000000000000000000000000000000000815260040160405180910390fd5b613a6b33614ea4565b613ab83330837f000000000000000000000000000000000000000000000000000000000000000073ffffffffffffffffffffffffffffffffffffffff16614dac909392919063ffffffff16565b80600b60003373ffffffffffffffffffffffffffffffffffffffff1673ffffffffffffffffffffffffffffffffffffffff1681526020019081526020016000206000016000828254613b0a91906163b7565b9250508190555080600b60003373ffffffffffffffffffffffffffffffffffffffff1673ffffffffffffffffffffffffffffffffffffffff1681526020019081526020016000206002016000828254613b6391906163b7565b9250508190555042600b60003373ffffffffffffffffffffffffffffffffffffffff1673ffffffffffffffffffffffffffffffffffffffff168152602001908152602001600020600301819055508060036000828254613bc391906163b7565b9250508190555060026000815480929190613bdd906162cd565b919050555042600181905550600a601660003373ffffffffffffffffffffffffffffffffffffffff1673ffffffffffffffffffffffffffffffffffffffff1681526020019081526020016000206000828254613c3991906163b7565b925050819055503373ffffffffffffffffffffffffffffffffffffffff167f1a96ef469e332471886959f90a71ae924792a05ad7eea4e43a1c29becdf238ed826000604051613c89929190616bed565b60405180910390a2613cca33620f424083613ca4919061641a565b604051602001613cb49190616cae565b6040516020818303038152906040526000614c1c565b613cd2614b25565b50565b600080601060008473ffffffffffffffffffffffffffffffffffffffff1673ffffffffffffffffffffffffffffffffffffffff168152602001908152602001600020905060005b8180549050811015613d8057818181548110613d3b57613d3a6165b6565b5b906000526020600020906004020160030160009054906101000a900460ff16613d6d578280613d69906162cd565b9350505b8080613d78906162cd565b915050613d1c565b5050919050565b600f6020528060005260406000206000915090505481565b600960009054906101000a900473ffffffffffffffffffffffffffffffffffffffff1681565b613dcd614b40565b80600060156101000a81548160ff0219169083151502179055507f687ce7b139cce234264c502946572c2ca5e8d078fb2fe51029287d78918bd3b981604051613e1691906156f3565b60405180910390a150565b613e29614b02565b33600b60008273ffffffffffffffffffffffffffffffffffffffff1673ffffffffffffffffffffffffffffffffffffffff16815260200190815260200160002060040160009054906101000a900460ff16613eb0576040517f2163950f00000000000000000000000000000000000000000000000000000000815260040160405180910390fd5b600960149054906101000a900460ff161580613f1a5750600073ffffffffffffffffffffffffffffffffffffffff16600960009054906101000a900473ffffffffffffffffffffffffffffffffffffffff1673ffffffffffffffffffffffffffffffffffffffff16145b15613f51576040517f486fcee200000000000000000000000000000000000000000000000000000000815260040160405180910390fd5b613fc033600960009054906101000a900473ffffffffffffffffffffffffffffffffffffffff16847f000000000000000000000000000000000000000000000000000000000000000073ffffffffffffffffffffffffffffffffffffffff16614dac909392919063ffffffff16565b600082905080600b60003373ffffffffffffffffffffffffffffffffffffffff1673ffffffffffffffffffffffffffffffffffffffff168152602001908152602001600020600501600082825461401791906163b7565b9250508190555060026000815480929190614031906162cd565b91905055505050614040614b25565b50565b60146020528060005260406000206000915090505481565b60156020528060005260406000206000915090505481565b600060608060008060006005546006600760085430601f84805461409690616344565b80601f01602080910402602001604051908101604052809291908181526020018280546140c290616344565b801561410f5780601f106140e45761010080835404028352916020019161410f565b820191906000526020600020905b8154815290600101906020018083116140f257829003601f168201915b5050505050945083805461412290616344565b80601f016020809104026020016040519081016040528092919081815260200182805461414e90616344565b801561419b5780601f106141705761010080835404028352916020019161419b565b820191906000526020600020905b81548152906001019060200180831161417e57829003601f168201915b50505050509350955095509550955095509550909192939495565b600960149054906101000a900460ff1681565b600b6020528060005260406000206000915090508060000154908060010154908060020154908060030154908060040160009054906101000a900460ff16908060050154905086565b6000601560008373ffffffffffffffffffffffffffffffffffffffff1673ffffffffffffffffffffffffffffffffffffffff168152602001908152602001600020549050919050565b614263614b02565b33600b60008273ffffffffffffffffffffffffffffffffffffffff1673ffffffffffffffffffffffffffffffffffffffff16815260200190815260200160002060040160009054906101000a900460ff166142ea576040517f2163950f00000000000000000000000000000000000000000000000000000000815260040160405180910390fd5b60008203614324576040517f2c5211c600000000000000000000000000000000000000000000000000000000815260040160405180910390fd5b600b60003373ffffffffffffffffffffffffffffffffffffffff1673ffffffffffffffffffffffffffffffffffffffff168152602001908152602001600020600201548211156143a0576040517ff4d678b800000000000000000000000000000000000000000000000000000000815260040160405180910390fd5b81600b60003373ffffffffffffffffffffffffffffffffffffffff1673ffffffffffffffffffffffffffffffffffffffff16815260200190815260200160002060020160008282546143f29190616540565b9250508190555081600b60003373ffffffffffffffffffffffffffffffffffffffff1673ffffffffffffffffffffffffffffffffffffffff168152602001908152602001600020600101600082825461444b91906163b7565b9250508190555081600360008282546144649190616540565b925050819055506144b633837f000000000000000000000000000000000000000000000000000000000000000073ffffffffffffffffffffffffffffffffffffffff16614bc99092919063ffffffff16565b600260008154809291906144c9906162cd565b91905055503373ffffffffffffffffffffffffffffffffffffffff167f94b83bc1ebe4ddd04e2faa0e9f2883abf856cea4923e56a6ec7c8c40fb2b02ba83604051614514919061557e565b60405180910390a261455533620f42408461452f919061641a565b60405160200161453f9190616d2b565b6040516020818303038152906040526001614c1c565b5061455e614b25565b50565b60055481565b60015481565b600060159054906101000a900460ff166145b3576040517f486fcee200000000000000000000000000000000000000000000000000000000815260040160405180910390fd5b60006145bd6151c9565b905060005b81518110156146b7576000600d60008484815181106145e4576145e36165b6565b5b6020026020010151815260200190815260200160002090508060040160009054906101000a900460ff16801561461e575080600301544210155b156146a3573073ffffffffffffffffffffffffffffffffffffffff166315ee90d6848481518110614652576146516165b6565b5b60200260200101516040518263ffffffff1660e01b81526004016146769190615767565b600060405180830381600087803b15801561469057600080fd5b505af19250505080156146a1575060015b505b5080806146af906162cd565b9150506145c2565b5050565b6146c3614b40565b600073ffffffffffffffffffffffffffffffffffffffff168173ffffffffffffffffffffffffffffffffffffffff16036147355760006040517f1e4fbdf700000000000000000000000000000000000000000000000000000000815260040161472c91906157ea565b60405180910390fd5b61473e816150a2565b50565b7f000000000000000000000000000000000000000000000000000000000000000081565b600080600080600080600b60008873ffffffffffffffffffffffffffffffffffffffff1673ffffffffffffffffffffffffffffffffffffffff168152602001908152602001600020905080600001548160010154826002015483600301548460040160009054906101000a900460ff16955095509550955095505091939590929450565b3373ffffffffffffffffffffffffffffffffffffffff16601860003373ffffffffffffffffffffffffffffffffffffffff1673ffffffffffffffffffffffffffffffffffffffff16815260200190815260200160002060009054906101000a900473ffffffffffffffffffffffffffffffffffffffff1673ffffffffffffffffffffffffffffffffffffffff161415801561490f57503273ffffffffffffffffffffffffffffffffffffffff16601860003373ffffffffffffffffffffffffffffffffffffffff1673ffffffffffffffffffffffffffffffffffffffff16815260200190815260200160002060009054906101000a900473ffffffffffffffffffffffffffffffffffffffff1673ffffffffffffffffffffffffffffffffffffffff1614155b15614946576040517fea8e4eb500000000000000000000000000000000000000000000000000000000815260040160405180910390fd5b6019600082815260200190815260200160002060003373ffffffffffffffffffffffffffffffffffffffff1673ffffffffffffffffffffffffffffffffffffffff16815260200190815260200160002060009054906101000a900460ff16156149db576040517f3a81d6fc00000000000000000000000000000000000000000000000000000000815260040160405180910390fd5b60016019600083815260200190815260200160002060003373ffffffffffffffffffffffffffffffffffffffff1673ffffffffffffffffffffffffffffffffffffffff16815260200190815260200160002060006101000a81548160ff021916908315150217905550601a60008281526020019081526020016000206000815480929190614a68906162cd565b91905055506002601a60008381526020019081526020016000205410614ab657807f3da09c4d24250db0a19037e4d4ce843f7eeb9c9a680ce291df8845062310e78860405160405180910390a25b50565b6000601660008373ffffffffffffffffffffffffffffffffffffffff1673ffffffffffffffffffffffffffffffffffffffff168152602001908152602001600020549050919050565b614b0a615223565b6002614b1c614b17615264565b61528f565b60000181905550565b6001614b37614b32615264565b61528f565b60000181905550565b614b48615299565b73ffffffffffffffffffffffffffffffffffffffff16614b66613859565b73ffffffffffffffffffffffffffffffffffffffff1614614bc557614b89615299565b6040517f118cdaa7000000000000000000000000000000000000000000000000000000008152600401614bbc91906157ea565b60405180910390fd5b565b565b614bd683838360016152a1565b614c1757826040517f5274afe7000000000000000000000000000000000000000000000000000000008152600401614c0e91906157ea565b60405180910390fd5b505050565b601060008473ffffffffffffffffffffffffffffffffffffffff1673ffffffffffffffffffffffffffffffffffffffff1681526020019081526020016000206040518060a001604052808573ffffffffffffffffffffffffffffffffffffffff168152602001848152602001428152602001600015158152602001836007811115614caa57614ca9615b36565b5b815250908060018154018082558091505060019003906000526020600020906004020160009091909190915060008201518160000160006101000a81548173ffffffffffffffffffffffffffffffffffffffff021916908373ffffffffffffffffffffffffffffffffffffffff1602179055506020820151816001019081614d329190616a4b565b506040820151816002015560608201518160030160006101000a81548160ff02191690831515021790555060808201518160030160016101000a81548160ff02191690836007811115614d8857614d87615b36565b5b0217905550505060116000815480929190614da2906162cd565b9190505550505050565b614dba84848484600161530b565b614dfb57836040517f5274afe7000000000000000000000000000000000000000000000000000000008152600401614df291906157ea565b60405180910390fd5b50505050565b614e09615386565b60008060146101000a81548160ff0219169083151502179055507f5db9ee0a495bf2e6ff9c91a7834c1ba4fdd244a5e8aa4e537bd38aeae4b073aa614e4c615299565b604051614e5991906157ea565b60405180910390a1565b614e6b61266c565b15614ea2576040517fd93c066500000000000000000000000000000000000000000000000000000000815260040160405180910390fd5b565b600b60008273ffffffffffffffffffffffffffffffffffffffff1673ffffffffffffffffffffffffffffffffffffffff16815260200190815260200160002060040160009054906101000a900460ff1661509f576001600b60008373ffffffffffffffffffffffffffffffffffffffff1673ffffffffffffffffffffffffffffffffffffffff16815260200190815260200160002060040160006101000a81548160ff02191690831515021790555042600b60008373ffffffffffffffffffffffffffffffffffffffff1673ffffffffffffffffffffffffffffffffffffffff168152602001908152602001600020600301819055506064601460008373ffffffffffffffffffffffffffffffffffffffff1673ffffffffffffffffffffffffffffffffffffffff168152602001908152602001600020819055506001600c60008373ffffffffffffffffffffffffffffffffffffffff1673ffffffffffffffffffffffffffffffffffffffff16815260200190815260200160002060006101000a81548160ff0219169083151502179055508073ffffffffffffffffffffffffffffffffffffffff167f54db7a5cb4735e1aac1f53db512d3390390bb6637bd30ad4bf9fc98667d9b9b960405160405180910390a261509e816040518060600160405280603e8152602001616d5d603e91396006614c1c565b5b50565b60008060009054906101000a900473ffffffffffffffffffffffffffffffffffffffff169050816000806101000a81548173ffffffffffffffffffffffffffffffffffffffff021916908373ffffffffffffffffffffffffffffffffffffffff1602179055508173ffffffffffffffffffffffffffffffffffffffff168173ffffffffffffffffffffffffffffffffffffffff167f8be0079c531659141344cd1fd0a4f28419497f9722a3daafe3b4186f6b6457e060405160405180910390a35050565b61516e614e63565b6001600060146101000a81548160ff0219169083151502179055507f62e78cea01bee320cd4e420270b5ea74000d11b0c9f74754ebdbfc544b05a2586151b2615299565b6040516151bf91906157ea565b60405180910390a1565b60606000600a67ffffffffffffffff8111156151e8576151e761687a565b5b6040519080825280602002602001820160405280156152165781602001602082028036833780820191505090505b5090506000819250505090565b61522b6153c6565b15615262576040517f3ee5aeb500000000000000000000000000000000000000000000000000000000815260040160405180910390fd5b565b60007f9b779b17422d0df92223018b32b4d1fa46e071723d6817e2486d003becc55f0060001b905090565b6000819050919050565b600033905090565b60008063a9059cbb60e01b90506040518160005260001960601c8616600452846024526020600060446000808b5af1925060016000511483166152fd5783831516156152f0573d6000823e3d81fd5b6000873b113d1516831692505b806040525050949350505050565b6000806323b872dd60e01b90506040518160005260001960601c871660045260001960601c8616602452846044526020600060646000808c5af192506001600051148316615372578383151615615365573d6000823e3d81fd5b6000883b113d1516831692505b806040526000606052505095945050505050565b61538e61266c565b6153c4576040517f8dfc202b00000000000000000000000000000000000000000000000000000000815260040160405180910390fd5b565b600060026153da6153d5615264565b61528f565b6000015414905090565b600080fd5b600080fd5b600073ffffffffffffffffffffffffffffffffffffffff82169050919050565b6000615419826153ee565b9050919050565b6154298161540e565b811461543457600080fd5b50565b60008135905061544681615420565b92915050565b6000819050919050565b61545f8161544c565b811461546a57600080fd5b50565b60008135905061547c81615456565b92915050565b600080fd5b600080fd5b600080fd5b60008083601f8401126154a7576154a6615482565b5b8235905067ffffffffffffffff8111156154c4576154c3615487565b5b6020830191508360018202830111156154e0576154df61548c565b5b9250929050565b600080600080600060808688031215615503576155026153e4565b5b600061551188828901615437565b95505060206155228882890161546d565b945050604086013567ffffffffffffffff811115615543576155426153e9565b5b61554f88828901615491565b9350935050606061556288828901615437565b9150509295509295909350565b6155788161544c565b82525050565b6000602082019050615593600083018461556f565b92915050565b600081519050919050565b600082825260208201905092915050565b60005b838110156155d35780820151818401526020810190506155b8565b60008484015250505050565b6000601f19601f8301169050919050565b60006155fb82615599565b61560581856155a4565b93506156158185602086016155b5565b61561e816155df565b840191505092915050565b6000602082019050818103600083015261564381846155f0565b905092915050565b600060208284031215615661576156606153e4565b5b600061566f84828501615437565b91505092915050565b600080600060408486031215615691576156906153e4565b5b600061569f86828701615437565b935050602084013567ffffffffffffffff8111156156c0576156bf6153e9565b5b6156cc86828701615491565b92509250509250925092565b60008115159050919050565b6156ed816156d8565b82525050565b600060208201905061570860008301846156e4565b92915050565b60008060408385031215615725576157246153e4565b5b600061573385828601615437565b92505060206157448582860161546d565b9150509250929050565b6000819050919050565b6157618161574e565b82525050565b600060208201905061577c6000830184615758565b92915050565b61578b8161574e565b811461579657600080fd5b50565b6000813590506157a881615782565b92915050565b6000602082840312156157c4576157c36153e4565b5b60006157d284828501615799565b91505092915050565b6157e48161540e565b82525050565b60006020820190506157ff60008301846157db565b92915050565b6000819050919050565b600061582a615825615820846153ee565b615805565b6153ee565b9050919050565b600061583c8261580f565b9050919050565b600061584e82615831565b9050919050565b61585e81615843565b82525050565b60006020820190506158796000830184615855565b92915050565b615888816156d8565b811461589357600080fd5b50565b6000813590506158a58161587f565b92915050565b600080604083850312156158c2576158c16153e4565b5b60006158d085828601615437565b92505060206158e185828601615896565b9150509250929050565b600060208284031215615901576159006153e4565b5b600061590f8482850161546d565b91505092915050565b600081519050919050565b600082825260208201905092915050565b6000819050602082019050919050565b61594d8161574e565b82525050565b600061595f8383615944565b60208301905092915050565b6000602082019050919050565b600061598382615918565b61598d8185615923565b935061599883615934565b8060005b838110156159c95781516159b08882615953565b97506159bb8361596b565b92505060018101905061599c565b5085935050505092915050565b600060208201905081810360008301526159f08184615978565b905092915050565b600080600080600060808688031215615a1457615a136153e4565b5b6000615a2288828901615437565b9550506020615a338882890161546d565b945050604086013567ffffffffffffffff811115615a5457615a536153e9565b5b615a6088828901615491565b93509350506060615a738882890161546d565b9150509295509295909350565b60008083601f840112615a9657615a95615482565b5b8235905067ffffffffffffffff811115615ab357615ab2615487565b5b602083019150836001820283011115615acf57615ace61548c565b5b9250929050565b600080600060408486031215615aef57615aee6153e4565b5b6000615afd86828701615437565b935050602084013567ffffffffffffffff811115615b1e57615b1d6153e9565b5b615b2a86828701615a80565b92509250509250925092565b7f4e487b7100000000000000000000000000000000000000000000000000000000600052602160045260246000fd5b60088110615b7657615b75615b36565b5b50565b6000819050615b8782615b65565b919050565b6000615b9782615b79565b9050919050565b615ba781615b8c565b82525050565b600060a082019050615bc260008301886157db565b8181036020830152615bd481876155f0565b9050615be3604083018661556f565b615bf060608301856156e4565b615bfd6080830184615b9e565b9695505050505050565b600080600080600080600060a0888a031215615c2657615c256153e4565b5b6000615c348a828b01615437565b9750506020615c458a828b0161546d565b965050604088013567ffffffffffffffff811115615c6657615c656153e9565b5b615c728a828b01615491565b95509550506060615c858a828b0161546d565b935050608088013567ffffffffffffffff811115615ca657615ca56153e9565b5b615cb28a828b01615491565b925092505092959891949750929550565b60008060408385031215615cda57615cd96153e4565b5b6000615ce885828601615799565b9250506020615cf985828601615437565b9150509250929050565b600060a082019050615d18600083018861556f565b615d25602083018761556f565b615d32604083018661556f565b615d3f60608301856156e4565b615d4c608083018461556f565b9695505050505050565b600060c082019050615d6b60008301896157db565b615d78602083018861556f565b615d85604083018761556f565b615d92606083018661556f565b615d9f60808301856156e4565b615dac60a08301846156e4565b979650505050505050565b60008060408385031215615dce57615dcd6153e4565b5b6000615ddc85828601615437565b9250506020615ded85828601615437565b9150509250929050565b600081519050919050565b600082825260208201905092915050565b6000819050602082019050919050565b615e2c8161540e565b82525050565b600082825260208201905092915050565b6000615e4e82615599565b615e588185615e32565b9350615e688185602086016155b5565b615e71816155df565b840191505092915050565b615e858161544c565b82525050565b615e94816156d8565b82525050565b615ea381615b8c565b82525050565b600060a083016000830151615ec16000860182615e23565b5060208301518482036020860152615ed98282615e43565b9150506040830151615eee6040860182615e7c565b506060830151615f016060860182615e8b565b506080830151615f146080860182615e9a565b508091505092915050565b6000615f2b8383615ea9565b905092915050565b6000602082019050919050565b6000615f4b82615df7565b615f558185615e02565b935083602082028501615f6785615e13565b8060005b85811015615fa35784840389528151615f848582615f1f565b9450615f8f83615f33565b925060208a01995050600181019050615f6b565b50829750879550505050505092915050565b60006020820190508181036000830152615fcf8184615f40565b905092915050565b60008060008060008060a08789031215615ff457615ff36153e4565b5b600061600289828a01615799565b965050602061601389828a01615437565b955050604061602489828a0161546d565b945050606061603589828a0161546d565b935050608087013567ffffffffffffffff811115616056576160556153e9565b5b61606289828a01615a80565b92509250509295509295509295565b600061010082019050616087600083018b6157db565b616094602083018a61556f565b6160a1604083018961556f565b6160ae606083018861556f565b6160bb60808301876156e4565b6160c860a08301866156e4565b6160d560c08301856157db565b81810360e08301526160e781846155f0565b90509998505050505050505050565b60006020828403121561610c5761610b6153e4565b5b600061611a84828501615896565b91505092915050565b600060c0820190506161386000830189615758565b818103602083015261614a81886155f0565b9050818103604083015261615e81876155f0565b905061616d606083018661556f565b61617a60808301856157db565b61618760a083018461556f565b979650505050505050565b600060c0820190506161a7600083018961556f565b6161b4602083018861556f565b6161c1604083018761556f565b6161ce606083018661556f565b6161db60808301856156e4565b6161e860a083018461556f565b979650505050505050565b600060a082019050616208600083018861556f565b616215602083018761556f565b616222604083018661556f565b61622f606083018561556f565b61623c60808301846156e4565b9695505050505050565b600081905092915050565b82818337600083830152505050565b600061626c8385616246565b9350616279838584616251565b82840190509392505050565b6000616292828486616260565b91508190509392505050565b7f4e487b7100000000000000000000000000000000000000000000000000000000600052601160045260246000fd5b60006162d88261544c565b91507fffffffffffffffffffffffffffffffffffffffffffffffffffffffffffffffff820361630a5761630961629e565b5b600182019050919050565b7f4e487b7100000000000000000000000000000000000000000000000000000000600052602260045260246000fd5b6000600282049050600182168061635c57607f821691505b60208210810361636f5761636e616315565b5b50919050565b60008151905061638481615456565b92915050565b6000602082840312156163a05761639f6153e4565b5b60006163ae84828501616375565b91505092915050565b60006163c28261544c565b91506163cd8361544c565b92508282019050808211156163e5576163e461629e565b5b92915050565b7f4e487b7100000000000000000000000000000000000000000000000000000000600052601260045260246000fd5b60006164258261544c565b91506164308361544c565b9250826164405761643f6163eb565b5b828204905092915050565b600081905092915050565b7f42696c6c20706169643a20000000000000000000000000000000000000000000600082015250565b600061648c600b8361644b565b915061649782616456565b600b82019050919050565b6000819050919050565b6164bd6164b88261544c565b6164a2565b82525050565b7f20635553442073656e7400000000000000000000000000000000000000000000600082015250565b60006164f9600a8361644b565b9150616504826164c3565b600a82019050919050565b600061651a8261647f565b915061652682846164ac565b602082019150616535826164ec565b915081905092915050565b600061654b8261544c565b91506165568361544c565b925082820390508181111561656e5761656d61629e565b5b92915050565b600061657f8261544c565b915061658a8361544c565b92508282026165988161544c565b915082820484148315176165af576165ae61629e565b5b5092915050565b7f4e487b7100000000000000000000000000000000000000000000000000000000600052603260045260246000fd5b60006165f08261544c565b91506165fb8361544c565b92508261660b5761660a6163eb565b5b828206905092915050565b600060408201905061662b600083018561556f565b616638602083018461556f565b9392505050565b7f526f756e642d75703a2073617665642000000000000000000000000000000000600082015250565b600061667560108361644b565b91506166808261663f565b601082019050919050565b7f2063555344206578747261000000000000000000000000000000000000000000600082015250565b60006166c1600b8361644b565b91506166cc8261668b565b600b82019050919050565b60006166e282616668565b91506166ee82846164ac565b6020820191506166fd826166b4565b915081905092915050565b600082825260208201905092915050565b60006167258385616708565b9350616732838584616251565b61673b836155df565b840190509392505050565b600060a08201905061675b60008301896157db565b616768602083018861556f565b818103604083015261677b818688616719565b905061678a606083018561556f565b616797608083018461556f565b979650505050505050565b7f496e76616c6964207369676e6174757265000000000000000000000000000000600082015250565b60006167d86011836155a4565b91506167e3826167a2565b602082019050919050565b60006020820190508181036000830152616807816167cb565b9050919050565b7f5472616e73616374696f6e206661696c65640000000000000000000000000000600082015250565b60006168446012836155a4565b915061684f8261680e565b602082019050919050565b6000602082019050818103600083015261687381616837565b9050919050565b7f4e487b7100000000000000000000000000000000000000000000000000000000600052604160045260246000fd5b60008190508160005260206000209050919050565b60006020601f8301049050919050565b600082821b905092915050565b60006008830261690b7fffffffffffffffffffffffffffffffffffffffffffffffffffffffffffffffff826168ce565b61691586836168ce565b95508019841693508086168417925050509392505050565b600061694861694361693e8461544c565b615805565b61544c565b9050919050565b6000819050919050565b6169628361692d565b61697661696e8261694f565b8484546168db565b825550505050565b600090565b61698b61697e565b616996818484616959565b505050565b5b818110156169ba576169af600082616983565b60018101905061699c565b5050565b601f8211156169ff576169d0816168a9565b6169d9846168be565b810160208510156169e8578190505b6169fc6169f4856168be565b83018261699b565b50505b505050565b600082821c905092915050565b6000616a2260001984600802616a04565b1980831691505092915050565b6000616a3b8383616a11565b9150826002028217905092915050565b616a5482615599565b67ffffffffffffffff811115616a6d57616a6c61687a565b5b616a778254616344565b616a828282856169be565b600060209050601f831160018114616ab55760008415616aa3578287015190505b616aad8582616a2f565b865550616b15565b601f198416616ac3866168a9565b60005b82811015616aeb57848901518255600182019150602085019450602081019050616ac6565b86831015616b085784890151616b04601f891682616a11565b8355505b6001600288020188555050505b505050505050565b7f42696c6c20637265617465643a20000000000000000000000000000000000000600082015250565b6000616b53600e8361644b565b9150616b5e82616b1d565b600e82019050919050565b6000616b75838561644b565b9350616b82838584616251565b82840190509392505050565b6000616b9982616b46565b9150616ba6828486616b69565b91508190509392505050565b6000819050919050565b6000616bd7616bd2616bcd84616bb2565b615805565b61544c565b9050919050565b616be781616bbc565b82525050565b6000604082019050616c02600083018561556f565b616c0f6020830184616bde565b9392505050565b7f4465706f73697465642000000000000000000000000000000000000000000000600082015250565b6000616c4c600a8361644b565b9150616c5782616c16565b600a82019050919050565b7f2063555344000000000000000000000000000000000000000000000000000000600082015250565b6000616c9860058361644b565b9150616ca382616c62565b600582019050919050565b6000616cb982616c3f565b9150616cc582846164ac565b602082019150616cd482616c8b565b915081905092915050565b7f5769746864726577200000000000000000000000000000000000000000000000600082015250565b6000616d1560098361644b565b9150616d2082616cdf565b600982019050919050565b6000616d3682616d08565b9150616d4282846164ac565b602082019150616d5182616c8b565b91508190509291505056fe57656c636f6d6520746f204175746f506f636b65742120596f7572206175746f6e6f6d6f757320736176696e6773206167656e742069732072656164792ea264697066735822122068ee5fa4528e2e269524102324a6826255225cfc257ac6853cc4dc8a5c224a2c64736f6c63430008140033",
  "linkReferences": {},
  "deployedLinkReferences": {}
}