{
  "_format": "hh-sol-artifact-1",
  "contractName": "AutoPocketAgentV2",
  "sourceName": "contracts/AutoPocketAgentV2.sol",
  "abi": [
    {
      "inputs": [],
      "stateMutability": "nonpayable",
      "type": "constructor"
    },
    {
      "inputs": [],
      "name": "AgentNotActive",
      "type": "error"
    },
    {
      "inputs": [],
      "name": "AlreadyRegistered",
      "type": "error"
    },
    {
      "inputs": [],
      "name": "BillAlreadyExists",
      "type": "error"
    },
    {
      "inputs": [],
      "name": "BillNotFound",
      "type": "error"
    },
    {
      "inputs": [],
      "name": "EnforcedPause",
      "type": "error"
    },
    {
      "inputs": [],
      "name": "ExpectedPause",
      "type": "error"
    },
    {
      "inputs": [],
      "name": "InsufficientBalance",
      "type": "error"
    },
    {
      "inputs": [],
      "name": "InvalidAmount",
      "type": "error"
    },
    {
      "inputs": [],
      "name": "InvalidRecipient",
      "type": "error"
    },
    {
      "inputs": [],
      "name": "NotAuthorized",
      "type": "error"
    },
    {
      "inputs": [
        {
          "internalType": "address",
          "name": "owner",
          "type": "address"
        }
      ],
      "name": "OwnableInvalidOwner",
      "type": "error"
    },
    {
      "inputs": [
        {
          "internalType": "address",
          "name": "account",
          "type": "address"
        }
      ],
      "name": "OwnableUnauthorizedAccount",
      "type": "error"
    },
    {
      "inputs": [],
      "name": "PaymentNotDue",
      "type": "error"
    },
    {
      "inputs": [],
      "name": "ReentrancyGuardReentrantCall",
      "type": "error"
    },
    {
      "inputs": [
        {
          "internalType": "address",
          "name": "token",
          "type": "address"
        }
      ],
      "name": "SafeERC20FailedOperation",
      "type": "error"
    },
    {
      "inputs": [],
      "name": "UserNotRegistered",
      "type": "error"
    },
    {
      "inputs": [],
      "name": "YieldTransferFailed",
      "type": "error"
    },
    {
      "inputs": [],
      "name": "ZeroAddress",
      "type": "error"
    },
    {
      "anonymous": false,
      "inputs": [
        {
          "indexed": false,
          "internalType": "bool",
          "name": "active",
          "type": "bool"
        }
      ],
      "name": "AgentActivated",
      "type": "event"
    },
    {
      "anonymous": false,
      "inputs": [
        {
          "indexed": true,
          "internalType": "bytes32",
          "name": "agentId",
          "type": "bytes32"
        },
        {
          "indexed": false,
          "internalType": "string",
          "name": "name",
          "type": "string"
        },
        {
          "indexed": false,
          "internalType": "string",
          "name": "version",
          "type": "string"
        }
      ],
      "name": "AgentInitialized",
      "type": "event"
    },
    {
      "anonymous": false,
      "inputs": [
        {
          "indexed": true,
          "internalType": "bytes32",
          "name": "billId",
          "type": "bytes32"
        }
      ],
      "name": "BillCancelled",
      "type": "event"
    },
    {
      "anonymous": false,
      "inputs": [
        {
          "indexed": true,
          "internalType": "bytes32",
          "name": "billId",
          "type": "bytes32"
        },
        {
          "indexed": true,
          "internalType": "address",
          "name": "user",
          "type": "address"
        },
        {
          "indexed": false,
          "internalType": "uint256",
          "name": "amount",
          "type": "uint256"
        },
        {
          "indexed": false,
          "internalType": "uint256",
          "name": "frequency",
          "type": "uint256"
        }
      ],
      "name": "BillCreated",
      "type": "event"
    },
    {
      "anonymous": false,
      "inputs": [
        {
          "indexed": true,
          "internalType": "bytes32",
          "name": "billId",
          "type": "bytes32"
        },
        {
          "indexed": true,
          "internalType": "address",
          "name": "user",
          "type": "address"
        },
        {
          "indexed": false,
          "internalType": "uint256",
          "name": "amount",
          "type": "uint256"
        }
      ],
      "name": "BillExecuted",
      "type": "event"
    },
    {
      "anonymous": false,
      "inputs": [
        {
          "indexed": true,
          "internalType": "address",
          "name": "from",
          "type": "address"
        },
        {
          "indexed": false,
          "internalType": "uint256",
          "name": "amount",
          "type": "uint256"
        }
      ],
      "name": "FundsReceived",
      "type": "event"
    },
    {
      "anonymous": false,
      "inputs": [
        {
          "indexed": true,
          "internalType": "address",
          "name": "user",
          "type": "address"
        },
        {
          "indexed": false,
          "internalType": "string",
          "name": "message",
          "type": "string"
        },
        {
          "indexed": false,
          "internalType": "uint256",
          "name": "timestamp",
          "type": "uint256"
        }
      ],
      "name": "NotificationSent",
      "type": "event"
    },
    {
      "anonymous": false,
      "inputs": [
        {
          "indexed": true,
          "internalType": "address",
          "name": "previousOwner",
          "type": "address"
        },
        {
          "indexed": true,
          "internalType": "address",
          "name": "newOwner",
          "type": "address"
        }
      ],
      "name": "OwnershipTransferred",
      "type": "event"
    },
    {
      "anonymous": false,
      "inputs": [
        {
          "indexed": false,
          "internalType": "address",
          "name": "account",
          "type": "address"
        }
      ],
      "name": "Paused",
      "type": "event"
    },
    {
      "anonymous": false,
      "inputs": [
        {
          "indexed": true,
          "internalType": "address",
          "name": "user",
          "type": "address"
        },
        {
          "indexed": false,
          "internalType": "uint256",
          "name": "amount",
          "type": "uint256"
        }
      ],
      "name": "RewardsClaimed",
      "type": "event"
    },
    {
      "anonymous": false,
      "inputs": [
        {
          "indexed": true,
          "internalType": "address",
          "name": "user",
          "type": "address"
        },
        {
          "indexed": false,
          "internalType": "uint256",
          "name": "amount",
          "type": "uint256"
        },
        {
          "indexed": false,
          "internalType": "uint256",
          "name": "roundUp",
          "type": "uint256"
        }
      ],
      "name": "SavingsDeposited",
      "type": "event"
    },
    {
      "anonymous": false,
      "inputs": [
        {
          "indexed": true,
          "internalType": "address",
          "name": "user",
          "type": "address"
        },
        {
          "indexed": false,
          "internalType": "uint256",
          "name": "amount",
          "type": "uint256"
        }
      ],
      "name": "SavingsWithdrawn",
      "type": "event"
    },
    {
      "anonymous": false,
      "inputs": [
        {
          "indexed": false,
          "internalType": "address",
          "name": "account",
          "type": "address"
        }
      ],
      "name": "Unpaused",
      "type": "event"
    },
    {
      "anonymous": false,
      "inputs": [
        {
          "indexed": true,
          "internalType": "address",
          "name": "user",
          "type": "address"
        }
      ],
      "name": "UserRegistered",
      "type": "event"
    },
    {
      "inputs": [],
      "name": "CELO",
      "outputs": [
        {
          "internalType": "contract IERC20",
          "name": "",
          "type": "address"
        }
      ],
      "stateMutability": "view",
      "type": "function"
    },
    {
      "inputs": [],
      "name": "POINTS_PER_DEPOSIT",
      "outputs": [
        {
          "internalType": "uint256",
          "name": "",
          "type": "uint256"
        }
      ],
      "stateMutability": "view",
      "type": "function"
    },
    {
      "inputs": [],
      "name": "actionCount",
      "outputs": [
        {
          "internalType": "uint256",
          "name": "",
          "type": "uint256"
        }
      ],
      "stateMutability": "view",
      "type": "function"
    },
    {
      "inputs": [],
      "name": "agentId",
      "outputs": [
        {
          "internalType": "bytes32",
          "name": "",
          "type": "bytes32"
        }
      ],
      "stateMutability": "view",
      "type": "function"
    },
    {
      "inputs": [],
      "name": "agentName",
      "outputs": [
        {
          "internalType": "string",
          "name": "",
          "type": "string"
        }
      ],
      "stateMutability": "view",
      "type": "function"
    },
    {
      "inputs": [],
      "name": "agentVersion",
      "outputs": [
        {
          "internalType": "string",
          "name": "",
          "type": "string"
        }
      ],
      "stateMutability": "view",
      "type": "function"
    },
    {
      "inputs": [
        {
          "internalType": "address",
          "name": "",
          "type": "address"
        }
      ],
      "name": "authorizedUsers",
      "outputs": [
        {
          "internalType": "bool",
          "name": "",
          "type": "bool"
        }
      ],
      "stateMutability": "view",
      "type": "function"
    },
    {
      "inputs": [],
      "name": "autoExecuteDueBills",
      "outputs": [],
      "stateMutability": "nonpayable",
      "type": "function"
    },
    {
      "inputs": [
        {
          "internalType": "bytes32",
          "name": "",
          "type": "bytes32"
        }
      ],
      "name": "bills",
      "outputs": [
        {
          "internalType": "address",
          "name": "recipient",
          "type": "address"
        },
        {
          "internalType": "uint256",
          "name": "amount",
          "type": "uint256"
        },
        {
          "internalType": "uint256",
          "name": "frequency",
          "type": "uint256"
        },
        {
          "internalType": "uint256",
          "name": "nextPaymentTime",
          "type": "uint256"
        },
        {
          "internalType": "bool",
          "name": "isActive",
          "type": "bool"
        },
        {
          "internalType": "bool",
          "name": "isPaid",
          "type": "bool"
        },
        {
          "internalType": "address",
          "name": "createdBy",
          "type": "address"
        },
        {
          "internalType": "string",
          "name": "description",
          "type": "string"
        }
      ],
      "stateMutability": "view",
      "type": "function"
    },
    {
      "inputs": [],
      "name": "cEUR",
      "outputs": [
        {
          "internalType": "contract IERC20",
          "name": "",
          "type": "address"
        }
      ],
      "stateMutability": "view",
      "type": "function"
    },
    {
      "inputs": [],
      "name": "cUSD",
      "outputs": [
        {
          "internalType": "contract IERC20",
          "name": "",
          "type": "address"
        }
      ],
      "stateMutability": "view",
      "type": "function"
    },
    {
      "inputs": [
        {
          "internalType": "bytes32",
          "name": "_billId",
          "type": "bytes32"
        }
      ],
      "name": "cancelBill",
      "outputs": [],
      "stateMutability": "nonpayable",
      "type": "function"
    },
    {
      "inputs": [],
      "name": "claimRewards",
      "outputs": [],
      "stateMutability": "nonpayable",
      "type": "function"
    },
    {
      "inputs": [
        {
          "internalType": "bytes32",
          "name": "_billId",
          "type": "bytes32"
        },
        {
          "internalType": "address",
          "name": "_recipient",
          "type": "address"
        },
        {
          "internalType": "uint256",
          "name": "_amount",
          "type": "uint256"
        },
        {
          "internalType": "uint256",
          "name": "_frequencySeconds",
          "type": "uint256"
        },
        {
          "internalType": "string",
          "name": "_description",
          "type": "string"
        }
      ],
      "name": "createBill",
      "outputs": [],
      "stateMutability": "nonpayable",
      "type": "function"
    },
    {
      "inputs": [
        {
          "internalType": "uint256",
          "name": "_amount",
          "type": "uint256"
        }
      ],
      "name": "depositSavings",
      "outputs": [],
      "stateMutability": "nonpayable",
      "type": "function"
    },
    {
      "inputs": [
        {
          "internalType": "uint256",
          "name": "_amount",
          "type": "uint256"
        }
      ],
      "name": "depositToYield",
      "outputs": [],
      "stateMutability": "nonpayable",
      "type": "function"
    },
    {
      "inputs": [
        {
          "internalType": "uint256",
          "name": "_transactionAmount",
          "type": "uint256"
        }
      ],
      "name": "depositWithRoundUp",
      "outputs": [],
      "stateMutability": "nonpayable",
      "type": "function"
    },
    {
      "inputs": [
        {
          "internalType": "bytes32",
          "name": "_billId",
          "type": "bytes32"
        }
      ],
      "name": "executeBill",
      "outputs": [],
      "stateMutability": "nonpayable",
      "type": "function"
    },
    {
      "inputs": [
        {
          "internalType": "address",
          "name": "_to",
          "type": "address"
        },
        {
          "internalType": "uint256",
          "name": "_value",
          "type": "uint256"
        },
        {
          "internalType": "bytes",
          "name": "_data",
          "type": "bytes"
        },
        {
          "internalType": "uint256",
          "name": "_nonce",
          "type": "uint256"
        },
        {
          "internalType": "bytes",
          "name": "_signature",
          "type": "bytes"
        }
      ],
      "name": "executeTransaction",
      "outputs": [],
      "stateMutability": "nonpayable",
      "type": "function"
    },
    {
      "inputs": [
        {
          "internalType": "bytes32",
          "name": "",
          "type": "bytes32"
        }
      ],
      "name": "executedTransactions",
      "outputs": [
        {
          "internalType": "bool",
          "name": "",
          "type": "bool"
        }
      ],
      "stateMutability": "view",
      "type": "function"
    },
    {
      "inputs": [],
      "name": "getAgentIdentity",
      "outputs": [
        {
          "internalType": "bytes32",
          "name": "_agentId",
          "type": "bytes32"
        },
        {
          "internalType": "string",
          "name": "_name",
          "type": "string"
        },
        {
          "internalType": "string",
          "name": "_version",
          "type": "string"
        },
        {
          "internalType": "uint256",
          "name": "_reputation",
          "type": "uint256"
        },
        {
          "internalType": "address",
          "name": "_chain",
          "type": "address"
        },
        {
          "internalType": "uint256",
          "name": "_capabilities",
          "type": "uint256"
        }
      ],
      "stateMutability": "view",
      "type": "function"
    },
    {
      "inputs": [],
      "name": "getAgentStats",
      "outputs": [
        {
          "internalType": "uint256",
          "name": "_totalSavings",
          "type": "uint256"
        },
        {
          "internalType": "uint256",
          "name": "_totalBillsPaid",
          "type": "uint256"
        },
        {
          "internalType": "uint256",
          "name": "_actionCount",
          "type": "uint256"
        },
        {
          "internalType": "bool",
          "name": "_isActive",
          "type": "bool"
        },
        {
          "internalType": "uint256",
          "name": "_reputation",
          "type": "uint256"
        }
      ],
      "stateMutability": "view",
      "type": "function"
    },
    {
      "inputs": [
        {
          "internalType": "bytes32",
          "name": "_billId",
          "type": "bytes32"
        }
      ],
      "name": "getBillDetails",
      "outputs": [
        {
          "internalType": "address",
          "name": "recipient",
          "type": "address"
        },
        {
          "internalType": "uint256",
          "name": "amount",
          "type": "uint256"
        },
        {
          "internalType": "uint256",
          "name": "frequency",
          "type": "uint256"
        },
        {
          "internalType": "uint256",
          "name": "nextPaymentTime",
          "type": "uint256"
        },
        {
          "internalType": "bool",
          "name": "billActive",
          "type": "bool"
        },
        {
          "internalType": "bool",
          "name": "billPaid",
          "type": "bool"
        }
      ],
      "stateMutability": "view",
      "type": "function"
    },
    {
      "inputs": [
        {
          "internalType": "address",
          "name": "_user",
          "type": "address"
        }
      ],
      "name": "getNonce",
      "outputs": [
        {
          "internalType": "uint256",
          "name": "",
          "type": "uint256"
        }
      ],
      "stateMutability": "view",
      "type": "function"
    },
    {
      "inputs": [
        {
          "internalType": "address",
          "name": "_user",
          "type": "address"
        }
      ],
      "name": "getNotifications",
      "outputs": [
        {
          "components": [
            {
              "internalType": "address",
              "name": "user",
              "type": "address"
            },
            {
              "internalType": "string",
              "name": "message",
              "type": "string"
            },
            {
              "internalType": "uint256",
              "name": "timestamp",
              "type": "uint256"
            },
            {
              "internalType": "bool",
              "name": "read",
              "type": "bool"
            },
            {
              "internalType": "enum AutoPocketAgentV2.NotificationType",
              "name": "notificationType",
              "type": "uint8"
            }
          ],
          "internalType": "struct AutoPocketAgentV2.Notification[]",
          "name": "",
          "type": "tuple[]"
        }
      ],
      "stateMutability": "view",
      "type": "function"
    },
    {
      "inputs": [
        {
          "internalType": "address",
          "name": "_user",
          "type": "address"
        }
      ],
      "name": "getRewardPoints",
      "outputs": [
        {
          "internalType": "uint256",
          "name": "",
          "type": "uint256"
        }
      ],
      "stateMutability": "view",
      "type": "function"
    },
    {
      "inputs": [
        {
          "internalType": "address",
          "name": "_user",
          "type": "address"
        }
      ],
      "name": "getUnreadCount",
      "outputs": [
        {
          "internalType": "uint256",
          "name": "count",
          "type": "uint256"
        }
      ],
      "stateMutability": "view",
      "type": "function"
    },
    {
      "inputs": [
        {
          "internalType": "address",
          "name": "_user",
          "type": "address"
        }
      ],
      "name": "getUserBillIds",
      "outputs": [
        {
          "internalType": "bytes32[]",
          "name": "",
          "type": "bytes32[]"
        }
      ],
      "stateMutability": "view",
      "type": "function"
    },
    {
      "inputs": [
        {
          "internalType": "address",
          "name": "_user",
          "type": "address"
        }
      ],
      "name": "getUserRoundUpBalance",
      "outputs": [
        {
          "internalType": "uint256",
          "name": "",
          "type": "uint256"
        }
      ],
      "stateMutability": "view",
      "type": "function"
    },
    {
      "inputs": [
        {
          "internalType": "address",
          "name": "_user",
          "type": "address"
        }
      ],
      "name": "getUserSavings",
      "outputs": [
        {
          "internalType": "uint256",
          "name": "totalDeposited",
          "type": "uint256"
        },
        {
          "internalType": "uint256",
          "name": "totalWithdrawn",
          "type": "uint256"
        },
        {
          "internalType": "uint256",
          "name": "availableBalance",
          "type": "uint256"
        },
        {
          "internalType": "uint256",
          "name": "lastDepositTime",
          "type": "uint256"
        },
        {
          "internalType": "bool",
          "name": "isRegistered",
          "type": "bool"
        }
      ],
      "stateMutability": "view",
      "type": "function"
    },
    {
      "inputs": [],
      "name": "isActive",
      "outputs": [
        {
          "internalType": "bool",
          "name": "",
          "type": "bool"
        }
      ],
      "stateMutability": "view",
      "type": "function"
    },
    {
      "inputs": [],
      "name": "lastActionTimestamp",
      "outputs": [
        {
          "internalType": "uint256",
          "name": "",
          "type": "uint256"
        }
      ],
      "stateMutability": "view",
      "type": "function"
    },
    {
      "inputs": [
        {
          "internalType": "address",
          "name": "",
          "type": "address"
        }
      ],
      "name": "lastBillExecution",
      "outputs": [
        {
          "internalType": "uint256",
          "name": "",
          "type": "uint256"
        }
      ],
      "stateMutability": "view",
      "type": "function"
    },
    {
      "inputs": [
        {
          "internalType": "uint256",
          "name": "_index",
          "type": "uint256"
        }
      ],
      "name": "markNotificationRead",
      "outputs": [],
      "stateMutability": "nonpayable",
      "type": "function"
    },
    {
      "inputs": [
        {
          "internalType": "address",
          "name": "",
          "type": "address"
        }
      ],
      "name": "nonce",
      "outputs": [
        {
          "internalType": "uint256",
          "name": "",
          "type": "uint256"
        }
      ],
      "stateMutability": "view",
      "type": "function"
    },
    {
      "inputs": [],
      "name": "notificationCount",
      "outputs": [
        {
          "internalType": "uint256",
          "name": "",
          "type": "uint256"
        }
      ],
      "stateMutability": "view",
      "type": "function"
    },
    {
      "inputs": [
        {
          "internalType": "address",
          "name": "",
          "type": "address"
        },
        {
          "internalType": "uint256",
          "name": "",
          "type": "uint256"
        }
      ],
      "name": "notifications",
      "outputs": [
        {
          "internalType": "address",
          "name": "user",
          "type": "address"
        },
        {
          "internalType": "string",
          "name": "message",
          "type": "string"
        },
        {
          "internalType": "uint256",
          "name": "timestamp",
          "type": "uint256"
        },
        {
          "internalType": "bool",
          "name": "read",
          "type": "bool"
        },
        {
          "internalType": "enum AutoPocketAgentV2.NotificationType",
          "name": "notificationType",
          "type": "uint8"
        }
      ],
      "stateMutability": "view",
      "type": "function"
    },
    {
      "inputs": [
        {
          "internalType": "address",
          "name": "_user",
          "type": "address"
        },
        {
          "internalType": "string",
          "name": "_message",
          "type": "string"
        }
      ],
      "name": "notifyUser",
      "outputs": [],
      "stateMutability": "nonpayable",
      "type": "function"
    },
    {
      "inputs": [],
      "name": "owner",
      "outputs": [
        {
          "internalType": "address",
          "name": "",
          "type": "address"
        }
      ],
      "stateMutability": "view",
      "type": "function"
    },
    {
      "inputs": [],
      "name": "pause",
      "outputs": [],
      "stateMutability": "nonpayable",
      "type": "function"
    },
    {
      "inputs": [],
      "name": "paused",
      "outputs": [
        {
          "internalType": "bool",
          "name": "",
          "type": "bool"
        }
      ],
      "stateMutability": "view",
      "type": "function"
    },
    {
      "inputs": [],
      "name": "registerUser",
      "outputs": [],
      "stateMutability": "nonpayable",
      "type": "function"
    },
    {
      "inputs": [],
      "name": "renounceOwnership",
      "outputs": [],
      "stateMutability": "nonpayable",
      "type": "function"
    },
    {
      "inputs": [],
      "name": "reputationScore",
      "outputs": [
        {
          "internalType": "uint256",
          "name": "",
          "type": "uint256"
        }
      ],
      "stateMutability": "view",
      "type": "function"
    },
    {
      "inputs": [
        {
          "internalType": "address",
          "name": "",
          "type": "address"
        }
      ],
      "name": "rewardPoints",
      "outputs": [
        {
          "internalType": "uint256",
          "name": "",
          "type": "uint256"
        }
      ],
      "stateMutability": "view",
      "type": "function"
    },
    {
      "inputs": [
        {
          "internalType": "address",
          "name": "",
          "type": "address"
        }
      ],
      "name": "roundUpSettings",
      "outputs": [
        {
          "internalType": "uint256",
          "name": "",
          "type": "uint256"
        }
      ],
      "stateMutability": "view",
      "type": "function"
    },
    {
      "inputs": [
        {
          "internalType": "bool",
          "name": "_active",
          "type": "bool"
        }
      ],
      "name": "setActive",
      "outputs": [],
      "stateMutability": "nonpayable",
      "type": "function"
    },
    {
      "inputs": [
        {
          "internalType": "uint256",
          "name": "_threshold",
          "type": "uint256"
        }
      ],
      "name": "setRoundUpThreshold",
      "outputs": [],
      "stateMutability": "nonpayable",
      "type": "function"
    },
    {
      "inputs": [
        {
          "internalType": "address",
          "name": "_vault",
          "type": "address"
        }
      ],
      "name": "setYieldVault",
      "outputs": [],
      "stateMutability": "nonpayable",
      "type": "function"
    },
    {
      "inputs": [],
      "name": "totalBillsPaid",
      "outputs": [
        {
          "internalType": "uint256",
          "name": "",
          "type": "uint256"
        }
      ],
      "stateMutability": "view",
      "type": "function"
    },
    {
      "inputs": [
        {
          "internalType": "address",
          "name": "",
          "type": "address"
        }
      ],
      "name": "totalRoundUps",
      "outputs": [
        {
          "internalType": "uint256",
          "name": "",
          "type": "uint256"
        }
      ],
      "stateMutability": "view",
      "type": "function"
    },
    {
      "inputs": [],
      "name": "totalSavings",
      "outputs": [
        {
          "internalType": "uint256",
          "name": "",
          "type": "uint256"
        }
      ],
      "stateMutability": "view",
      "type": "function"
    },
    {
      "inputs": [
        {
          "internalType": "address",
          "name": "newOwner",
          "type": "address"
        }
      ],
      "name": "transferOwnership",
      "outputs": [],
      "stateMutability": "nonpayable",
      "type": "function"
    },
    {
      "inputs": [],
      "name": "unpause",
      "outputs": [],
      "stateMutability": "nonpayable",
      "type": "function"
    },
    {
      "inputs": [
        {
          "internalType": "address",
          "name": "",
          "type": "address"
        },
        {
          "internalType": "uint256",
          "name": "",
          "type": "uint256"
        }
      ],
      "name": "userBillIds",
      "outputs": [
        {
          "internalType": "bytes32",
          "name": "",
          "type": "bytes32"
        }
      ],
      "stateMutability": "view",
      "type": "function"
    },
    {
      "inputs": [
        {
          "internalType": "address",
          "name": "",
          "type": "address"
        }
      ],
      "name": "userData",
      "outputs": [
        {
          "internalType": "uint256",
          "name": "totalDeposited",
          "type": "uint256"
        },
        {
          "internalType": "uint256",
          "name": "totalWithdrawn",
          "type": "uint256"
        },
        {
          "internalType": "uint256",
          "name": "roundUpBalance",
          "type": "uint256"
        },
        {
          "internalType": "uint256",
          "name": "lastDepositTime",
          "type": "uint256"
        },
        {
          "internalType": "bool",
          "name": "isRegistered",
          "type": "bool"
        },
        {
          "internalType": "uint256",
          "name": "yTokens",
          "type": "uint256"
        }
      ],
      "stateMutability": "view",
      "type": "function"
    },
    {
      "inputs": [
        {
          "internalType": "address",
          "name": "_user",
          "type": "address"
        },
        {
          "internalType": "bytes",
          "name": "_credential",
          "type": "bytes"
        }
      ],
      "name": "verifyCeloIdentity",
      "outputs": [
        {
          "internalType": "bool",
          "name": "",
          "type": "bool"
        }
      ],
      "stateMutability": "nonpayable",
      "type": "function"
    },
    {
      "inputs": [],
      "name": "withdrawAll",
      "outputs": [],
      "stateMutability": "nonpayable",
      "type": "function"
    },
    {
      "inputs": [
        {
          "internalType": "uint256",
          "name": "_yTokens",
          "type": "uint256"
        }
      ],
      "name": "withdrawFromYield",
      "outputs": [],
      "stateMutability": "nonpayable",
      "type": "function"
    },
    {
      "inputs": [
        {
          "internalType": "uint256",
          "name": "_amount",
          "type": "uint256"
        }
      ],
      "name": "withdrawSavings",
      "outputs": [],
      "stateMutability": "nonpayable",
      "type": "function"
    },
    {
      "inputs": [
        {
          "internalType": "address",
          "name": "_token",
          "type": "address"
        },
        {
          "internalType": "uint256",
          "name": "_amount",
          "type": "uint256"
        }
      ],
      "name": "withdrawToken",
      "outputs": [],
      "stateMutability": "nonpayable",
      "type": "function"
    },
    {
      "inputs": [],
      "name": "yieldEnabled",
      "outputs": [
        {
          "internalType": "bool",
          "name": "",
          "type": "bool"
        }
      ],
      "stateMutability": "view",
      "type": "function"
    },
    {
      "inputs": [],
      "name": "yieldRate",
      "outputs": [
        {
          "internalType": "uint256",
          "name": "",
          "type": "uint256"
        }
      ],
      "stateMutability": "view",
      "type": "function"
    },
    {
      "inputs": [],
      "name": "yieldVault",
      "outputs": [
        {
          "internalType": "address",
          "name": "",
          "type": "address"
        }
      ],
      "stateMutability": "view",
      "type": "function"
    }
  ],
  "bytecode": "0x60e06040526040518060400160405280600a81526020017f4175746f506f636b657400000000000000000000000000000000000000000000815250600690816200004a9190620005ec565b506040518060400160405280600581526020017f332e302e3000000000000000000000000000000000000000000000000000000081525060079081620000919190620005ec565b50605f6008556101f4600a55348015620000aa57600080fd5b5033600073ffffffffffffffffffffffffffffffffffffffff168173ffffffffffffffffffffffffffffffffffffffff1603620001215760006040517f1e4fbdf700000000000000000000000000000000000000000000000000000000815260040162000118919062000718565b60405180910390fd5b62000132816200027760201b60201c565b50600162000155620001496200033b60201b60201c565b6200036660201b60201c565b6000018190555073765de816845861e75a25fca122bb6898b8b1272a73ffffffffffffffffffffffffffffffffffffffff1660808173ffffffffffffffffffffffffffffffffffffffff168152505073471ece3750da237f93b8e339c536988bc5deb0b473ffffffffffffffffffffffffffffffffffffffff1660a08173ffffffffffffffffffffffffffffffffffffffff168152505073d8763cba276ab0ed6a75dd1b5f2aeef3a57cb60073ffffffffffffffffffffffffffffffffffffffff1660c08173ffffffffffffffffffffffffffffffffffffffff1681525050604051602001620002459062000790565b60405160208183030381529060405280519060200120600581905550620002716200037060201b60201c565b620007a7565b60008060009054906101000a900473ffffffffffffffffffffffffffffffffffffffff169050816000806101000a81548173ffffffffffffffffffffffffffffffffffffffff021916908373ffffffffffffffffffffffffffffffffffffffff1602179055508173ffffffffffffffffffffffffffffffffffffffff168173ffffffffffffffffffffffffffffffffffffffff167f8be0079c531659141344cd1fd0a4f28419497f9722a3daafe3b4186f6b6457e060405160405180910390a35050565b60007f9b779b17422d0df92223018b32b4d1fa46e071723d6817e2486d003becc55f0060001b905090565b6000819050919050565b565b600081519050919050565b7f4e487b7100000000000000000000000000000000000000000000000000000000600052604160045260246000fd5b7f4e487b7100000000000000000000000000000000000000000000000000000000600052602260045260246000fd5b60006002820490506001821680620003f457607f821691505b6020821081036200040a5762000409620003ac565b5b50919050565b60008190508160005260206000209050919050565b60006020601f8301049050919050565b600082821b905092915050565b600060088302620004747fffffffffffffffffffffffffffffffffffffffffffffffffffffffffffffffff8262000435565b62000480868362000435565b95508019841693508086168417925050509392505050565b6000819050919050565b6000819050919050565b6000620004cd620004c7620004c18462000498565b620004a2565b62000498565b9050919050565b6000819050919050565b620004e983620004ac565b62000501620004f882620004d4565b84845462000442565b825550505050565b600090565b6200051862000509565b62000525818484620004de565b505050565b5b818110156200054d57620005416000826200050e565b6001810190506200052b565b5050565b601f8211156200059c57620005668162000410565b620005718462000425565b8101602085101562000581578190505b62000599620005908562000425565b8301826200052a565b50505b505050565b600082821c905092915050565b6000620005c160001984600802620005a1565b1980831691505092915050565b6000620005dc8383620005ae565b9150826002028217905092915050565b620005f78262000372565b67ffffffffffffffff8111156200061357620006126200037d565b5b6200061f8254620003db565b6200062c82828562000551565b600060209050601f8311600181146200066457600084156200064f578287015190505b6200065b8582620005ce565b865550620006cb565b601f198416620006748662000410565b60005b828110156200069e5784890151825560018201915060208501945060208101905062000677565b86831015620006be5784890151620006ba601f891682620005ae565b8355505b6001600288020188555050505b505050505050565b600073ffffffffffffffffffffffffffffffffffffffff82169050919050565b60006200070082620006d3565b9050919050565b6200071281620006f3565b82525050565b60006020820190506200072f600083018462000707565b92915050565b600081905092915050565b7f4175746f506f636b65742d4167656e742d763300000000000000000000000000600082015250565b60006200077860138362000735565b9150620007858262000740565b601382019050919050565b60006200079d8262000769565b9150819050919050565b60805160a05160c051615c156200081d60003960006123bc01526000613a28015260008181610f1801528181610fc8015281816110d0015281816112800152818161144c01528181611d4601528181612404015281816124a501528181612d580152818161326001526137570152615c156000f3fe608060405234801561001057600080fd5b50600436106103d05760003560e01c8063787930c2116101ff578063acec338a1161011a578063de986450116100ad578063f2fde38b1161007c578063f2fde38b14610b95578063f60e673e14610bb1578063f80a205714610bcf578063fd67508d14610c03576103d0565b8063de98645014610b33578063e84f43b714610b4f578063eac697c914610b6d578063f1f1e22214610b8b576103d0565b8063b5a6a3d1116100e9578063b5a6a3d114610a8d578063c2752e4314610ab0578063c891091314610ace578063cf2bb94714610b03576103d0565b8063acec338a146109f5578063ae5f402e14610a11578063b3e59d4114610a2d578063b5762e4014610a5d576103d0565b80638da5cb5b11610192578063a453b6cf11610161578063a453b6cf1461095b578063a662fac914610977578063a6e5b6d2146109a7578063a7f8a5e2146109d7576103d0565b80638da5cb5b146108cc5780639bf42b3f146108ea5780639e281a9814610908578063a449718214610924576103d0565b8063853828b6116101ce578063853828b6146108465780638691d34c146108505780638a8f63b0146108805780638da1eccf146108b0576103d0565b8063787930c2146107b95780637bd95a85146107ee5780637d1f2de71461081e5780638456cb591461083c576103d0565b80633f4ba83a116102ef57806365d0bddd1161028257806370ae92d21161025157806370ae92d21461073f57806371342f0c1461076f578063715018a61461078d57806377a5e9f214610797576103d0565b806365d0bddd146106b557806366737641146106e95780636999ac93146107055780636c49ad8014610723576103d0565b80634d3820eb116102be5780634d3820eb146106535780635c975abb1461065d5780636057710f1461067b57806360a7fc1f14610697576103d0565b80633f4ba83a146105df578063404a43c4146105e957806341d7b1d3146106195780634315f45814610637576103d0565b806322f3e2d4116103675780632d0335ab116103365780632d0335ab1461056b578063372500ab1461059b57806339038031146105a55780633c19804e146105c1576103d0565b806322f3e2d4146104f757806329da5738146105155780632a6d9ddd146105335780632badf0561461054f576103d0565b80631518c958116103a35780631518c9581461045d57806315ee90d61461048d5780631828983a146104a95780631fccf672146104d9576103d0565b80630dc7fff9146103d557806310c59c72146103f3578063137c3f6914610411578063145f759c1461042d575b600080fd5b6103dd610c33565b6040516103ea9190614412565b60405180910390f35b6103fb610c39565b60405161040891906144bd565b60405180910390f35b61042b60048036038101906104269190614547565b610cc7565b005b610447600480360381019061044291906145d9565b610d94565b6040516104549190614654565b60405180910390f35b6104776004803603810190610472919061469b565b610df9565b60405161048491906146f4565b60405180910390f35b6104a760048036038101906104a2919061473b565b610e2a565b005b6104c360048036038101906104be9190614547565b61125e565b6040516104d09190614654565b60405180910390f35b6104e161127e565b6040516104ee91906147c7565b60405180910390f35b6104ff6112a2565b60405161050c9190614654565b60405180910390f35b61051d6112b5565b60405161052a9190614412565b60405180910390f35b61054d600480360381019061054891906147e2565b6112bb565b005b610569600480360381019061056491906147e2565b6114b6565b005b61058560048036038101906105809190614547565b611537565b6040516105929190614412565b60405180910390f35b6105a3611580565b005b6105bf60048036038101906105ba91906147e2565b6116fc565b005b6105c96117c5565b6040516105d691906144bd565b60405180910390f35b6105e7611853565b005b61060360048036038101906105fe9190614547565b611865565b60405161061091906148cd565b60405180910390f35b6106216118fc565b60405161062e9190614412565b60405180910390f35b610651600480360381019061064c919061473b565b611901565b005b61065b611a30565b005b610665611a43565b6040516106729190614654565b60405180910390f35b61069560048036038101906106909190614945565b611a59565b005b61069f611b54565b6040516106ac9190614412565b60405180910390f35b6106cf60048036038101906106ca919061469b565b611b5a565b6040516106e0959493929190614a2b565b60405180910390f35b61070360048036038101906106fe91906147e2565b611c6f565b005b61070d611ff8565b60405161071a9190614412565b60405180910390f35b61073d60048036038101906107389190614a85565b611ffe565b005b61075960048036038101906107549190614547565b6122ad565b6040516107669190614412565b60405180910390f35b6107776122c5565b6040516107849190614412565b60405180910390f35b6107956122cb565b005b61079f6122df565b6040516107b0959493929190614b41565b60405180910390f35b6107d360048036038101906107ce919061473b565b612314565b6040516107e596959493929190614b94565b60405180910390f35b61080860048036038101906108039190614547565b6123a2565b6040516108159190614412565b60405180910390f35b6108266123ba565b60405161083391906147c7565b60405180910390f35b6108446123de565b005b61084e6123f0565b005b61086a6004803603810190610865919061473b565b6124f4565b6040516108779190614654565b60405180910390f35b61089a60048036038101906108959190614547565b612514565b6040516108a79190614db3565b60405180910390f35b6108ca60048036038101906108c59190614dd5565b6126fa565b005b6108d4612b6d565b6040516108e19190614e6f565b60405180910390f35b6108f2612b96565b6040516108ff9190614412565b60405180910390f35b610922600480360381019061091d919061469b565b612b9c565b005b61093e6004803603810190610939919061473b565b612bd3565b604051610952989796959493929190614e8a565b60405180910390f35b610975600480360381019061097091906147e2565b612cfd565b005b610991600480360381019061098c9190614547565b612fba565b60405161099e9190614412565b60405180910390f35b6109c160048036038101906109bc9190614547565b61306c565b6040516109ce9190614412565b60405180910390f35b6109df613084565b6040516109ec9190614e6f565b60405180910390f35b610a0f6004803603810190610a0a9190614f3b565b6130aa565b005b610a2b6004803603810190610a2691906147e2565b613106565b005b610a476004803603810190610a429190614547565b613328565b604051610a549190614412565b60405180910390f35b610a776004803603810190610a729190614547565b613340565b604051610a849190614412565b60405180910390f35b610a95613358565b604051610aa796959493929190614f68565b60405180910390f35b610ab861349b565b604051610ac59190614654565b60405180910390f35b610ae86004803603810190610ae39190614547565b6134ae565b604051610afa96959493929190614fd7565b60405180910390f35b610b1d6004803603810190610b189190614547565b6134f7565b604051610b2a9190614412565b60405180910390f35b610b4d6004803603810190610b4891906147e2565b613540565b005b610b57613846565b604051610b6491906146f4565b60405180910390f35b610b7561384c565b604051610b829190614412565b60405180910390f35b610b93613852565b005b610baf6004803603810190610baa9190614547565b6139a0565b005b610bb9613a26565b604051610bc691906147c7565b60405180910390f35b610be96004803603810190610be49190614547565b613a4a565b604051610bfa959493929190615038565b60405180910390f35b610c1d6004803603810190610c189190614547565b613ace565b604051610c2a9190614412565b60405180910390f35b60045481565b60078054610c46906150ba565b80601f0160208091040260200160405190810160405280929190818152602001828054610c72906150ba565b8015610cbf5780601f10610c9457610100808354040283529160200191610cbf565b820191906000526020600020905b815481529060010190602001808311610ca257829003601f168201915b505050505081565b610ccf613b17565b600073ffffffffffffffffffffffffffffffffffffffff168173ffffffffffffffffffffffffffffffffffffffff1603610d35576040517fd92e233d00000000000000000000000000000000000000000000000000000000815260040160405180910390fd5b80600960006101000a81548173ffffffffffffffffffffffffffffffffffffffff021916908373ffffffffffffffffffffffffffffffffffffffff1602179055506001600960146101000a81548160ff02191690831515021790555050565b6000633b9aca00600b60008673ffffffffffffffffffffffffffffffffffffffff1673ffffffffffffffffffffffffffffffffffffffff168152602001908152602001600020600001541115610ded5760019050610df2565b600090505b9392505050565b600e6020528160005260406000208181548110610e1557600080fd5b90600052602060002001600091509150505481565b610e32613b9e565b600060159054906101000a900460ff16610e78576040517f486fcee200000000000000000000000000000000000000000000000000000000815260040160405180910390fd5b6000600d600083815260200190815260200160002090508060040160009054906101000a900460ff16610ed7576040517fcf897cfb00000000000000000000000000000000000000000000000000000000815260040160405180910390fd5b8060030154421015610f14576040517ea71fbb00000000000000000000000000000000000000000000000000000000815260040160405180910390fd5b60007f000000000000000000000000000000000000000000000000000000000000000073ffffffffffffffffffffffffffffffffffffffff166370a08231306040518263ffffffff1660e01b8152600401610f6f9190614e6f565b602060405180830381865afa158015610f8c573d6000803e3d6000fd5b505050506040513d601f19601f82011682018060405250810190610fb09190615100565b905081600101548110156110a157610fc6613bc1565b7f000000000000000000000000000000000000000000000000000000000000000073ffffffffffffffffffffffffffffffffffffffff166370a08231306040518263ffffffff1660e01b815260040161101f9190614e6f565b602060405180830381865afa15801561103c573d6000803e3d6000fd5b505050506040513d601f19601f820116820180604052508101906110609190615100565b905081600101548110156110a0576040517ff4d678b800000000000000000000000000000000000000000000000000000000815260040160405180910390fd5b5b6111148260000160009054906101000a900473ffffffffffffffffffffffffffffffffffffffff1683600101547f000000000000000000000000000000000000000000000000000000000000000073ffffffffffffffffffffffffffffffffffffffff16613bc39092919063ffffffff16565b60018260040160016101000a81548160ff021916908315150217905550816002015442611141919061515c565b82600301819055506004600081548092919061115c90615190565b91905055506002600081548092919061117490615190565b91905055508160040160029054906101000a900473ffffffffffffffffffffffffffffffffffffffff1673ffffffffffffffffffffffffffffffffffffffff16837f7763e65e4730dc3bd160c6b49f1eccb463828c997ef23c2e18edfbce92081f3d84600101546040516111e89190614412565b60405180910390a36112518260040160029054906101000a900473ffffffffffffffffffffffffffffffffffffffff16620f4240846001015461122b9190615207565b60405160200161123b91906152fc565b6040516020818303038152906040526003613c16565b505061125b613da6565b50565b600c6020528060005260406000206000915054906101000a900460ff1681565b7f000000000000000000000000000000000000000000000000000000000000000081565b600060159054906101000a900460ff1681565b60025481565b6112c3613b9e565b6000600b60003373ffffffffffffffffffffffffffffffffffffffff1673ffffffffffffffffffffffffffffffffffffffff16815260200190815260200160002060050154905080821115611344576040517ff4d678b800000000000000000000000000000000000000000000000000000000815260040160405180910390fd5b600064496cebb800600b60003373ffffffffffffffffffffffffffffffffffffffff1673ffffffffffffffffffffffffffffffffffffffff168152602001908152602001600020600301544261139a919061532d565b600a54856113a89190615361565b6113b29190615361565b6113bc9190615207565b905082600b60003373ffffffffffffffffffffffffffffffffffffffff1673ffffffffffffffffffffffffffffffffffffffff1681526020019081526020016000206005016000828254611410919061532d565b92505081905550611491600960009054906101000a900473ffffffffffffffffffffffffffffffffffffffff1633838661144a919061515c565b7f000000000000000000000000000000000000000000000000000000000000000073ffffffffffffffffffffffffffffffffffffffff16613dc1909392919063ffffffff16565b600260008154809291906114a490615190565b919050555050506114b3613da6565b50565b600081036114f0576040517f2c5211c600000000000000000000000000000000000000000000000000000000815260040160405180910390fd5b80601460003373ffffffffffffffffffffffffffffffffffffffff1673ffffffffffffffffffffffffffffffffffffffff1681526020019081526020016000208190555050565b6000601260008373ffffffffffffffffffffffffffffffffffffffff1673ffffffffffffffffffffffffffffffffffffffff168152602001908152602001600020549050919050565b611588613b9e565b33600b60008273ffffffffffffffffffffffffffffffffffffffff1673ffffffffffffffffffffffffffffffffffffffff16815260200190815260200160002060040160009054906101000a900460ff1661160f576040517f2163950f00000000000000000000000000000000000000000000000000000000815260040160405180910390fd5b6000601660003373ffffffffffffffffffffffffffffffffffffffff1673ffffffffffffffffffffffffffffffffffffffff16815260200190815260200160002054905060008111156116f0576000601660003373ffffffffffffffffffffffffffffffffffffffff1673ffffffffffffffffffffffffffffffffffffffff168152602001908152602001600020819055503373ffffffffffffffffffffffffffffffffffffffff167ffc30cddea38e2bf4d6ea7d3f9ed3b6ad7f176419f4963bd81318067a4aee73fe826040516116e79190614412565b60405180910390a25b50506116fa613da6565b565b80601060003373ffffffffffffffffffffffffffffffffffffffff1673ffffffffffffffffffffffffffffffffffffffff1681526020019081526020016000208054905011156117c2576001601060003373ffffffffffffffffffffffffffffffffffffffff1673ffffffffffffffffffffffffffffffffffffffff1681526020019081526020016000208281548110611799576117986153a3565b5b906000526020600020906004020160030160006101000a81548160ff0219169083151502179055505b50565b600680546117d2906150ba565b80601f01602080910402602001604051908101604052809291908181526020018280546117fe906150ba565b801561184b5780601f106118205761010080835404028352916020019161184b565b820191906000526020600020905b81548152906001019060200180831161182e57829003601f168201915b505050505081565b61185b613b17565b611863613e16565b565b6060600e60008373ffffffffffffffffffffffffffffffffffffffff1673ffffffffffffffffffffffffffffffffffffffff1681526020019081526020016000208054806020026020016040519081016040528092919081815260200182805480156118f057602002820191906000526020600020905b8154815260200190600101908083116118dc575b50505050509050919050565b600a81565b6000600d600083815260200190815260200160002090503373ffffffffffffffffffffffffffffffffffffffff168160040160029054906101000a900473ffffffffffffffffffffffffffffffffffffffff1673ffffffffffffffffffffffffffffffffffffffff16141580156119ab57503373ffffffffffffffffffffffffffffffffffffffff16611992612b6d565b73ffffffffffffffffffffffffffffffffffffffff1614155b156119e2576040517fea8e4eb500000000000000000000000000000000000000000000000000000000815260040160405180910390fd5b60008160040160006101000a81548160ff021916908315150217905550817fa3a26a370d57172f55085c7e74b9e7b54617c9ce09de88a23fb81cce8a831f5e60405160405180910390a25050565b611a38613e78565b611a4133613eb9565b565b60008060149054906101000a900460ff16905090565b611a61612b6d565b73ffffffffffffffffffffffffffffffffffffffff163373ffffffffffffffffffffffffffffffffffffffff1614158015611ac857503073ffffffffffffffffffffffffffffffffffffffff163373ffffffffffffffffffffffffffffffffffffffff1614155b15611aff576040517fea8e4eb500000000000000000000000000000000000000000000000000000000815260040160405180910390fd5b611b4f8383838080601f016020809104026020016040519081016040528093929190818152602001838380828437600081840152601f19601f820116905080830192505050505050506007613c16565b505050565b60085481565b60106020528160005260406000208181548110611b7657600080fd5b9060005260206000209060040201600091509150508060000160009054906101000a900473ffffffffffffffffffffffffffffffffffffffff1690806001018054611bc0906150ba565b80601f0160208091040260200160405190810160405280929190818152602001828054611bec906150ba565b8015611c395780601f10611c0e57610100808354040283529160200191611c39565b820191906000526020600020905b815481529060010190602001808311611c1c57829003601f168201915b5050505050908060020154908060030160009054906101000a900460ff16908060030160019054906101000a900460ff16905085565b611c77613b9e565b611c7f613e78565b60008103611cb9576040517f2c5211c600000000000000000000000000000000000000000000000000000000815260040160405180910390fd5b611cc233613eb9565b6000601460003373ffffffffffffffffffffffffffffffffffffffff1673ffffffffffffffffffffffffffffffffffffffff16815260200190815260200160002054905060008103611d1357606490505b60008183611d2191906153d2565b82611d2c919061532d565b905060008184611d3c919061515c565b9050611d8b3330837f000000000000000000000000000000000000000000000000000000000000000073ffffffffffffffffffffffffffffffffffffffff16613dc1909392919063ffffffff16565b80600b60003373ffffffffffffffffffffffffffffffffffffffff1673ffffffffffffffffffffffffffffffffffffffff1681526020019081526020016000206000016000828254611ddd919061515c565b9250508190555083600b60003373ffffffffffffffffffffffffffffffffffffffff1673ffffffffffffffffffffffffffffffffffffffff1681526020019081526020016000206002016000828254611e36919061515c565b9250508190555081601560003373ffffffffffffffffffffffffffffffffffffffff1673ffffffffffffffffffffffffffffffffffffffff1681526020019081526020016000206000828254611e8c919061515c565b9250508190555042600b60003373ffffffffffffffffffffffffffffffffffffffff1673ffffffffffffffffffffffffffffffffffffffff168152602001908152602001600020600301819055508060036000828254611eec919061515c565b9250508190555081601560003373ffffffffffffffffffffffffffffffffffffffff1673ffffffffffffffffffffffffffffffffffffffff1681526020019081526020016000206000828254611f42919061515c565b9250508190555060026000815480929190611f5c90615190565b91905055503373ffffffffffffffffffffffffffffffffffffffff167f1a96ef469e332471886959f90a71ae924792a05ad7eea4e43a1c29becdf238ed8284604051611fa9929190615403565b60405180910390a2611fea33620f424084611fc49190615207565b604051602001611fd491906154c4565b6040516020818303038152906040526005613c16565b505050611ff5613da6565b50565b600a5481565b612006613b9e565b600087878787874660405160200161202396959493929190615542565b6040516020818303038152906040528051906020012090506013600082815260200190815260200160002060009054906101000a900460ff1615612093576040517f92f0f74300000000000000000000000000000000000000000000000000000000815260040160405180910390fd5b601260003373ffffffffffffffffffffffffffffffffffffffff1673ffffffffffffffffffffffffffffffffffffffff16815260200190815260200160002054841461210b576040517f2c5211c600000000000000000000000000000000000000000000000000000000815260040160405180910390fd5b60418383905014612151576040517f08c379a0000000000000000000000000000000000000000000000000000000008152600401612148906155ea565b60405180910390fd5b60016013600083815260200190815260200160002060006101000a81548160ff021916908315150217905550601260003373ffffffffffffffffffffffffffffffffffffffff1673ffffffffffffffffffffffffffffffffffffffff16815260200190815260200160002060008154809291906121cd90615190565b919050555060008873ffffffffffffffffffffffffffffffffffffffff168888886040516121fc92919061563a565b60006040518083038185875af1925050503d8060008114612239576040519150601f19603f3d011682016040523d82523d6000602084013e61223e565b606091505b5050905080612282576040517f08c379a00000000000000000000000000000000000000000000000000000000081526004016122799061569f565b60405180910390fd5b6002600081548092919061229590615190565b919050555050506122a4613da6565b50505050505050565b60126020528060005260406000206000915090505481565b60115481565b6122d3613b17565b6122dd60006140b7565b565b6000806000806000600354600454600254600060159054906101000a900460ff16600854945094509450945094509091929394565b6000806000806000806000600d600089815260200190815260200160002090508060000160009054906101000a900473ffffffffffffffffffffffffffffffffffffffff168160010154826002015483600301548460040160009054906101000a900460ff168560040160019054906101000a900460ff169650965096509650965096505091939550919395565b60166020528060005260406000206000915090505481565b7f000000000000000000000000000000000000000000000000000000000000000081565b6123e6613b17565b6123ee61417b565b565b6123f8613b17565b612400613b9e565b60007f000000000000000000000000000000000000000000000000000000000000000073ffffffffffffffffffffffffffffffffffffffff166370a08231306040518263ffffffff1660e01b815260040161245b9190614e6f565b602060405180830381865afa158015612478573d6000803e3d6000fd5b505050506040513d601f19601f8201168201806040525081019061249c9190615100565b90506124e933827f000000000000000000000000000000000000000000000000000000000000000073ffffffffffffffffffffffffffffffffffffffff16613bc39092919063ffffffff16565b506124f2613da6565b565b60136020528060005260406000206000915054906101000a900460ff1681565b6060601060008373ffffffffffffffffffffffffffffffffffffffff1673ffffffffffffffffffffffffffffffffffffffff168152602001908152602001600020805480602002602001604051908101604052809291908181526020016000905b828210156126ef57838290600052602060002090600402016040518060a00160405290816000820160009054906101000a900473ffffffffffffffffffffffffffffffffffffffff1673ffffffffffffffffffffffffffffffffffffffff1673ffffffffffffffffffffffffffffffffffffffff1681526020016001820180546125fe906150ba565b80601f016020809104026020016040519081016040528092919081815260200182805461262a906150ba565b80156126775780601f1061264c57610100808354040283529160200191612677565b820191906000526020600020905b81548152906001019060200180831161265a57829003601f168201915b50505050508152602001600282015481526020016003820160009054906101000a900460ff161515151581526020016003820160019054906101000a900460ff1660078111156126ca576126c96149b4565b5b60078111156126dc576126db6149b4565b5b8152505081526020019060010190612575565b505050509050919050565b612702613b9e565b33600b60008273ffffffffffffffffffffffffffffffffffffffff1673ffffffffffffffffffffffffffffffffffffffff16815260200190815260200160002060040160009054906101000a900460ff16612789576040517f2163950f00000000000000000000000000000000000000000000000000000000815260040160405180910390fd5b600073ffffffffffffffffffffffffffffffffffffffff168673ffffffffffffffffffffffffffffffffffffffff16036127ef576040517fd92e233d00000000000000000000000000000000000000000000000000000000815260040160405180910390fd5b60008503612829576040517f2c5211c600000000000000000000000000000000000000000000000000000000815260040160405180910390fd5b61283233613eb9565b600d600088815260200190815260200160002060040160009054906101000a900460ff161561288d576040517f92f0f74300000000000000000000000000000000000000000000000000000000815260040160405180910390fd5b6040518061010001604052808773ffffffffffffffffffffffffffffffffffffffff16815260200186815260200185815260200185426128cd919061515c565b81526020016001151581526020016000151581526020013373ffffffffffffffffffffffffffffffffffffffff16815260200184848080601f016020809104026020016040519081016040528093929190818152602001838380828437600081840152601f19601f82011690508083019250505050505050815250600d600089815260200190815260200160002060008201518160000160006101000a81548173ffffffffffffffffffffffffffffffffffffffff021916908373ffffffffffffffffffffffffffffffffffffffff16021790555060208201518160010155604082015181600201556060820151816003015560808201518160040160006101000a81548160ff02191690831515021790555060a08201518160040160016101000a81548160ff02191690831515021790555060c08201518160040160026101000a81548173ffffffffffffffffffffffffffffffffffffffff021916908373ffffffffffffffffffffffffffffffffffffffff16021790555060e0820151816005019081612a5c9190615890565b50905050600e60003373ffffffffffffffffffffffffffffffffffffffff1673ffffffffffffffffffffffffffffffffffffffff16815260200190815260200160002087908060018154018082558091505060019003906000526020600020016000909190919091505560026000815480929190612ad990615190565b91905055503373ffffffffffffffffffffffffffffffffffffffff16877fd2b003dbe8b14127f0c5c5f822e96979f1d2e42da05e459d97a23a5f35cea6578787604051612b27929190615403565b60405180910390a3612b5c338484604051602001612b469291906159d3565b6040516020818303038152906040526002613c16565b50612b65613da6565b505050505050565b60008060009054906101000a900473ffffffffffffffffffffffffffffffffffffffff16905090565b60035481565b612ba4613b17565b612bcf33828473ffffffffffffffffffffffffffffffffffffffff16613bc39092919063ffffffff16565b5050565b600d6020528060005260406000206000915090508060000160009054906101000a900473ffffffffffffffffffffffffffffffffffffffff16908060010154908060020154908060030154908060040160009054906101000a900460ff16908060040160019054906101000a900460ff16908060040160029054906101000a900473ffffffffffffffffffffffffffffffffffffffff1690806005018054612c7a906150ba565b80601f0160208091040260200160405190810160405280929190818152602001828054612ca6906150ba565b8015612cf35780601f10612cc857610100808354040283529160200191612cf3565b820191906000526020600020905b815481529060010190602001808311612cd657829003601f168201915b5050505050905088565b612d05613b9e565b612d0d613e78565b60008103612d47576040517f2c5211c600000000000000000000000000000000000000000000000000000000815260040160405180910390fd5b612d5033613eb9565b612d9d3330837f000000000000000000000000000000000000000000000000000000000000000073ffffffffffffffffffffffffffffffffffffffff16613dc1909392919063ffffffff16565b80600b60003373ffffffffffffffffffffffffffffffffffffffff1673ffffffffffffffffffffffffffffffffffffffff1681526020019081526020016000206000016000828254612def919061515c565b9250508190555080600b60003373ffffffffffffffffffffffffffffffffffffffff1673ffffffffffffffffffffffffffffffffffffffff1681526020019081526020016000206002016000828254612e48919061515c565b9250508190555042600b60003373ffffffffffffffffffffffffffffffffffffffff1673ffffffffffffffffffffffffffffffffffffffff168152602001908152602001600020600301819055508060036000828254612ea8919061515c565b9250508190555060026000815480929190612ec290615190565b919050555042600181905550600a601660003373ffffffffffffffffffffffffffffffffffffffff1673ffffffffffffffffffffffffffffffffffffffff1681526020019081526020016000206000828254612f1e919061515c565b925050819055503373ffffffffffffffffffffffffffffffffffffffff167f1a96ef469e332471886959f90a71ae924792a05ad7eea4e43a1c29becdf238ed826000604051612f6e929190615a32565b60405180910390a2612faf33620f424083612f899190615207565b604051602001612f999190615af3565b6040516020818303038152906040526000613c16565b612fb7613da6565b50565b600080601060008473ffffffffffffffffffffffffffffffffffffffff1673ffffffffffffffffffffffffffffffffffffffff168152602001908152602001600020905060005b8180549050811015613065578181815481106130205761301f6153a3565b5b906000526020600020906004020160030160009054906101000a900460ff1661305257828061304e90615190565b9350505b808061305d90615190565b915050613001565b5050919050565b600f6020528060005260406000206000915090505481565b600960009054906101000a900473ffffffffffffffffffffffffffffffffffffffff1681565b6130b2613b17565b80600060156101000a81548160ff0219169083151502179055507f687ce7b139cce234264c502946572c2ca5e8d078fb2fe51029287d78918bd3b9816040516130fb9190614654565b60405180910390a150565b61310e613b9e565b33600b60008273ffffffffffffffffffffffffffffffffffffffff1673ffffffffffffffffffffffffffffffffffffffff16815260200190815260200160002060040160009054906101000a900460ff16613195576040517f2163950f00000000000000000000000000000000000000000000000000000000815260040160405180910390fd5b600960149054906101000a900460ff1615806131ff5750600073ffffffffffffffffffffffffffffffffffffffff16600960009054906101000a900473ffffffffffffffffffffffffffffffffffffffff1673ffffffffffffffffffffffffffffffffffffffff16145b15613236576040517f486fcee200000000000000000000000000000000000000000000000000000000815260040160405180910390fd5b6132a533600960009054906101000a900473ffffffffffffffffffffffffffffffffffffffff16847f000000000000000000000000000000000000000000000000000000000000000073ffffffffffffffffffffffffffffffffffffffff16613dc1909392919063ffffffff16565b600082905080600b60003373ffffffffffffffffffffffffffffffffffffffff1673ffffffffffffffffffffffffffffffffffffffff16815260200190815260200160002060050160008282546132fc919061515c565b925050819055506002600081548092919061331690615190565b91905055505050613325613da6565b50565b60146020528060005260406000206000915090505481565b60156020528060005260406000206000915090505481565b600060608060008060006005546006600760085430601f84805461337b906150ba565b80601f01602080910402602001604051908101604052809291908181526020018280546133a7906150ba565b80156133f45780601f106133c9576101008083540402835291602001916133f4565b820191906000526020600020905b8154815290600101906020018083116133d757829003601f168201915b50505050509450838054613407906150ba565b80601f0160208091040260200160405190810160405280929190818152602001828054613433906150ba565b80156134805780601f1061345557610100808354040283529160200191613480565b820191906000526020600020905b81548152906001019060200180831161346357829003601f168201915b50505050509350955095509550955095509550909192939495565b600960149054906101000a900460ff1681565b600b6020528060005260406000206000915090508060000154908060010154908060020154908060030154908060040160009054906101000a900460ff16908060050154905086565b6000601560008373ffffffffffffffffffffffffffffffffffffffff1673ffffffffffffffffffffffffffffffffffffffff168152602001908152602001600020549050919050565b613548613b9e565b33600b60008273ffffffffffffffffffffffffffffffffffffffff1673ffffffffffffffffffffffffffffffffffffffff16815260200190815260200160002060040160009054906101000a900460ff166135cf576040517f2163950f00000000000000000000000000000000000000000000000000000000815260040160405180910390fd5b60008203613609576040517f2c5211c600000000000000000000000000000000000000000000000000000000815260040160405180910390fd5b600b60003373ffffffffffffffffffffffffffffffffffffffff1673ffffffffffffffffffffffffffffffffffffffff16815260200190815260200160002060020154821115613685576040517ff4d678b800000000000000000000000000000000000000000000000000000000815260040160405180910390fd5b81600b60003373ffffffffffffffffffffffffffffffffffffffff1673ffffffffffffffffffffffffffffffffffffffff16815260200190815260200160002060020160008282546136d7919061532d565b9250508190555081600b60003373ffffffffffffffffffffffffffffffffffffffff1673ffffffffffffffffffffffffffffffffffffffff1681526020019081526020016000206001016000828254613730919061515c565b925050819055508160036000828254613749919061532d565b9250508190555061379b33837f000000000000000000000000000000000000000000000000000000000000000073ffffffffffffffffffffffffffffffffffffffff16613bc39092919063ffffffff16565b600260008154809291906137ae90615190565b91905055503373ffffffffffffffffffffffffffffffffffffffff167f94b83bc1ebe4ddd04e2faa0e9f2883abf856cea4923e56a6ec7c8c40fb2b02ba836040516137f99190614412565b60405180910390a261383a33620f4240846138149190615207565b6040516020016138249190615b70565b6040516020818303038152906040526001613c16565b50613843613da6565b50565b60055481565b60015481565b600060159054906101000a900460ff16613898576040517f486fcee200000000000000000000000000000000000000000000000000000000815260040160405180910390fd5b60006138a26141de565b905060005b815181101561399c576000600d60008484815181106138c9576138c86153a3565b5b6020026020010151815260200190815260200160002090508060040160009054906101000a900460ff168015613903575080600301544210155b15613988573073ffffffffffffffffffffffffffffffffffffffff166315ee90d6848481518110613937576139366153a3565b5b60200260200101516040518263ffffffff1660e01b815260040161395b91906146f4565b600060405180830381600087803b15801561397557600080fd5b505af1925050508015613986575060015b505b50808061399490615190565b9150506138a7565b5050565b6139a8613b17565b600073ffffffffffffffffffffffffffffffffffffffff168173ffffffffffffffffffffffffffffffffffffffff1603613a1a5760006040517f1e4fbdf7000000000000000000000000000000000000000000000000000000008152600401613a119190614e6f565b60405180910390fd5b613a23816140b7565b50565b7f000000000000000000000000000000000000000000000000000000000000000081565b600080600080600080600b60008873ffffffffffffffffffffffffffffffffffffffff1673ffffffffffffffffffffffffffffffffffffffff168152602001908152602001600020905080600001548160010154826002015483600301548460040160009054906101000a900460ff16955095509550955095505091939590929450565b6000601660008373ffffffffffffffffffffffffffffffffffffffff1673ffffffffffffffffffffffffffffffffffffffff168152602001908152602001600020549050919050565b613b1f614238565b73ffffffffffffffffffffffffffffffffffffffff16613b3d612b6d565b73ffffffffffffffffffffffffffffffffffffffff1614613b9c57613b60614238565b6040517f118cdaa7000000000000000000000000000000000000000000000000000000008152600401613b939190614e6f565b60405180910390fd5b565b613ba6614240565b6002613bb8613bb3614281565b6142ac565b60000181905550565b565b613bd083838360016142b6565b613c1157826040517f5274afe7000000000000000000000000000000000000000000000000000000008152600401613c089190614e6f565b60405180910390fd5b505050565b601060008473ffffffffffffffffffffffffffffffffffffffff1673ffffffffffffffffffffffffffffffffffffffff1681526020019081526020016000206040518060a001604052808573ffffffffffffffffffffffffffffffffffffffff168152602001848152602001428152602001600015158152602001836007811115613ca457613ca36149b4565b5b815250908060018154018082558091505060019003906000526020600020906004020160009091909190915060008201518160000160006101000a81548173ffffffffffffffffffffffffffffffffffffffff021916908373ffffffffffffffffffffffffffffffffffffffff1602179055506020820151816001019081613d2c9190615890565b506040820151816002015560608201518160030160006101000a81548160ff02191690831515021790555060808201518160030160016101000a81548160ff02191690836007811115613d8257613d816149b4565b5b0217905550505060116000815480929190613d9c90615190565b9190505550505050565b6001613db8613db3614281565b6142ac565b60000181905550565b613dcf848484846001614320565b613e1057836040517f5274afe7000000000000000000000000000000000000000000000000000000008152600401613e079190614e6f565b60405180910390fd5b50505050565b613e1e61439b565b60008060146101000a81548160ff0219169083151502179055507f5db9ee0a495bf2e6ff9c91a7834c1ba4fdd244a5e8aa4e537bd38aeae4b073aa613e61614238565b604051613e6e9190614e6f565b60405180910390a1565b613e80611a43565b15613eb7576040517fd93c066500000000000000000000000000000000000000000000000000000000815260040160405180910390fd5b565b600b60008273ffffffffffffffffffffffffffffffffffffffff1673ffffffffffffffffffffffffffffffffffffffff16815260200190815260200160002060040160009054906101000a900460ff166140b4576001600b60008373ffffffffffffffffffffffffffffffffffffffff1673ffffffffffffffffffffffffffffffffffffffff16815260200190815260200160002060040160006101000a81548160ff02191690831515021790555042600b60008373ffffffffffffffffffffffffffffffffffffffff1673ffffffffffffffffffffffffffffffffffffffff168152602001908152602001600020600301819055506064601460008373ffffffffffffffffffffffffffffffffffffffff1673ffffffffffffffffffffffffffffffffffffffff168152602001908152602001600020819055506001600c60008373ffffffffffffffffffffffffffffffffffffffff1673ffffffffffffffffffffffffffffffffffffffff16815260200190815260200160002060006101000a81548160ff0219169083151502179055508073ffffffffffffffffffffffffffffffffffffffff167f54db7a5cb4735e1aac1f53db512d3390390bb6637bd30ad4bf9fc98667d9b9b960405160405180910390a26140b3816040518060600160405280603e8152602001615ba2603e91396006613c16565b5b50565b60008060009054906101000a900473ffffffffffffffffffffffffffffffffffffffff169050816000806101000a81548173ffffffffffffffffffffffffffffffffffffffff021916908373ffffffffffffffffffffffffffffffffffffffff1602179055508173ffffffffffffffffffffffffffffffffffffffff168173ffffffffffffffffffffffffffffffffffffffff167f8be0079c531659141344cd1fd0a4f28419497f9722a3daafe3b4186f6b6457e060405160405180910390a35050565b614183613e78565b6001600060146101000a81548160ff0219169083151502179055507f62e78cea01bee320cd4e420270b5ea74000d11b0c9f74754ebdbfc544b05a2586141c7614238565b6040516141d49190614e6f565b60405180910390a1565b60606000600a67ffffffffffffffff8111156141fd576141fc6156bf565b5b60405190808252806020026020018201604052801561422b5781602001602082028036833780820191505090505b5090506000819250505090565b600033905090565b6142486143db565b1561427f576040517f3ee5aeb500000000000000000000000000000000000000000000000000000000815260040160405180910390fd5b565b60007f9b779b17422d0df92223018b32b4d1fa46e071723d6817e2486d003becc55f0060001b905090565b6000819050919050565b60008063a9059cbb60e01b90506040518160005260001960601c8616600452846024526020600060446000808b5af192506001600051148316614312578383151615614305573d6000823e3d81fd5b6000873b113d1516831692505b806040525050949350505050565b6000806323b872dd60e01b90506040518160005260001960601c871660045260001960601c8616602452846044526020600060646000808c5af19250600160005114831661438757838315161561437a573d6000823e3d81fd5b6000883b113d1516831692505b806040526000606052505095945050505050565b6143a3611a43565b6143d9576040517f8dfc202b00000000000000000000000000000000000000000000000000000000815260040160405180910390fd5b565b600060026143ef6143ea614281565b6142ac565b6000015414905090565b6000819050919050565b61440c816143f9565b82525050565b60006020820190506144276000830184614403565b92915050565b600081519050919050565b600082825260208201905092915050565b60005b8381101561446757808201518184015260208101905061444c565b60008484015250505050565b6000601f19601f8301169050919050565b600061448f8261442d565b6144998185614438565b93506144a9818560208601614449565b6144b281614473565b840191505092915050565b600060208201905081810360008301526144d78184614484565b905092915050565b600080fd5b600080fd5b600073ffffffffffffffffffffffffffffffffffffffff82169050919050565b6000614514826144e9565b9050919050565b61452481614509565b811461452f57600080fd5b50565b6000813590506145418161451b565b92915050565b60006020828403121561455d5761455c6144df565b5b600061456b84828501614532565b91505092915050565b600080fd5b600080fd5b600080fd5b60008083601f84011261459957614598614574565b5b8235905067ffffffffffffffff8111156145b6576145b5614579565b5b6020830191508360018202830111156145d2576145d161457e565b5b9250929050565b6000806000604084860312156145f2576145f16144df565b5b600061460086828701614532565b935050602084013567ffffffffffffffff811115614621576146206144e4565b5b61462d86828701614583565b92509250509250925092565b60008115159050919050565b61464e81614639565b82525050565b60006020820190506146696000830184614645565b92915050565b614678816143f9565b811461468357600080fd5b50565b6000813590506146958161466f565b92915050565b600080604083850312156146b2576146b16144df565b5b60006146c085828601614532565b92505060206146d185828601614686565b9150509250929050565b6000819050919050565b6146ee816146db565b82525050565b600060208201905061470960008301846146e5565b92915050565b614718816146db565b811461472357600080fd5b50565b6000813590506147358161470f565b92915050565b600060208284031215614751576147506144df565b5b600061475f84828501614726565b91505092915050565b6000819050919050565b600061478d614788614783846144e9565b614768565b6144e9565b9050919050565b600061479f82614772565b9050919050565b60006147b182614794565b9050919050565b6147c1816147a6565b82525050565b60006020820190506147dc60008301846147b8565b92915050565b6000602082840312156147f8576147f76144df565b5b600061480684828501614686565b91505092915050565b600081519050919050565b600082825260208201905092915050565b6000819050602082019050919050565b614844816146db565b82525050565b6000614856838361483b565b60208301905092915050565b6000602082019050919050565b600061487a8261480f565b614884818561481a565b935061488f8361482b565b8060005b838110156148c05781516148a7888261484a565b97506148b283614862565b925050600181019050614893565b5085935050505092915050565b600060208201905081810360008301526148e7818461486f565b905092915050565b60008083601f84011261490557614904614574565b5b8235905067ffffffffffffffff81111561492257614921614579565b5b60208301915083600182028301111561493e5761493d61457e565b5b9250929050565b60008060006040848603121561495e5761495d6144df565b5b600061496c86828701614532565b935050602084013567ffffffffffffffff81111561498d5761498c6144e4565b5b614999868287016148ef565b92509250509250925092565b6149ae81614509565b82525050565b7f4e487b7100000000000000000000000000000000000000000000000000000000600052602160045260246000fd5b600881106149f4576149f36149b4565b5b50565b6000819050614a05826149e3565b919050565b6000614a15826149f7565b9050919050565b614a2581614a0a565b82525050565b600060a082019050614a4060008301886149a5565b8181036020830152614a528187614484565b9050614a616040830186614403565b614a6e6060830185614645565b614a7b6080830184614a1c565b9695505050505050565b600080600080600080600060a0888a031215614aa457614aa36144df565b5b6000614ab28a828b01614532565b9750506020614ac38a828b01614686565b965050604088013567ffffffffffffffff811115614ae457614ae36144e4565b5b614af08a828b01614583565b95509550506060614b038a828b01614686565b935050608088013567ffffffffffffffff811115614b2457614b236144e4565b5b614b308a828b01614583565b925092505092959891949750929550565b600060a082019050614b566000830188614403565b614b636020830187614403565b614b706040830186614403565b614b7d6060830185614645565b614b8a6080830184614403565b9695505050505050565b600060c082019050614ba960008301896149a5565b614bb66020830188614403565b614bc36040830187614403565b614bd06060830186614403565b614bdd6080830185614645565b614bea60a0830184614645565b979650505050505050565b600081519050919050565b600082825260208201905092915050565b6000819050602082019050919050565b614c2a81614509565b82525050565b600082825260208201905092915050565b6000614c4c8261442d565b614c568185614c30565b9350614c66818560208601614449565b614c6f81614473565b840191505092915050565b614c83816143f9565b82525050565b614c9281614639565b82525050565b614ca181614a0a565b82525050565b600060a083016000830151614cbf6000860182614c21565b5060208301518482036020860152614cd78282614c41565b9150506040830151614cec6040860182614c7a565b506060830151614cff6060860182614c89565b506080830151614d126080860182614c98565b508091505092915050565b6000614d298383614ca7565b905092915050565b6000602082019050919050565b6000614d4982614bf5565b614d538185614c00565b935083602082028501614d6585614c11565b8060005b85811015614da15784840389528151614d828582614d1d565b9450614d8d83614d31565b925060208a01995050600181019050614d69565b50829750879550505050505092915050565b60006020820190508181036000830152614dcd8184614d3e565b905092915050565b60008060008060008060a08789031215614df257614df16144df565b5b6000614e0089828a01614726565b9650506020614e1189828a01614532565b9550506040614e2289828a01614686565b9450506060614e3389828a01614686565b935050608087013567ffffffffffffffff811115614e5457614e536144e4565b5b614e6089828a016148ef565b92509250509295509295509295565b6000602082019050614e8460008301846149a5565b92915050565b600061010082019050614ea0600083018b6149a5565b614ead602083018a614403565b614eba6040830189614403565b614ec76060830188614403565b614ed46080830187614645565b614ee160a0830186614645565b614eee60c08301856149a5565b81810360e0830152614f008184614484565b90509998505050505050505050565b614f1881614639565b8114614f2357600080fd5b50565b600081359050614f3581614f0f565b92915050565b600060208284031215614f5157614f506144df565b5b6000614f5f84828501614f26565b91505092915050565b600060c082019050614f7d60008301896146e5565b8181036020830152614f8f8188614484565b90508181036040830152614fa38187614484565b9050614fb26060830186614403565b614fbf60808301856149a5565b614fcc60a0830184614403565b979650505050505050565b600060c082019050614fec6000830189614403565b614ff96020830188614403565b6150066040830187614403565b6150136060830186614403565b6150206080830185614645565b61502d60a0830184614403565b979650505050505050565b600060a08201905061504d6000830188614403565b61505a6020830187614403565b6150676040830186614403565b6150746060830185614403565b6150816080830184614645565b9695505050505050565b7f4e487b7100000000000000000000000000000000000000000000000000000000600052602260045260246000fd5b600060028204905060018216806150d257607f821691505b6020821081036150e5576150e461508b565b5b50919050565b6000815190506150fa8161466f565b92915050565b600060208284031215615116576151156144df565b5b6000615124848285016150eb565b91505092915050565b7f4e487b7100000000000000000000000000000000000000000000000000000000600052601160045260246000fd5b6000615167826143f9565b9150615172836143f9565b925082820190508082111561518a5761518961512d565b5b92915050565b600061519b826143f9565b91507fffffffffffffffffffffffffffffffffffffffffffffffffffffffffffffffff82036151cd576151cc61512d565b5b600182019050919050565b7f4e487b7100000000000000000000000000000000000000000000000000000000600052601260045260246000fd5b6000615212826143f9565b915061521d836143f9565b92508261522d5761522c6151d8565b5b828204905092915050565b600081905092915050565b7f42696c6c20706169643a20000000000000000000000000000000000000000000600082015250565b6000615279600b83615238565b915061528482615243565b600b82019050919050565b6000819050919050565b6152aa6152a5826143f9565b61528f565b82525050565b7f20635553442073656e7400000000000000000000000000000000000000000000600082015250565b60006152e6600a83615238565b91506152f1826152b0565b600a82019050919050565b60006153078261526c565b91506153138284615299565b602082019150615322826152d9565b915081905092915050565b6000615338826143f9565b9150615343836143f9565b925082820390508181111561535b5761535a61512d565b5b92915050565b600061536c826143f9565b9150615377836143f9565b9250828202615385816143f9565b9150828204841483151761539c5761539b61512d565b5b5092915050565b7f4e487b7100000000000000000000000000000000000000000000000000000000600052603260045260246000fd5b60006153dd826143f9565b91506153e8836143f9565b9250826153f8576153f76151d8565b5b828206905092915050565b60006040820190506154186000830185614403565b6154256020830184614403565b9392505050565b7f526f756e642d75703a2073617665642000000000000000000000000000000000600082015250565b6000615462601083615238565b915061546d8261542c565b601082019050919050565b7f2063555344206578747261000000000000000000000000000000000000000000600082015250565b60006154ae600b83615238565b91506154b982615478565b600b82019050919050565b60006154cf82615455565b91506154db8284615299565b6020820191506154ea826154a1565b915081905092915050565b600082825260208201905092915050565b82818337600083830152505050565b600061552183856154f5565b935061552e838584615506565b61553783614473565b840190509392505050565b600060a08201905061555760008301896149a5565b6155646020830188614403565b8181036040830152615577818688615515565b90506155866060830185614403565b6155936080830184614403565b979650505050505050565b7f496e76616c6964207369676e6174757265000000000000000000000000000000600082015250565b60006155d4601183614438565b91506155df8261559e565b602082019050919050565b60006020820190508181036000830152615603816155c7565b9050919050565b600081905092915050565b6000615621838561560a565b935061562e838584615506565b82840190509392505050565b6000615647828486615615565b91508190509392505050565b7f5472616e73616374696f6e206661696c65640000000000000000000000000000600082015250565b6000615689601283614438565b915061569482615653565b602082019050919050565b600060208201905081810360008301526156b88161567c565b9050919050565b7f4e487b7100000000000000000000000000000000000000000000000000000000600052604160045260246000fd5b60008190508160005260206000209050919050565b60006020601f8301049050919050565b600082821b905092915050565b6000600883026157507fffffffffffffffffffffffffffffffffffffffffffffffffffffffffffffffff82615713565b61575a8683615713565b95508019841693508086168417925050509392505050565b600061578d615788615783846143f9565b614768565b6143f9565b9050919050565b6000819050919050565b6157a783615772565b6157bb6157b382615794565b848454615720565b825550505050565b600090565b6157d06157c3565b6157db81848461579e565b505050565b5b818110156157ff576157f46000826157c8565b6001810190506157e1565b5050565b601f82111561584457615815816156ee565b61581e84615703565b8101602085101561582d578190505b61584161583985615703565b8301826157e0565b50505b505050565b600082821c905092915050565b600061586760001984600802615849565b1980831691505092915050565b60006158808383615856565b9150826002028217905092915050565b6158998261442d565b67ffffffffffffffff8111156158b2576158b16156bf565b5b6158bc82546150ba565b6158c7828285615803565b600060209050601f8311600181146158fa57600084156158e8578287015190505b6158f28582615874565b86555061595a565b601f198416615908866156ee565b60005b828110156159305784890151825560018201915060208501945060208101905061590b565b8683101561594d5784890151615949601f891682615856565b8355505b6001600288020188555050505b505050505050565b7f42696c6c20637265617465643a20000000000000000000000000000000000000600082015250565b6000615998600e83615238565b91506159a382615962565b600e82019050919050565b60006159ba8385615238565b93506159c7838584615506565b82840190509392505050565b60006159de8261598b565b91506159eb8284866159ae565b91508190509392505050565b6000819050919050565b6000615a1c615a17615a12846159f7565b614768565b6143f9565b9050919050565b615a2c81615a01565b82525050565b6000604082019050615a476000830185614403565b615a546020830184615a23565b9392505050565b7f4465706f73697465642000000000000000000000000000000000000000000000600082015250565b6000615a91600a83615238565b9150615a9c82615a5b565b600a82019050919050565b7f2063555344000000000000000000000000000000000000000000000000000000600082015250565b6000615add600583615238565b9150615ae882615aa7565b600582019050919050565b6000615afe82615a84565b9150615b0a8284615299565b602082019150615b1982615ad0565b915081905092915050565b7f5769746864726577200000000000000000000000000000000000000000000000600082015250565b6000615b5a600983615238565b9150615b6582615b24565b600982019050919050565b6000615b7b82615b4d565b9150615b878284615299565b602082019150615b9682615ad0565b91508190509291505056fe57656c636f6d6520746f204175746f506f636b65742120596f7572206175746f6e6f6d6f757320736176696e6773206167656e742069732072656164792ea26469706673582212202d6fb19b8fc7dea32abca998e00591642ed70dcbee8aa2504fdbd4934940ac9864736f6c63430008140033",
  "linkReferences": {},
  "deployedLinkReferences": {}
}