{
  "_format": "hh-sol-artifact-1",
  "contractName": "AutoPocketAgent",
  "sourceName": "contracts/AutoPocketAgent.sol",
  "abi": [
    {
      "inputs": [],
      "stateMutability": "nonpayable",
      "type": "constructor"
    },
    {
      "inputs": [],
      "name": "AgentNotActive",
      "type": "error"
    },
    {
      "inputs": [],
      "name": "AlreadyRegistered",
      "type": "error"
    },
    {
      "inputs": [],
      "name": "BillAlreadyExists",
      "type": "error"
    },
    {
      "inputs": [],
      "name": "BillNotFound",
      "type": "error"
    },
    {
      "inputs": [],
      "name": "InsufficientBalance",
      "type": "error"
    },
    {
      "inputs": [],
      "name": "InvalidAmount",
      "type": "error"
    },
    {
      "inputs": [],
      "name": "InvalidPayment",
      "type": "error"
    },
    {
      "inputs": [],
      "name": "InvalidRecipient",
      "type": "error"
    },
    {
      "inputs": [],
      "name": "NotAuthorized",
      "type": "error"
    },
    {
      "inputs": [
        {
          "internalType": "address",
          "name": "owner",
          "type": "address"
        }
      ],
      "name": "OwnableInvalidOwner",
      "type": "error"
    },
    {
      "inputs": [
        {
          "internalType": "address",
          "name": "account",
          "type": "address"
        }
      ],
      "name": "OwnableUnauthorizedAccount",
      "type": "error"
    },
    {
      "inputs": [],
      "name": "PaymentAlreadyProcessed",
      "type": "error"
    },
    {
      "inputs": [],
      "name": "PaymentNotDue",
      "type": "error"
    },
    {
      "inputs": [],
      "name": "ReentrancyGuardReentrantCall",
      "type": "error"
    },
    {
      "inputs": [
        {
          "internalType": "address",
          "name": "token",
          "type": "address"
        }
      ],
      "name": "SafeERC20FailedOperation",
      "type": "error"
    },
    {
      "inputs": [],
      "name": "UserNotRegistered",
      "type": "error"
    },
    {
      "anonymous": false,
      "inputs": [
        {
          "indexed": false,
          "internalType": "bool",
          "name": "active",
          "type": "bool"
        }
      ],
      "name": "AgentActivated",
      "type": "event"
    },
    {
      "anonymous": false,
      "inputs": [
        {
          "indexed": true,
          "internalType": "bytes32",
          "name": "agentId",
          "type": "bytes32"
        },
        {
          "indexed": false,
          "internalType": "string",
          "name": "name",
          "type": "string"
        },
        {
          "indexed": false,
          "internalType": "string",
          "name": "version",
          "type": "string"
        }
      ],
      "name": "AgentInitialized",
      "type": "event"
    },
    {
      "anonymous": false,
      "inputs": [
        {
          "indexed": true,
          "internalType": "address",
          "name": "user",
          "type": "address"
        },
        {
          "indexed": false,
          "internalType": "uint256",
          "name": "amount",
          "type": "uint256"
        },
        {
          "indexed": false,
          "internalType": "uint256",
          "name": "remaining",
          "type": "uint256"
        }
      ],
      "name": "ApiUsageConsumed",
      "type": "event"
    },
    {
      "anonymous": false,
      "inputs": [
        {
          "indexed": true,
          "internalType": "bytes32",
          "name": "billId",
          "type": "bytes32"
        }
      ],
      "name": "BillCancelled",
      "type": "event"
    },
    {
      "anonymous": false,
      "inputs": [
        {
          "indexed": true,
          "internalType": "bytes32",
          "name": "billId",
          "type": "bytes32"
        },
        {
          "indexed": true,
          "internalType": "address",
          "name": "user",
          "type": "address"
        },
        {
          "indexed": false,
          "internalType": "uint256",
          "name": "amount",
          "type": "uint256"
        },
        {
          "indexed": false,
          "internalType": "uint256",
          "name": "frequency",
          "type": "uint256"
        }
      ],
      "name": "BillCreated",
      "type": "event"
    },
    {
      "anonymous": false,
      "inputs": [
        {
          "indexed": true,
          "internalType": "bytes32",
          "name": "billId",
          "type": "bytes32"
        },
        {
          "indexed": true,
          "internalType": "address",
          "name": "user",
          "type": "address"
        },
        {
          "indexed": false,
          "internalType": "uint256",
          "name": "amount",
          "type": "uint256"
        }
      ],
      "name": "BillExecuted",
      "type": "event"
    },
    {
      "anonymous": false,
      "inputs": [
        {
          "indexed": true,
          "internalType": "address",
          "name": "from",
          "type": "address"
        },
        {
          "indexed": false,
          "internalType": "uint256",
          "name": "amount",
          "type": "uint256"
        }
      ],
      "name": "FundsReceived",
      "type": "event"
    },
    {
      "anonymous": false,
      "inputs": [
        {
          "indexed": true,
          "internalType": "address",
          "name": "previousOwner",
          "type": "address"
        },
        {
          "indexed": true,
          "internalType": "address",
          "name": "newOwner",
          "type": "address"
        }
      ],
      "name": "OwnershipTransferred",
      "type": "event"
    },
    {
      "anonymous": false,
      "inputs": [
        {
          "indexed": true,
          "internalType": "bytes32",
          "name": "paymentId",
          "type": "bytes32"
        },
        {
          "indexed": true,
          "internalType": "address",
          "name": "payer",
          "type": "address"
        },
        {
          "indexed": false,
          "internalType": "uint256",
          "name": "amount",
          "type": "uint256"
        },
        {
          "indexed": false,
          "internalType": "string",
          "name": "resource",
          "type": "string"
        }
      ],
      "name": "PaymentReceived",
      "type": "event"
    },
    {
      "anonymous": false,
      "inputs": [
        {
          "indexed": true,
          "internalType": "bytes32",
          "name": "paymentId",
          "type": "bytes32"
        },
        {
          "indexed": false,
          "internalType": "uint256",
          "name": "amount",
          "type": "uint256"
        }
      ],
      "name": "PaymentSettled",
      "type": "event"
    },
    {
      "anonymous": false,
      "inputs": [
        {
          "indexed": true,
          "internalType": "address",
          "name": "user",
          "type": "address"
        },
        {
          "indexed": false,
          "internalType": "uint256",
          "name": "amount",
          "type": "uint256"
        }
      ],
      "name": "RewardsClaimed",
      "type": "event"
    },
    {
      "anonymous": false,
      "inputs": [
        {
          "indexed": true,
          "internalType": "address",
          "name": "user",
          "type": "address"
        },
        {
          "indexed": false,
          "internalType": "uint256",
          "name": "amount",
          "type": "uint256"
        },
        {
          "indexed": false,
          "internalType": "uint256",
          "name": "roundUp",
          "type": "uint256"
        }
      ],
      "name": "SavingsDeposited",
      "type": "event"
    },
    {
      "anonymous": false,
      "inputs": [
        {
          "indexed": true,
          "internalType": "address",
          "name": "user",
          "type": "address"
        },
        {
          "indexed": false,
          "internalType": "uint256",
          "name": "amount",
          "type": "uint256"
        }
      ],
      "name": "SavingsWithdrawn",
      "type": "event"
    },
    {
      "anonymous": false,
      "inputs": [
        {
          "indexed": true,
          "internalType": "address",
          "name": "user",
          "type": "address"
        }
      ],
      "name": "UserRegistered",
      "type": "event"
    },
    {
      "inputs": [],
      "name": "CELO",
      "outputs": [
        {
          "internalType": "address",
          "name": "",
          "type": "address"
        }
      ],
      "stateMutability": "view",
      "type": "function"
    },
    {
      "inputs": [],
      "name": "CUSD",
      "outputs": [
        {
          "internalType": "address",
          "name": "",
          "type": "address"
        }
      ],
      "stateMutability": "view",
      "type": "function"
    },
    {
      "inputs": [],
      "name": "actionCount",
      "outputs": [
        {
          "internalType": "uint256",
          "name": "",
          "type": "uint256"
        }
      ],
      "stateMutability": "view",
      "type": "function"
    },
    {
      "inputs": [],
      "name": "agentId",
      "outputs": [
        {
          "internalType": "bytes32",
          "name": "",
          "type": "bytes32"
        }
      ],
      "stateMutability": "view",
      "type": "function"
    },
    {
      "inputs": [],
      "name": "agentName",
      "outputs": [
        {
          "internalType": "string",
          "name": "",
          "type": "string"
        }
      ],
      "stateMutability": "view",
      "type": "function"
    },
    {
      "inputs": [],
      "name": "agentVersion",
      "outputs": [
        {
          "internalType": "string",
          "name": "",
          "type": "string"
        }
      ],
      "stateMutability": "view",
      "type": "function"
    },
    {
      "inputs": [
        {
          "internalType": "address",
          "name": "",
          "type": "address"
        }
      ],
      "name": "apiUsageBalance",
      "outputs": [
        {
          "internalType": "uint256",
          "name": "",
          "type": "uint256"
        }
      ],
      "stateMutability": "view",
      "type": "function"
    },
    {
      "inputs": [
        {
          "internalType": "address",
          "name": "_user",
          "type": "address"
        }
      ],
      "name": "authorizeUser",
      "outputs": [],
      "stateMutability": "nonpayable",
      "type": "function"
    },
    {
      "inputs": [
        {
          "internalType": "address",
          "name": "",
          "type": "address"
        }
      ],
      "name": "authorizedUsers",
      "outputs": [
        {
          "internalType": "bool",
          "name": "",
          "type": "bool"
        }
      ],
      "stateMutability": "view",
      "type": "function"
    },
    {
      "inputs": [
        {
          "internalType": "bytes32",
          "name": "",
          "type": "bytes32"
        }
      ],
      "name": "bills",
      "outputs": [
        {
          "internalType": "address",
          "name": "recipient",
          "type": "address"
        },
        {
          "internalType": "uint256",
          "name": "amount",
          "type": "uint256"
        },
        {
          "internalType": "uint256",
          "name": "frequency",
          "type": "uint256"
        },
        {
          "internalType": "uint256",
          "name": "nextPaymentTime",
          "type": "uint256"
        },
        {
          "internalType": "bool",
          "name": "isActive",
          "type": "bool"
        },
        {
          "internalType": "bool",
          "name": "isPaid",
          "type": "bool"
        },
        {
          "internalType": "address",
          "name": "createdBy",
          "type": "address"
        },
        {
          "internalType": "string",
          "name": "description",
          "type": "string"
        }
      ],
      "stateMutability": "view",
      "type": "function"
    },
    {
      "inputs": [
        {
          "internalType": "bytes32",
          "name": "_billId",
          "type": "bytes32"
        }
      ],
      "name": "cancelBill",
      "outputs": [],
      "stateMutability": "nonpayable",
      "type": "function"
    },
    {
      "inputs": [
        {
          "internalType": "address",
          "name": "_user",
          "type": "address"
        },
        {
          "internalType": "uint256",
          "name": "_amount",
          "type": "uint256"
        }
      ],
      "name": "consumeApiUsage",
      "outputs": [
        {
          "internalType": "uint256",
          "name": "remaining",
          "type": "uint256"
        }
      ],
      "stateMutability": "nonpayable",
      "type": "function"
    },
    {
      "inputs": [
        {
          "internalType": "bytes32",
          "name": "_billId",
          "type": "bytes32"
        },
        {
          "internalType": "address",
          "name": "_recipient",
          "type": "address"
        },
        {
          "internalType": "uint256",
          "name": "_amount",
          "type": "uint256"
        },
        {
          "internalType": "uint256",
          "name": "_frequencySeconds",
          "type": "uint256"
        },
        {
          "internalType": "string",
          "name": "_description",
          "type": "string"
        }
      ],
      "name": "createBill",
      "outputs": [],
      "stateMutability": "nonpayable",
      "type": "function"
    },
    {
      "inputs": [
        {
          "internalType": "uint256",
          "name": "_amount",
          "type": "uint256"
        }
      ],
      "name": "depositSavings",
      "outputs": [],
      "stateMutability": "nonpayable",
      "type": "function"
    },
    {
      "inputs": [
        {
          "internalType": "uint256",
          "name": "_transactionAmount",
          "type": "uint256"
        },
        {
          "internalType": "uint256",
          "name": "_roundUpTo",
          "type": "uint256"
        }
      ],
      "name": "depositWithRoundUp",
      "outputs": [],
      "stateMutability": "nonpayable",
      "type": "function"
    },
    {
      "inputs": [
        {
          "internalType": "bytes32",
          "name": "_billId",
          "type": "bytes32"
        }
      ],
      "name": "executeBill",
      "outputs": [],
      "stateMutability": "nonpayable",
      "type": "function"
    },
    {
      "inputs": [],
      "name": "getAgentIdentity",
      "outputs": [
        {
          "internalType": "bytes32",
          "name": "id",
          "type": "bytes32"
        },
        {
          "internalType": "string",
          "name": "name",
          "type": "string"
        },
        {
          "internalType": "string",
          "name": "version",
          "type": "string"
        },
        {
          "internalType": "uint256",
          "name": "reputation",
          "type": "uint256"
        },
        {
          "internalType": "bool",
          "name": "active",
          "type": "bool"
        }
      ],
      "stateMutability": "view",
      "type": "function"
    },
    {
      "inputs": [],
      "name": "getAgentStats",
      "outputs": [
        {
          "internalType": "bool",
          "name": "active",
          "type": "bool"
        },
        {
          "internalType": "uint256",
          "name": "actions",
          "type": "uint256"
        },
        {
          "internalType": "uint256",
          "name": "lastAction",
          "type": "uint256"
        },
        {
          "internalType": "uint256",
          "name": "totalSaved",
          "type": "uint256"
        },
        {
          "internalType": "uint256",
          "name": "billsPaid",
          "type": "uint256"
        },
        {
          "internalType": "uint256",
          "name": "userCount",
          "type": "uint256"
        }
      ],
      "stateMutability": "view",
      "type": "function"
    },
    {
      "inputs": [
        {
          "internalType": "address",
          "name": "_user",
          "type": "address"
        }
      ],
      "name": "getApiUsageBalance",
      "outputs": [
        {
          "internalType": "uint256",
          "name": "",
          "type": "uint256"
        }
      ],
      "stateMutability": "view",
      "type": "function"
    },
    {
      "inputs": [
        {
          "internalType": "bytes32",
          "name": "_billId",
          "type": "bytes32"
        }
      ],
      "name": "getBillDetails",
      "outputs": [
        {
          "internalType": "address",
          "name": "recipient",
          "type": "address"
        },
        {
          "internalType": "uint256",
          "name": "amount",
          "type": "uint256"
        },
        {
          "internalType": "uint256",
          "name": "nextPayment",
          "type": "uint256"
        },
        {
          "internalType": "bool",
          "name": "isActiveStatus",
          "type": "bool"
        }
      ],
      "stateMutability": "view",
      "type": "function"
    },
    {
      "inputs": [
        {
          "internalType": "bytes32",
          "name": "_paymentId",
          "type": "bytes32"
        }
      ],
      "name": "getPaymentDetails",
      "outputs": [
        {
          "internalType": "address",
          "name": "payer",
          "type": "address"
        },
        {
          "internalType": "address",
          "name": "token",
          "type": "address"
        },
        {
          "internalType": "uint256",
          "name": "amount",
          "type": "uint256"
        },
        {
          "internalType": "uint256",
          "name": "timestamp",
          "type": "uint256"
        },
        {
          "internalType": "string",
          "name": "resource",
          "type": "string"
        },
        {
          "internalType": "bool",
          "name": "processed",
          "type": "bool"
        }
      ],
      "stateMutability": "view",
      "type": "function"
    },
    {
      "inputs": [
        {
          "internalType": "address",
          "name": "_user",
          "type": "address"
        }
      ],
      "name": "getUserSavings",
      "outputs": [
        {
          "internalType": "uint256",
          "name": "total",
          "type": "uint256"
        },
        {
          "internalType": "uint256",
          "name": "available",
          "type": "uint256"
        },
        {
          "internalType": "uint256",
          "name": "lastDeposit",
          "type": "uint256"
        }
      ],
      "stateMutability": "view",
      "type": "function"
    },
    {
      "inputs": [],
      "name": "isActive",
      "outputs": [
        {
          "internalType": "bool",
          "name": "",
          "type": "bool"
        }
      ],
      "stateMutability": "view",
      "type": "function"
    },
    {
      "inputs": [
        {
          "internalType": "bytes32",
          "name": "_paymentId",
          "type": "bytes32"
        }
      ],
      "name": "isPaymentProcessed",
      "outputs": [
        {
          "internalType": "bool",
          "name": "",
          "type": "bool"
        }
      ],
      "stateMutability": "view",
      "type": "function"
    },
    {
      "inputs": [],
      "name": "lastActionTimestamp",
      "outputs": [
        {
          "internalType": "uint256",
          "name": "",
          "type": "uint256"
        }
      ],
      "stateMutability": "view",
      "type": "function"
    },
    {
      "inputs": [
        {
          "internalType": "bytes32",
          "name": "_paymentId",
          "type": "bytes32"
        },
        {
          "internalType": "address",
          "name": "_payer",
          "type": "address"
        },
        {
          "internalType": "address",
          "name": "_token",
          "type": "address"
        },
        {
          "internalType": "uint256",
          "name": "_amount",
          "type": "uint256"
        },
        {
          "internalType": "string",
          "name": "_resource",
          "type": "string"
        }
      ],
      "name": "notifyPaymentReceived",
      "outputs": [
        {
          "internalType": "bytes32",
          "name": "",
          "type": "bytes32"
        }
      ],
      "stateMutability": "nonpayable",
      "type": "function"
    },
    {
      "inputs": [],
      "name": "owner",
      "outputs": [
        {
          "internalType": "address",
          "name": "",
          "type": "address"
        }
      ],
      "stateMutability": "view",
      "type": "function"
    },
    {
      "inputs": [
        {
          "internalType": "bytes32",
          "name": "",
          "type": "bytes32"
        }
      ],
      "name": "paymentRecords",
      "outputs": [
        {
          "internalType": "address",
          "name": "payer",
          "type": "address"
        },
        {
          "internalType": "address",
          "name": "token",
          "type": "address"
        },
        {
          "internalType": "uint256",
          "name": "amount",
          "type": "uint256"
        },
        {
          "internalType": "uint256",
          "name": "timestamp",
          "type": "uint256"
        },
        {
          "internalType": "string",
          "name": "resource",
          "type": "string"
        },
        {
          "internalType": "bool",
          "name": "processed",
          "type": "bool"
        }
      ],
      "stateMutability": "view",
      "type": "function"
    },
    {
      "inputs": [],
      "name": "registerUser",
      "outputs": [],
      "stateMutability": "nonpayable",
      "type": "function"
    },
    {
      "inputs": [],
      "name": "renounceOwnership",
      "outputs": [],
      "stateMutability": "nonpayable",
      "type": "function"
    },
    {
      "inputs": [],
      "name": "reputationScore",
      "outputs": [
        {
          "internalType": "uint256",
          "name": "",
          "type": "uint256"
        }
      ],
      "stateMutability": "view",
      "type": "function"
    },
    {
      "inputs": [
        {
          "internalType": "address",
          "name": "_user",
          "type": "address"
        }
      ],
      "name": "revokeUser",
      "outputs": [],
      "stateMutability": "nonpayable",
      "type": "function"
    },
    {
      "inputs": [
        {
          "internalType": "bool",
          "name": "_active",
          "type": "bool"
        }
      ],
      "name": "setActive",
      "outputs": [],
      "stateMutability": "nonpayable",
      "type": "function"
    },
    {
      "inputs": [],
      "name": "totalBillsPaid",
      "outputs": [
        {
          "internalType": "uint256",
          "name": "",
          "type": "uint256"
        }
      ],
      "stateMutability": "view",
      "type": "function"
    },
    {
      "inputs": [],
      "name": "totalPaymentsReceived",
      "outputs": [
        {
          "internalType": "uint256",
          "name": "",
          "type": "uint256"
        }
      ],
      "stateMutability": "view",
      "type": "function"
    },
    {
      "inputs": [],
      "name": "totalSavings",
      "outputs": [
        {
          "internalType": "uint256",
          "name": "",
          "type": "uint256"
        }
      ],
      "stateMutability": "view",
      "type": "function"
    },
    {
      "inputs": [
        {
          "internalType": "address",
          "name": "newOwner",
          "type": "address"
        }
      ],
      "name": "transferOwnership",
      "outputs": [],
      "stateMutability": "nonpayable",
      "type": "function"
    },
    {
      "inputs": [
        {
          "internalType": "uint256",
          "name": "_newScore",
          "type": "uint256"
        }
      ],
      "name": "updateReputation",
      "outputs": [],
      "stateMutability": "nonpayable",
      "type": "function"
    },
    {
      "inputs": [
        {
          "internalType": "address",
          "name": "",
          "type": "address"
        },
        {
          "internalType": "uint256",
          "name": "",
          "type": "uint256"
        }
      ],
      "name": "userBills",
      "outputs": [
        {
          "internalType": "address",
          "name": "recipient",
          "type": "address"
        },
        {
          "internalType": "uint256",
          "name": "amount",
          "type": "uint256"
        },
        {
          "internalType": "uint256",
          "name": "frequency",
          "type": "uint256"
        },
        {
          "internalType": "uint256",
          "name": "nextPaymentTime",
          "type": "uint256"
        },
        {
          "internalType": "bool",
          "name": "isActive",
          "type": "bool"
        },
        {
          "internalType": "bool",
          "name": "isPaid",
          "type": "bool"
        },
        {
          "internalType": "address",
          "name": "createdBy",
          "type": "address"
        },
        {
          "internalType": "string",
          "name": "description",
          "type": "string"
        }
      ],
      "stateMutability": "view",
      "type": "function"
    },
    {
      "inputs": [
        {
          "internalType": "address",
          "name": "",
          "type": "address"
        }
      ],
      "name": "userSavings",
      "outputs": [
        {
          "internalType": "uint256",
          "name": "totalDeposited",
          "type": "uint256"
        },
        {
          "internalType": "uint256",
          "name": "totalWithdrawn",
          "type": "uint256"
        },
        {
          "internalType": "uint256",
          "name": "roundUpBalance",
          "type": "uint256"
        },
        {
          "internalType": "uint256",
          "name": "lastDepositTime",
          "type": "uint256"
        },
        {
          "internalType": "bool",
          "name": "isRegistered",
          "type": "bool"
        }
      ],
      "stateMutability": "view",
      "type": "function"
    },
    {
      "inputs": [],
      "name": "withdrawAll",
      "outputs": [],
      "stateMutability": "nonpayable",
      "type": "function"
    },
    {
      "inputs": [
        {
          "internalType": "uint256",
          "name": "_amount",
          "type": "uint256"
        }
      ],
      "name": "withdrawSavings",
      "outputs": [],
      "stateMutability": "nonpayable",
      "type": "function"
    },
    {
      "inputs": [
        {
          "internalType": "address",
          "name": "_token",
          "type": "address"
        },
        {
          "internalType": "uint256",
          "name": "_amount",
          "type": "uint256"
        }
      ],
      "name": "withdrawToken",
      "outputs": [],
      "stateMutability": "nonpayable",
      "type": "function"
    },
    {
      "stateMutability": "payable",
      "type": "receive"
    }
  ],
  "bytecode": "0x60806040523480156200001157600080fd5b5033600073ffffffffffffffffffffffffffffffffffffffff168173ffffffffffffffffffffffffffffffffffffffff1603620000885760006040517f1e4fbdf70000000000000000000000000000000000000000000000000000000081526004016200007f9190620003a8565b60405180910390fd5b62000099816200026a60201b60201c565b506001620000bc620000b06200032e60201b60201c565b6200035960201b60201c565b600001819055506001600060146101000a81548160ff021916908315150217905550426001819055506000600281905550600060038190555060006004819055506000600a8190555042336040516020016200011a9291906200049f565b604051602081830303815290604052805190602001206005819055506040518060400160405280600a81526020017f4175746f506f636b657400000000000000000000000000000000000000000000815250600690816200017c91906200074c565b506040518060400160405280600581526020017f322e302e3000000000000000000000000000000000000000000000000000000081525060079081620001c391906200074c565b5060646008819055506001600960003373ffffffffffffffffffffffffffffffffffffffff1673ffffffffffffffffffffffffffffffffffffffff16815260200190815260200160002060006101000a81548160ff0219169083151502179055506005547f930b5da0cbc727bb16c3e3f6e6b187ca17d462e4fc6f10f74150c60f79c7db0e600660076040516200025c929190620008d4565b60405180910390a26200090f565b60008060009054906101000a900473ffffffffffffffffffffffffffffffffffffffff169050816000806101000a81548173ffffffffffffffffffffffffffffffffffffffff021916908373ffffffffffffffffffffffffffffffffffffffff1602179055508173ffffffffffffffffffffffffffffffffffffffff168173ffffffffffffffffffffffffffffffffffffffff167f8be0079c531659141344cd1fd0a4f28419497f9722a3daafe3b4186f6b6457e060405160405180910390a35050565b60007f9b779b17422d0df92223018b32b4d1fa46e071723d6817e2486d003becc55f0060001b905090565b6000819050919050565b600073ffffffffffffffffffffffffffffffffffffffff82169050919050565b6000620003908262000363565b9050919050565b620003a28162000383565b82525050565b6000602082019050620003bf600083018462000397565b92915050565b600081905092915050565b7f4175746f506f636b657400000000000000000000000000000000000000000000600082015250565b600062000408600a83620003c5565b91506200041582620003d0565b600a82019050919050565b6000819050919050565b6000819050919050565b62000449620004438262000420565b6200042a565b82525050565b60008160601b9050919050565b600062000469826200044f565b9050919050565b60006200047d826200045c565b9050919050565b62000499620004938262000383565b62000470565b82525050565b6000620004ac82620003f9565b9150620004ba828562000434565b602082019150620004cc828462000484565b6014820191508190509392505050565b600081519050919050565b7f4e487b7100000000000000000000000000000000000000000000000000000000600052604160045260246000fd5b7f4e487b7100000000000000000000000000000000000000000000000000000000600052602260045260246000fd5b600060028204905060018216806200055e57607f821691505b60208210810362000574576200057362000516565b5b50919050565b60008190508160005260206000209050919050565b60006020601f8301049050919050565b600082821b905092915050565b600060088302620005de7fffffffffffffffffffffffffffffffffffffffffffffffffffffffffffffffff826200059f565b620005ea86836200059f565b95508019841693508086168417925050509392505050565b6000819050919050565b60006200062d62000627620006218462000420565b62000602565b62000420565b9050919050565b6000819050919050565b62000649836200060c565b62000661620006588262000634565b848454620005ac565b825550505050565b600090565b6200067862000669565b620006858184846200063e565b505050565b5b81811015620006ad57620006a16000826200066e565b6001810190506200068b565b5050565b601f821115620006fc57620006c6816200057a565b620006d1846200058f565b81016020851015620006e1578190505b620006f9620006f0856200058f565b8301826200068a565b50505b505050565b600082821c905092915050565b6000620007216000198460080262000701565b1980831691505092915050565b60006200073c83836200070e565b9150826002028217905092915050565b6200075782620004dc565b67ffffffffffffffff811115620007735762000772620004e7565b5b6200077f825462000545565b6200078c828285620006b1565b600060209050601f831160018114620007c45760008415620007af578287015190505b620007bb85826200072e565b8655506200082b565b601f198416620007d4866200057a565b60005b82811015620007fe57848901518255600182019150602085019450602081019050620007d7565b868310156200081e57848901516200081a601f8916826200070e565b8355505b6001600288020188555050505b505050505050565b600082825260208201905092915050565b60008154620008538162000545565b6200085f818662000833565b945060018216600081146200087d57600181146200089457620008cb565b60ff198316865281151560200286019350620008cb565b6200089f856200057a565b60005b83811015620008c357815481890152600182019150602081019050620008a2565b808801955050505b50505092915050565b60006040820190508181036000830152620008f0818562000844565b9050818103602083015262000906818462000844565b90509392505050565b6149f6806200091f6000396000f3fe6080604052600436106102605760003560e01c8063853828b611610144578063b848108a116100b6578063ebe840851161007a578063ebe8408514610991578063ef097fc4146109ce578063f2fde38b146109f7578063f43970f314610a20578063f60e673e14610a49578063f80a205714610a74576102b5565b8063b848108a146108a6578063bcef9b3f146108e7578063de98645014610912578063e84f43b71461093b578063eac697c914610966576102b5565b8063a449718211610108578063a449718214610762578063a453b6cf146107a6578063abb05f48146107cf578063acec338a1461080c578063b329b6a714610835578063b5a6a3d114610877576102b5565b8063853828b6146106a35780638da1eccf146106ba5780638da5cb5b146106e35780639bf42b3f1461070e5780639e281a9814610739576102b5565b80634a0ea4d7116101dd57806367c2a360116101a157806367c2a36014610584578063682ab743146105ad578063715018a6146105f1578063758316c91461060857806377a5e9f214610633578063787930c214610663576102b5565b80634a0ea4d71461049a5780634d3820eb146104d75780635fd13996146104ee57806360a7fc1f14610530578063658157561461055b576102b5565b806322f3e2d41161022457806322f3e2d4146103b357806329da5738146103de57806332fd95d6146104095780633c19804e146104465780634315f45814610471576102b5565b80630dc7fff9146102ba5780630f9f2a86146102e557806310c59c721461032257806315ee90d61461034d5780631828983a14610376576102b5565b366102b5573373ffffffffffffffffffffffffffffffffffffffff167f8e47b87b0ef542cdfa1659c551d88bad38aa7f452d2bbb349ab7530dfec8be8f346040516102ab9190613b08565b60405180910390a2005b600080fd5b3480156102c657600080fd5b506102cf610ab3565b6040516102dc9190613b08565b60405180910390f35b3480156102f157600080fd5b5061030c60048036038101906103079190613bc1565b610ab9565b6040516103199190613b08565b60405180910390f35b34801561032e57600080fd5b50610337610d5f565b6040516103449190613c91565b60405180910390f35b34801561035957600080fd5b50610374600480360381019061036f9190613ce9565b610ded565b005b34801561038257600080fd5b5061039d60048036038101906103989190613d16565b61122a565b6040516103aa9190613d5e565b60405180910390f35b3480156103bf57600080fd5b506103c861124a565b6040516103d59190613d5e565b60405180910390f35b3480156103ea57600080fd5b506103f361125d565b6040516104009190613b08565b60405180910390f35b34801561041557600080fd5b50610430600480360381019061042b9190613dde565b611263565b60405161043d9190613e87565b60405180910390f35b34801561045257600080fd5b5061045b611562565b6040516104689190613c91565b60405180910390f35b34801561047d57600080fd5b5061049860048036038101906104939190613ce9565b6115f0565b005b3480156104a657600080fd5b506104c160048036038101906104bc9190613ce9565b61171f565b6040516104ce9190613d5e565b60405180910390f35b3480156104e357600080fd5b506104ec61174c565b005b3480156104fa57600080fd5b5061051560048036038101906105109190613ce9565b611927565b60405161052796959493929190613eb1565b60405180910390f35b34801561053c57600080fd5b50610545611af3565b6040516105529190613b08565b60405180910390f35b34801561056757600080fd5b50610582600480360381019061057d9190613f19565b611af9565b005b34801561059057600080fd5b506105ab60048036038101906105a69190613d16565b611e30565b005b3480156105b957600080fd5b506105d460048036038101906105cf9190613bc1565b611ed6565b6040516105e8989796959493929190613f59565b60405180910390f35b3480156105fd57600080fd5b5061060661201d565b005b34801561061457600080fd5b5061061d612031565b60405161062a9190613fde565b60405180910390f35b34801561063f57600080fd5b50610648612049565b60405161065a96959493929190613ff9565b60405180910390f35b34801561066f57600080fd5b5061068a60048036038101906106859190613ce9565b612085565b60405161069a949392919061405a565b60405180910390f35b3480156106af57600080fd5b506106b8612264565b005b3480156106c657600080fd5b506106e160048036038101906106dc91906141cf565b6123b9565b005b3480156106ef57600080fd5b506106f86129b3565b6040516107059190613fde565b60405180910390f35b34801561071a57600080fd5b506107236129dc565b6040516107309190613b08565b60405180910390f35b34801561074557600080fd5b50610760600480360381019061075b9190613bc1565b6129e2565b005b34801561076e57600080fd5b5061078960048036038101906107849190613ce9565b612a20565b60405161079d989796959493929190613f59565b60405180910390f35b3480156107b257600080fd5b506107cd60048036038101906107c89190614266565b612b4a565b005b3480156107db57600080fd5b506107f660048036038101906107f19190613d16565b612eea565b6040516108039190613b08565b60405180910390f35b34801561081857600080fd5b50610833600480360381019061082e91906142bf565b612f02565b005b34801561084157600080fd5b5061085c60048036038101906108579190613ce9565b612f5e565b60405161086e96959493929190613eb1565b60405180910390f35b34801561088357600080fd5b5061088c61306f565b60405161089d9594939291906142ec565b60405180910390f35b3480156108b257600080fd5b506108cd60048036038101906108c89190613d16565b6131ba565b6040516108de95949392919061434d565b60405180910390f35b3480156108f357600080fd5b506108fc6131fd565b6040516109099190613b08565b60405180910390f35b34801561091e57600080fd5b5061093960048036038101906109349190614266565b613203565b005b34801561094757600080fd5b506109506134e8565b60405161095d9190613e87565b60405180910390f35b34801561097257600080fd5b5061097b6134ee565b6040516109889190613b08565b60405180910390f35b34801561099d57600080fd5b506109b860048036038101906109b39190613d16565b6134f4565b6040516109c59190613b08565b60405180910390f35b3480156109da57600080fd5b506109f560048036038101906109f09190613d16565b61353d565b005b348015610a0357600080fd5b50610a1e6004803603810190610a199190613d16565b6135a0565b005b348015610a2c57600080fd5b50610a476004803603810190610a429190614266565b613626565b005b348015610a5557600080fd5b50610a5e613673565b604051610a6b9190613fde565b60405180910390f35b348015610a8057600080fd5b50610a9b6004803603810190610a969190613d16565b61368b565b604051610aaa939291906143a0565b60405180910390f35b60045481565b6000600960003373ffffffffffffffffffffffffffffffffffffffff1673ffffffffffffffffffffffffffffffffffffffff16815260200190815260200160002060009054906101000a900460ff16158015610b485750610b186129b3565b73ffffffffffffffffffffffffffffffffffffffff163373ffffffffffffffffffffffffffffffffffffffff1614155b15610b7f576040517fea8e4eb500000000000000000000000000000000000000000000000000000000815260040160405180910390fd5b60008203610bb9576040517f2c5211c600000000000000000000000000000000000000000000000000000000815260040160405180910390fd5b81600c60008573ffffffffffffffffffffffffffffffffffffffff1673ffffffffffffffffffffffffffffffffffffffff168152602001908152602001600020541015610c32576040517ff4d678b800000000000000000000000000000000000000000000000000000000815260040160405180910390fd5b81600c60008573ffffffffffffffffffffffffffffffffffffffff1673ffffffffffffffffffffffffffffffffffffffff1681526020019081526020016000206000828254610c819190614406565b925050819055508273ffffffffffffffffffffffffffffffffffffffff167f8a0502974fe26bc977c69fe0ced2381d19aed82de4aff17e0ee061be3535740183600c60008773ffffffffffffffffffffffffffffffffffffffff1673ffffffffffffffffffffffffffffffffffffffff16815260200190815260200160002054604051610d0f92919061443a565b60405180910390a2600c60008473ffffffffffffffffffffffffffffffffffffffff1673ffffffffffffffffffffffffffffffffffffffff16815260200190815260200160002054905092915050565b60078054610d6c90614492565b80601f0160208091040260200160405190810160405280929190818152602001828054610d9890614492565b8015610de55780601f10610dba57610100808354040283529160200191610de5565b820191906000526020600020905b815481529060010190602001808311610dc857829003601f168201915b505050505081565b600060149054906101000a900460ff16610e33576040517f486fcee200000000000000000000000000000000000000000000000000000000815260040160405180910390fd5b610e3b61373d565b6000600e600083815260200190815260200160002090508060040160009054906101000a900460ff161580610ec05750600073ffffffffffffffffffffffffffffffffffffffff168160040160029054906101000a900473ffffffffffffffffffffffffffffffffffffffff1673ffffffffffffffffffffffffffffffffffffffff16145b15610ef7576040517fcf897cfb00000000000000000000000000000000000000000000000000000000815260040160405180910390fd5b8060030154421015610f34576040517ea71fbb00000000000000000000000000000000000000000000000000000000815260040160405180910390fd5b3373ffffffffffffffffffffffffffffffffffffffff168160040160029054906101000a900473ffffffffffffffffffffffffffffffffffffffff1673ffffffffffffffffffffffffffffffffffffffff1614158015610fde5750600960003373ffffffffffffffffffffffffffffffffffffffff1673ffffffffffffffffffffffffffffffffffffffff16815260200190815260200160002060009054906101000a900460ff16155b15611015576040517fea8e4eb500000000000000000000000000000000000000000000000000000000815260040160405180910390fd5b6000600d60003373ffffffffffffffffffffffffffffffffffffffff1673ffffffffffffffffffffffffffffffffffffffff168152602001908152602001600020600201549050816001015481101561109a576040517ff4d678b800000000000000000000000000000000000000000000000000000000815260040160405180910390fd5b8160020154426110aa91906144c3565b82600301819055508160010154600d60003373ffffffffffffffffffffffffffffffffffffffff1673ffffffffffffffffffffffffffffffffffffffff16815260200190815260200160002060020160008282546111089190614406565b925050819055506111768260000160009054906101000a900473ffffffffffffffffffffffffffffffffffffffff16836001015473765de816845861e75a25fca122bb6898b8b1272a73ffffffffffffffffffffffffffffffffffffffff166137609092919063ffffffff16565b60046000815480929190611189906144f7565b91905055508160010154600360008282546111a49190614406565b92505081905550600260008154809291906111be906144f7565b9190505550426001819055503373ffffffffffffffffffffffffffffffffffffffff16837f7763e65e4730dc3bd160c6b49f1eccb463828c997ef23c2e18edfbce92081f3d84600101546040516112159190613b08565b60405180910390a350506112276137b3565b50565b60096020528060005260406000206000915054906101000a900460ff1681565b600060149054906101000a900460ff1681565b60025481565b600061126d6137ce565b6000801b87148061127e5750600084145b156112b5576040517f3c6b4b2800000000000000000000000000000000000000000000000000000000815260040160405180910390fd5b6000600b60008981526020019081526020016000206003015414611305576040517f424e8d7100000000000000000000000000000000000000000000000000000000815260040160405180910390fd5b6040518060c001604052808773ffffffffffffffffffffffffffffffffffffffff1681526020018673ffffffffffffffffffffffffffffffffffffffff16815260200185815260200142815260200184848080601f016020809104026020016040519081016040528093929190818152602001838380828437600081840152601f19601f82011690508083019250505050505050815260200160001515815250600b600089815260200190815260200160002060008201518160000160006101000a81548173ffffffffffffffffffffffffffffffffffffffff021916908373ffffffffffffffffffffffffffffffffffffffff16021790555060208201518160010160006101000a81548173ffffffffffffffffffffffffffffffffffffffff021916908373ffffffffffffffffffffffffffffffffffffffff1602179055506040820151816002015560608201518160030155608082015181600401908161146f91906146eb565b5060a08201518160050160006101000a81548160ff02191690831515021790555090505083600c60008873ffffffffffffffffffffffffffffffffffffffff1673ffffffffffffffffffffffffffffffffffffffff16815260200190815260200160002060008282546114e291906144c3565b9250508190555083600a60008282546114fb91906144c3565b925050819055508573ffffffffffffffffffffffffffffffffffffffff16877fd79be6c3e03cde52ebd9ea37b84870492c58da535289fb1bf68e52db63a71aeb86868660405161154d939291906147ea565b60405180910390a38690509695505050505050565b6006805461156f90614492565b80601f016020809104026020016040519081016040528092919081815260200182805461159b90614492565b80156115e85780601f106115bd576101008083540402835291602001916115e8565b820191906000526020600020905b8154815290600101906020018083116115cb57829003601f168201915b505050505081565b6000600e600083815260200190815260200160002090503373ffffffffffffffffffffffffffffffffffffffff168160040160029054906101000a900473ffffffffffffffffffffffffffffffffffffffff1673ffffffffffffffffffffffffffffffffffffffff161415801561169a575061166a6129b3565b73ffffffffffffffffffffffffffffffffffffffff163373ffffffffffffffffffffffffffffffffffffffff1614155b156116d1576040517fea8e4eb500000000000000000000000000000000000000000000000000000000815260040160405180910390fd5b60008160040160006101000a81548160ff021916908315150217905550817fa3a26a370d57172f55085c7e74b9e7b54617c9ce09de88a23fb81cce8a831f5e60405160405180910390a25050565b6000600b600083815260200190815260200160002060050160009054906101000a900460ff169050919050565b600d60003373ffffffffffffffffffffffffffffffffffffffff1673ffffffffffffffffffffffffffffffffffffffff16815260200190815260200160002060040160009054906101000a900460ff16156117d3576040517f3a81d6fc00000000000000000000000000000000000000000000000000000000815260040160405180910390fd5b6040518060a0016040528060008152602001600081526020016000815260200142815260200160011515815250600d60003373ffffffffffffffffffffffffffffffffffffffff1673ffffffffffffffffffffffffffffffffffffffff1681526020019081526020016000206000820151816000015560208201518160010155604082015181600201556060820151816003015560808201518160040160006101000a81548160ff0219169083151502179055509050506001600960003373ffffffffffffffffffffffffffffffffffffffff1673ffffffffffffffffffffffffffffffffffffffff16815260200190815260200160002060006101000a81548160ff0219169083151502179055503373ffffffffffffffffffffffffffffffffffffffff167f54db7a5cb4735e1aac1f53db512d3390390bb6637bd30ad4bf9fc98667d9b9b960405160405180910390a2565b6000806000806060600080600b60008981526020019081526020016000206040518060c00160405290816000820160009054906101000a900473ffffffffffffffffffffffffffffffffffffffff1673ffffffffffffffffffffffffffffffffffffffff1673ffffffffffffffffffffffffffffffffffffffff1681526020016001820160009054906101000a900473ffffffffffffffffffffffffffffffffffffffff1673ffffffffffffffffffffffffffffffffffffffff1673ffffffffffffffffffffffffffffffffffffffff1681526020016002820154815260200160038201548152602001600482018054611a2090614492565b80601f0160208091040260200160405190810160405280929190818152602001828054611a4c90614492565b8015611a995780601f10611a6e57610100808354040283529160200191611a99565b820191906000526020600020905b815481529060010190602001808311611a7c57829003601f168201915b505050505081526020016005820160009054906101000a900460ff1615151515815250509050806000015181602001518260400151836060015184608001518560a001519650965096509650965096505091939550919395565b60085481565b600960003373ffffffffffffffffffffffffffffffffffffffff1673ffffffffffffffffffffffffffffffffffffffff16815260200190815260200160002060009054906101000a900460ff16158015611b865750611b566129b3565b73ffffffffffffffffffffffffffffffffffffffff163373ffffffffffffffffffffffffffffffffffffffff1614155b15611bbd576040517fea8e4eb500000000000000000000000000000000000000000000000000000000815260040160405180910390fd5b600060149054906101000a900460ff16611c03576040517f486fcee200000000000000000000000000000000000000000000000000000000815260040160405180910390fd5b611c0b61373d565b6000821480611c1a5750818111155b15611c51576040517f2c5211c600000000000000000000000000000000000000000000000000000000815260040160405180910390fd5b60008282611c5f9190614406565b9050611ca233308573765de816845861e75a25fca122bb6898b8b1272a73ffffffffffffffffffffffffffffffffffffffff16613855909392919063ffffffff16565b80600d60003373ffffffffffffffffffffffffffffffffffffffff1673ffffffffffffffffffffffffffffffffffffffff1681526020019081526020016000206000016000828254611cf491906144c3565b9250508190555080600d60003373ffffffffffffffffffffffffffffffffffffffff1673ffffffffffffffffffffffffffffffffffffffff1681526020019081526020016000206002016000828254611d4d91906144c3565b9250508190555042600d60003373ffffffffffffffffffffffffffffffffffffffff1673ffffffffffffffffffffffffffffffffffffffff168152602001908152602001600020600301819055508060036000828254611dad91906144c3565b9250508190555060026000815480929190611dc7906144f7565b9190505550426001819055503373ffffffffffffffffffffffffffffffffffffffff167f1a96ef469e332471886959f90a71ae924792a05ad7eea4e43a1c29becdf238ed8483604051611e1b92919061443a565b60405180910390a250611e2c6137b3565b5050565b611e386137ce565b6001600960008373ffffffffffffffffffffffffffffffffffffffff1673ffffffffffffffffffffffffffffffffffffffff16815260200190815260200160002060006101000a81548160ff0219169083151502179055508073ffffffffffffffffffffffffffffffffffffffff167f54db7a5cb4735e1aac1f53db512d3390390bb6637bd30ad4bf9fc98667d9b9b960405160405180910390a250565b600f6020528160005260406000208181548110611ef257600080fd5b9060005260206000209060060201600091509150508060000160009054906101000a900473ffffffffffffffffffffffffffffffffffffffff16908060010154908060020154908060030154908060040160009054906101000a900460ff16908060040160019054906101000a900460ff16908060040160029054906101000a900473ffffffffffffffffffffffffffffffffffffffff1690806005018054611f9a90614492565b80601f0160208091040260200160405190810160405280929190818152602001828054611fc690614492565b80156120135780601f10611fe857610100808354040283529160200191612013565b820191906000526020600020905b815481529060010190602001808311611ff657829003601f168201915b5050505050905088565b6120256137ce565b61202f60006138aa565b565b73765de816845861e75a25fca122bb6898b8b1272a81565b60008060008060008060008060149054906101000a900460ff166002546001546003546004548596509650965096509650965050909192939495565b6000806000806000600e6000878152602001908152602001600020604051806101000160405290816000820160009054906101000a900473ffffffffffffffffffffffffffffffffffffffff1673ffffffffffffffffffffffffffffffffffffffff1673ffffffffffffffffffffffffffffffffffffffff1681526020016001820154815260200160028201548152602001600382015481526020016004820160009054906101000a900460ff161515151581526020016004820160019054906101000a900460ff161515151581526020016004820160029054906101000a900473ffffffffffffffffffffffffffffffffffffffff1673ffffffffffffffffffffffffffffffffffffffff1673ffffffffffffffffffffffffffffffffffffffff1681526020016005820180546121bc90614492565b80601f01602080910402602001604051908101604052809291908181526020018280546121e890614492565b80156122355780601f1061220a57610100808354040283529160200191612235565b820191906000526020600020905b81548152906001019060200180831161221857829003601f168201915b505050505081525050905080600001518160200151826060015183608001519450945094509450509193509193565b61226c6137ce565b61227461373d565b600073765de816845861e75a25fca122bb6898b8b1272a73ffffffffffffffffffffffffffffffffffffffff166370a08231306040518263ffffffff1660e01b81526004016122c39190613fde565b602060405180830381865afa1580156122e0573d6000803e3d6000fd5b505050506040513d601f19601f820116820180604052508101906123049190614831565b905060008111156123565761235561231a6129b3565b8273765de816845861e75a25fca122bb6898b8b1272a73ffffffffffffffffffffffffffffffffffffffff166137609092919063ffffffff16565b5b60004711156123ae576123676129b3565b73ffffffffffffffffffffffffffffffffffffffff166108fc479081150290604051600060405180830381858888f193505050501580156123ac573d6000803e3d6000fd5b505b506123b76137b3565b565b600960003373ffffffffffffffffffffffffffffffffffffffff1673ffffffffffffffffffffffffffffffffffffffff16815260200190815260200160002060009054906101000a900460ff1615801561244657506124166129b3565b73ffffffffffffffffffffffffffffffffffffffff163373ffffffffffffffffffffffffffffffffffffffff1614155b1561247d576040517fea8e4eb500000000000000000000000000000000000000000000000000000000815260040160405180910390fd5b600060149054906101000a900460ff166124c3576040517f486fcee200000000000000000000000000000000000000000000000000000000815260040160405180910390fd5b600073ffffffffffffffffffffffffffffffffffffffff16600e600087815260200190815260200160002060040160029054906101000a900473ffffffffffffffffffffffffffffffffffffffff1673ffffffffffffffffffffffffffffffffffffffff161461255f576040517f92f0f74300000000000000000000000000000000000000000000000000000000815260040160405180910390fd5b600073ffffffffffffffffffffffffffffffffffffffff168473ffffffffffffffffffffffffffffffffffffffff16036125c5576040517f9c8d2cd200000000000000000000000000000000000000000000000000000000815260040160405180910390fd5b600083036125ff576040517f2c5211c600000000000000000000000000000000000000000000000000000000815260040160405180910390fd5b6040518061010001604052808573ffffffffffffffffffffffffffffffffffffffff1681526020018481526020018381526020014281526020016001151581526020016000151581526020013373ffffffffffffffffffffffffffffffffffffffff16815260200182815250600e600087815260200190815260200160002060008201518160000160006101000a81548173ffffffffffffffffffffffffffffffffffffffff021916908373ffffffffffffffffffffffffffffffffffffffff16021790555060208201518160010155604082015181600201556060820151816003015560808201518160040160006101000a81548160ff02191690831515021790555060a08201518160040160016101000a81548160ff02191690831515021790555060c08201518160040160026101000a81548173ffffffffffffffffffffffffffffffffffffffff021916908373ffffffffffffffffffffffffffffffffffffffff16021790555060e082015181600501908161277f91906146eb565b50905050600f60003373ffffffffffffffffffffffffffffffffffffffff1673ffffffffffffffffffffffffffffffffffffffff168152602001908152602001600020600e600087815260200190815260200160002090806001815401808255809150506001900390600052602060002090600602016000909190919091506000820160009054906101000a900473ffffffffffffffffffffffffffffffffffffffff168160000160006101000a81548173ffffffffffffffffffffffffffffffffffffffff021916908373ffffffffffffffffffffffffffffffffffffffff1602179055506001820154816001015560028201548160020155600382015481600301556004820160009054906101000a900460ff168160040160006101000a81548160ff0219169083151502179055506004820160019054906101000a900460ff168160040160016101000a81548160ff0219169083151502179055506004820160029054906101000a900473ffffffffffffffffffffffffffffffffffffffff168160040160026101000a81548173ffffffffffffffffffffffffffffffffffffffff021916908373ffffffffffffffffffffffffffffffffffffffff160217905550600582018160050190816129589190614874565b5050503373ffffffffffffffffffffffffffffffffffffffff16857fd2b003dbe8b14127f0c5c5f822e96979f1d2e42da05e459d97a23a5f35cea65785856040516129a492919061443a565b60405180910390a35050505050565b60008060009054906101000a900473ffffffffffffffffffffffffffffffffffffffff16905090565b60035481565b6129ea6137ce565b612a1c6129f56129b3565b828473ffffffffffffffffffffffffffffffffffffffff166137609092919063ffffffff16565b5050565b600e6020528060005260406000206000915090508060000160009054906101000a900473ffffffffffffffffffffffffffffffffffffffff16908060010154908060020154908060030154908060040160009054906101000a900460ff16908060040160019054906101000a900460ff16908060040160029054906101000a900473ffffffffffffffffffffffffffffffffffffffff1690806005018054612ac790614492565b80601f0160208091040260200160405190810160405280929190818152602001828054612af390614492565b8015612b405780601f10612b1557610100808354040283529160200191612b40565b820191906000526020600020905b815481529060010190602001808311612b2357829003601f168201915b5050505050905088565b600960003373ffffffffffffffffffffffffffffffffffffffff1673ffffffffffffffffffffffffffffffffffffffff16815260200190815260200160002060009054906101000a900460ff16158015612bd75750612ba76129b3565b73ffffffffffffffffffffffffffffffffffffffff163373ffffffffffffffffffffffffffffffffffffffff1614155b15612c0e576040517fea8e4eb500000000000000000000000000000000000000000000000000000000815260040160405180910390fd5b600060149054906101000a900460ff16612c54576040517f486fcee200000000000000000000000000000000000000000000000000000000815260040160405180910390fd5b612c5c61373d565b60008103612c96576040517f2c5211c600000000000000000000000000000000000000000000000000000000815260040160405180910390fd5b600d60003373ffffffffffffffffffffffffffffffffffffffff1673ffffffffffffffffffffffffffffffffffffffff16815260200190815260200160002060040160009054906101000a900460ff16612d1c576040517f2163950f00000000000000000000000000000000000000000000000000000000815260040160405180910390fd5b612d5d33308373765de816845861e75a25fca122bb6898b8b1272a73ffffffffffffffffffffffffffffffffffffffff16613855909392919063ffffffff16565b80600d60003373ffffffffffffffffffffffffffffffffffffffff1673ffffffffffffffffffffffffffffffffffffffff1681526020019081526020016000206000016000828254612daf91906144c3565b9250508190555080600d60003373ffffffffffffffffffffffffffffffffffffffff1673ffffffffffffffffffffffffffffffffffffffff1681526020019081526020016000206002016000828254612e0891906144c3565b9250508190555042600d60003373ffffffffffffffffffffffffffffffffffffffff1673ffffffffffffffffffffffffffffffffffffffff168152602001908152602001600020600301819055508060036000828254612e6891906144c3565b9250508190555060026000815480929190612e82906144f7565b9190505550426001819055503373ffffffffffffffffffffffffffffffffffffffff167f1a96ef469e332471886959f90a71ae924792a05ad7eea4e43a1c29becdf238ed826000604051612ed7929190614997565b60405180910390a2612ee76137b3565b50565b600c6020528060005260406000206000915090505481565b612f0a6137ce565b80600060146101000a81548160ff0219169083151502179055507f687ce7b139cce234264c502946572c2ca5e8d078fb2fe51029287d78918bd3b981604051612f539190613d5e565b60405180910390a150565b600b6020528060005260406000206000915090508060000160009054906101000a900473ffffffffffffffffffffffffffffffffffffffff16908060010160009054906101000a900473ffffffffffffffffffffffffffffffffffffffff1690806002015490806003015490806004018054612fd990614492565b80601f016020809104026020016040519081016040528092919081815260200182805461300590614492565b80156130525780601f1061302757610100808354040283529160200191613052565b820191906000526020600020905b81548152906001019060200180831161303557829003601f168201915b5050505050908060050160009054906101000a900460ff16905086565b600060608060008060055460066007600854600060149054906101000a900460ff1683805461309d90614492565b80601f01602080910402602001604051908101604052809291908181526020018280546130c990614492565b80156131165780601f106130eb57610100808354040283529160200191613116565b820191906000526020600020905b8154815290600101906020018083116130f957829003601f168201915b5050505050935082805461312990614492565b80601f016020809104026020016040519081016040528092919081815260200182805461315590614492565b80156131a25780601f10613177576101008083540402835291602001916131a2565b820191906000526020600020905b81548152906001019060200180831161318557829003601f168201915b50505050509250945094509450945094509091929394565b600d6020528060005260406000206000915090508060000154908060010154908060020154908060030154908060040160009054906101000a900460ff16905085565b600a5481565b600960003373ffffffffffffffffffffffffffffffffffffffff1673ffffffffffffffffffffffffffffffffffffffff16815260200190815260200160002060009054906101000a900460ff1615801561329057506132606129b3565b73ffffffffffffffffffffffffffffffffffffffff163373ffffffffffffffffffffffffffffffffffffffff1614155b156132c7576040517fea8e4eb500000000000000000000000000000000000000000000000000000000815260040160405180910390fd5b6132cf61373d565b60008103613309576040517f2c5211c600000000000000000000000000000000000000000000000000000000815260040160405180910390fd5b80600d60003373ffffffffffffffffffffffffffffffffffffffff1673ffffffffffffffffffffffffffffffffffffffff168152602001908152602001600020600201541015613385576040517ff4d678b800000000000000000000000000000000000000000000000000000000815260040160405180910390fd5b80600d60003373ffffffffffffffffffffffffffffffffffffffff1673ffffffffffffffffffffffffffffffffffffffff16815260200190815260200160002060020160008282546133d79190614406565b9250508190555080600d60003373ffffffffffffffffffffffffffffffffffffffff1673ffffffffffffffffffffffffffffffffffffffff168152602001908152602001600020600101600082825461343091906144c3565b9250508190555080600360008282546134499190614406565b9250508190555061348f338273765de816845861e75a25fca122bb6898b8b1272a73ffffffffffffffffffffffffffffffffffffffff166137609092919063ffffffff16565b3373ffffffffffffffffffffffffffffffffffffffff167f94b83bc1ebe4ddd04e2faa0e9f2883abf856cea4923e56a6ec7c8c40fb2b02ba826040516134d59190613b08565b60405180910390a26134e56137b3565b50565b60055481565b60015481565b6000600c60008373ffffffffffffffffffffffffffffffffffffffff1673ffffffffffffffffffffffffffffffffffffffff168152602001908152602001600020549050919050565b6135456137ce565b6000600960008373ffffffffffffffffffffffffffffffffffffffff1673ffffffffffffffffffffffffffffffffffffffff16815260200190815260200160002060006101000a81548160ff02191690831515021790555050565b6135a86137ce565b600073ffffffffffffffffffffffffffffffffffffffff168173ffffffffffffffffffffffffffffffffffffffff160361361a5760006040517f1e4fbdf70000000000000000000000000000000000000000000000000000000081526004016136119190613fde565b60405180910390fd5b613623816138aa565b50565b61362e6137ce565b6064811115613669576040517f2c5211c600000000000000000000000000000000000000000000000000000000815260040160405180910390fd5b8060088190555050565b73471ece3750da237f93b8e339c536988bc5deb0b481565b600080600080600d60008673ffffffffffffffffffffffffffffffffffffffff1673ffffffffffffffffffffffffffffffffffffffff1681526020019081526020016000206040518060a0016040529081600082015481526020016001820154815260200160028201548152602001600382015481526020016004820160009054906101000a900460ff1615151515815250509050806000015181604001518260600151935093509350509193909250565b61374561396e565b60026137576137526139af565b6139da565b60000181905550565b61376d83838360016139e4565b6137ae57826040517f5274afe70000000000000000000000000000000000000000000000000000000081526004016137a59190613fde565b60405180910390fd5b505050565b60016137c56137c06139af565b6139da565b60000181905550565b6137d6613a4e565b73ffffffffffffffffffffffffffffffffffffffff166137f46129b3565b73ffffffffffffffffffffffffffffffffffffffff161461385357613817613a4e565b6040517f118cdaa700000000000000000000000000000000000000000000000000000000815260040161384a9190613fde565b60405180910390fd5b565b613863848484846001613a56565b6138a457836040517f5274afe700000000000000000000000000000000000000000000000000000000815260040161389b9190613fde565b60405180910390fd5b50505050565b60008060009054906101000a900473ffffffffffffffffffffffffffffffffffffffff169050816000806101000a81548173ffffffffffffffffffffffffffffffffffffffff021916908373ffffffffffffffffffffffffffffffffffffffff1602179055508173ffffffffffffffffffffffffffffffffffffffff168173ffffffffffffffffffffffffffffffffffffffff167f8be0079c531659141344cd1fd0a4f28419497f9722a3daafe3b4186f6b6457e060405160405180910390a35050565b613976613ad1565b156139ad576040517f3ee5aeb500000000000000000000000000000000000000000000000000000000815260040160405180910390fd5b565b60007f9b779b17422d0df92223018b32b4d1fa46e071723d6817e2486d003becc55f0060001b905090565b6000819050919050565b60008063a9059cbb60e01b90506040518160005260001960601c8616600452846024526020600060446000808b5af192506001600051148316613a40578383151615613a33573d6000823e3d81fd5b6000873b113d1516831692505b806040525050949350505050565b600033905090565b6000806323b872dd60e01b90506040518160005260001960601c871660045260001960601c8616602452846044526020600060646000808c5af192506001600051148316613abd578383151615613ab0573d6000823e3d81fd5b6000883b113d1516831692505b806040526000606052505095945050505050565b60006002613ae5613ae06139af565b6139da565b6000015414905090565b6000819050919050565b613b0281613aef565b82525050565b6000602082019050613b1d6000830184613af9565b92915050565b6000604051905090565b600080fd5b600080fd5b600073ffffffffffffffffffffffffffffffffffffffff82169050919050565b6000613b6282613b37565b9050919050565b613b7281613b57565b8114613b7d57600080fd5b50565b600081359050613b8f81613b69565b92915050565b613b9e81613aef565b8114613ba957600080fd5b50565b600081359050613bbb81613b95565b92915050565b60008060408385031215613bd857613bd7613b2d565b5b6000613be685828601613b80565b9250506020613bf785828601613bac565b9150509250929050565b600081519050919050565b600082825260208201905092915050565b60005b83811015613c3b578082015181840152602081019050613c20565b60008484015250505050565b6000601f19601f8301169050919050565b6000613c6382613c01565b613c6d8185613c0c565b9350613c7d818560208601613c1d565b613c8681613c47565b840191505092915050565b60006020820190508181036000830152613cab8184613c58565b905092915050565b6000819050919050565b613cc681613cb3565b8114613cd157600080fd5b50565b600081359050613ce381613cbd565b92915050565b600060208284031215613cff57613cfe613b2d565b5b6000613d0d84828501613cd4565b91505092915050565b600060208284031215613d2c57613d2b613b2d565b5b6000613d3a84828501613b80565b91505092915050565b60008115159050919050565b613d5881613d43565b82525050565b6000602082019050613d736000830184613d4f565b92915050565b600080fd5b600080fd5b600080fd5b60008083601f840112613d9e57613d9d613d79565b5b8235905067ffffffffffffffff811115613dbb57613dba613d7e565b5b602083019150836001820283011115613dd757613dd6613d83565b5b9250929050565b60008060008060008060a08789031215613dfb57613dfa613b2d565b5b6000613e0989828a01613cd4565b9650506020613e1a89828a01613b80565b9550506040613e2b89828a01613b80565b9450506060613e3c89828a01613bac565b935050608087013567ffffffffffffffff811115613e5d57613e5c613b32565b5b613e6989828a01613d88565b92509250509295509295509295565b613e8181613cb3565b82525050565b6000602082019050613e9c6000830184613e78565b92915050565b613eab81613b57565b82525050565b600060c082019050613ec66000830189613ea2565b613ed36020830188613ea2565b613ee06040830187613af9565b613eed6060830186613af9565b8181036080830152613eff8185613c58565b9050613f0e60a0830184613d4f565b979650505050505050565b60008060408385031215613f3057613f2f613b2d565b5b6000613f3e85828601613bac565b9250506020613f4f85828601613bac565b9150509250929050565b600061010082019050613f6f600083018b613ea2565b613f7c602083018a613af9565b613f896040830189613af9565b613f966060830188613af9565b613fa36080830187613d4f565b613fb060a0830186613d4f565b613fbd60c0830185613ea2565b81810360e0830152613fcf8184613c58565b90509998505050505050505050565b6000602082019050613ff36000830184613ea2565b92915050565b600060c08201905061400e6000830189613d4f565b61401b6020830188613af9565b6140286040830187613af9565b6140356060830186613af9565b6140426080830185613af9565b61404f60a0830184613af9565b979650505050505050565b600060808201905061406f6000830187613ea2565b61407c6020830186613af9565b6140896040830185613af9565b6140966060830184613d4f565b95945050505050565b600080fd5b7f4e487b7100000000000000000000000000000000000000000000000000000000600052604160045260246000fd5b6140dc82613c47565b810181811067ffffffffffffffff821117156140fb576140fa6140a4565b5b80604052505050565b600061410e613b23565b905061411a82826140d3565b919050565b600067ffffffffffffffff82111561413a576141396140a4565b5b61414382613c47565b9050602081019050919050565b82818337600083830152505050565b600061417261416d8461411f565b614104565b90508281526020810184848401111561418e5761418d61409f565b5b614199848285614150565b509392505050565b600082601f8301126141b6576141b5613d79565b5b81356141c684826020860161415f565b91505092915050565b600080600080600060a086880312156141eb576141ea613b2d565b5b60006141f988828901613cd4565b955050602061420a88828901613b80565b945050604061421b88828901613bac565b935050606061422c88828901613bac565b925050608086013567ffffffffffffffff81111561424d5761424c613b32565b5b614259888289016141a1565b9150509295509295909350565b60006020828403121561427c5761427b613b2d565b5b600061428a84828501613bac565b91505092915050565b61429c81613d43565b81146142a757600080fd5b50565b6000813590506142b981614293565b92915050565b6000602082840312156142d5576142d4613b2d565b5b60006142e3848285016142aa565b91505092915050565b600060a0820190506143016000830188613e78565b81810360208301526143138187613c58565b905081810360408301526143278186613c58565b90506143366060830185613af9565b6143436080830184613d4f565b9695505050505050565b600060a0820190506143626000830188613af9565b61436f6020830187613af9565b61437c6040830186613af9565b6143896060830185613af9565b6143966080830184613d4f565b9695505050505050565b60006060820190506143b56000830186613af9565b6143c26020830185613af9565b6143cf6040830184613af9565b949350505050565b7f4e487b7100000000000000000000000000000000000000000000000000000000600052601160045260246000fd5b600061441182613aef565b915061441c83613aef565b9250828203905081811115614434576144336143d7565b5b92915050565b600060408201905061444f6000830185613af9565b61445c6020830184613af9565b9392505050565b7f4e487b7100000000000000000000000000000000000000000000000000000000600052602260045260246000fd5b600060028204905060018216806144aa57607f821691505b6020821081036144bd576144bc614463565b5b50919050565b60006144ce82613aef565b91506144d983613aef565b92508282019050808211156144f1576144f06143d7565b5b92915050565b600061450282613aef565b91507fffffffffffffffffffffffffffffffffffffffffffffffffffffffffffffffff8203614534576145336143d7565b5b600182019050919050565b60008190508160005260206000209050919050565b60006020601f8301049050919050565b600082821b905092915050565b6000600883026145a17fffffffffffffffffffffffffffffffffffffffffffffffffffffffffffffffff82614564565b6145ab8683614564565b95508019841693508086168417925050509392505050565b6000819050919050565b60006145e86145e36145de84613aef565b6145c3565b613aef565b9050919050565b6000819050919050565b614602836145cd565b61461661460e826145ef565b848454614571565b825550505050565b600090565b61462b61461e565b6146368184846145f9565b505050565b5b8181101561465a5761464f600082614623565b60018101905061463c565b5050565b601f82111561469f576146708161453f565b61467984614554565b81016020851015614688578190505b61469c61469485614554565b83018261463b565b50505b505050565b600082821c905092915050565b60006146c2600019846008026146a4565b1980831691505092915050565b60006146db83836146b1565b9150826002028217905092915050565b6146f482613c01565b67ffffffffffffffff81111561470d5761470c6140a4565b5b6147178254614492565b61472282828561465e565b600060209050601f8311600181146147555760008415614743578287015190505b61474d85826146cf565b8655506147b5565b601f1984166147638661453f565b60005b8281101561478b57848901518255600182019150602085019450602081019050614766565b868310156147a857848901516147a4601f8916826146b1565b8355505b6001600288020188555050505b505050505050565b60006147c98385613c0c565b93506147d6838584614150565b6147df83613c47565b840190509392505050565b60006040820190506147ff6000830186613af9565b81810360208301526148128184866147bd565b9050949350505050565b60008151905061482b81613b95565b92915050565b60006020828403121561484757614846613b2d565b5b60006148558482850161481c565b91505092915050565b60008154905061486d81614492565b9050919050565b81810361488257505061495a565b61488b8261485e565b67ffffffffffffffff8111156148a4576148a36140a4565b5b6148ae8254614492565b6148b982828561465e565b6000601f8311600181146148e857600084156148d6578287015490505b6148e085826146cf565b865550614953565b601f1984166148f68761453f565b96506149018661453f565b60005b8281101561492957848901548255600182019150600185019450602081019050614904565b868310156149465784890154614942601f8916826146b1565b8355505b6001600288020188555050505b5050505050505b565b6000819050919050565b600061498161497c6149778461495c565b6145c3565b613aef565b9050919050565b61499181614966565b82525050565b60006040820190506149ac6000830185613af9565b6149b96020830184614988565b939250505056fea26469706673582212201baca7660af60c1998985db652776f1fc879ac60dc44dc26e2887cd17619257464736f6c63430008140033",
  "linkReferences": {},
  "deployedLinkReferences": {}
}